:020000040800F2
:10000000C8A4002099010008F71A00089B190008ED
:10001000F51A00084D0300082F1D0008000000001D
:100020000000000000000000000000001B1B000892
:100030004104000800000000191B00081D1B0008F7
:10004000B3010008B3010008B3010008B3010008C0
:10005000B3010008B3010008B9060008B3010008A5
:10006000B3010008B3010008B3010008B3010008A0
:10007000B3010008B3010008B3010008B301000890
:10008000B3010008B3010008B3010008B301000880
:10009000B3010008B3010008B3010008B301000870
:1000A000B3010008B3010008B3010008B301000860
:1000B000ED1B0008B3010008B3010008B3010008FC
:1000C000B3010008B3010008B3010008B301000840
:1000D000B3010008B3010008B3010008B301000830
:1000E000B3010008B3010008B3010008B301000820
:1000F000B3010008B3010008B3010008B301000810
:10010000B3010008B3010008B3010008B3010008FF
:10011000B3010008B3010008B3010008B3010008EF
:10012000B3010008B3010008B3010008B3010008DF
:10013000B3010008B3010008B3010008B3010008CF
:10014000B3010008B3010008B3010008B3010008BF
:10015000B3010008B3010008B3010008B3010008AF
:10016000B3010008B3010008B3010008B30100089F
:10017000B3010008B3010008B3010008000000004B
:10018000B3010008DFF80CD000F0CEF800480047BB
:10019000CD410008C8A40020064880470648004713
:1001A000FEE7FEE7FEE7FEE7FEE7FEE7FEE7FEE727
:1001B000FEE7FEE7A51B0008850100082DE9F05FBA
:1001C0000546002092469B468846064681464024C6
:1001D0001BE0284641464746224600F095F8534624
:1001E0005A46C01A914110D311461846224600F0D3
:1001F0007CF82D1A67EB01084F46224601200021AA
:1002000000F073F817EB00094E41201EA4F1010421
:10021000DFDC484631462A464346BDE8F09F0000F1
:100220000649074A0868504343F2390210440860FF
:10023000400870470149086070470000D80000205E
:100240006D4EC64140EA01039B0703D009E008C98F
:10025000121F08C0042AFAD203E011F8013B00F88B
:10026000013B521EF9D27047D2B201E000F8012BD7
:10027000491EFBD270470022F6E710B513460A4626
:1002800004461946FFF7F0FF204610BD10B504469E
:1002900004E00B7800F8013B03B1491C521EF8D270
:1002A000204610BD421C10F8011B0029FBD1801A0A
:1002B000704730B504460020034600E05B1C9342C3
:1002C00003D2E05CCD5C401BF8D030BD30B50546B4
:1002D0000020034600E05B1C934205D2EC5CC85C46
:1002E000201A01D1002CF6D130BD202A04DB203A9F
:1002F00000FA02F1002070479140C2F1200320FA79
:1003000003F3194390407047202A04DB203A21FA76
:1003100002F00021704721FA02F3D040C2F120021E
:100320009140084319467047064C074D06E0E068C7
:1003300040F0010394E8070098471034AC42F6D32C
:10034000FFF724FFDC7C0008FC7C0008FEE70000CF
:1003500000B587B000210E48026842F040020260FA
:10036000026802F040020192026842F0020202605A
:10037000006800F0020001904FF480700290059137
:100380000491039102A9034800F01CFD07B000BDD1
:10039000303802400018024070B5054600F002FEF9
:1003A000074C2168401AB0F5FA7F07D300F0FAFD38
:1003B00020602846BDE8704000F004B870BD000021
:1003C00008000020FEB504461A4D287800260128B2
:1003D00008D002280FD0052803D1204602F001FCE6
:1003E0002E70FEBD6660A660E66002202870204682
:1003F00002F0BEFBFEBD204602F005FC10B103205A
:100400002870FEBD206A807A0428FAD9042028705A
:10041000204602F0E6FB084802906FF07F40019012
:10042000064800906B4601AA02A9204604F078F81D
:10043000FEBD00001A000020C0A8010BC0A80101E9
:100440007047006800F58050816941F002018161C8
:100450007047006800F58050816941F40051816166
:100460007047000008B507494FF4FA520968B1FB1C
:10047000F2F14143009100BF0098411E0091FAD271
:1004800008BD00002000002038B50446206800F5B3
:100490008050816941F480118161206800F58050AD
:1004A000806900900120FFF7DDFF2068009900F5CA
:1004B0008050816138BD00001079537940EA0323F0
:1004C0000748084403641178D37841EA03619378BC
:1004D00052781B0443EA0222114341647047000032
:1004E000008002402DE9F041AEB00446002904D05E
:1004F0004FF40060E060C000A060002511951295E7
:100500001395149515951695E06900287DD01795DB
:100510004FF40070189019951A951B951C951D9510
:1005200040271E971F952095219522952395249568
:100530002595269580262796289529952A952B95E9
:100540002C952D952068026845490A40D4E902138C
:100550001943179B194341F400711143016020684E
:10056000D0F80080012000F0D5F82068C0F80080A5
:100570002068476020684768012000F0CBF82068B9
:100580004760206885602068C560206881694FF6F3
:100590004172114041F0800181612068876901202A
:1005A00000F0B8F8206887612068C5612068C769D5
:1005B000012000F0AFF82068C7610195B0040290F7
:1005C0000395011104910595069507950895042159
:1005D00009910A9040120B9080010C9040120D90EE
:1005E0000E960F951095206800F5805081691D4A80
:1005F00011401D4A0A438261206800F580508569D8
:10060000012000F087F8206800E016E000F5805037
:1006100085612068154900F580500160206800F56B
:1006200080500568012000F075F8206800F58050C2
:100630000560A069012804D00AE04FF4806017909B
:1006400066E7206800F58050C169094A1143C1611D
:1006500062692EB02046BDE8F0410021FFF72CBFB3
:100660000F8120FF233FDEF8040020028020C1021A
:100670004000010038B504462068016841F00401DB
:1006800001602068006800900120FFF7EBFE216800
:100690000098086038BD38B504462068016841F00C
:1006A000080101602068006800900120FFF7DAFE71
:1006B00021680098086038BD08B513480168C9076B
:1006C00003D0016841F001010160002000906A46FA
:1006D00012210E4800F040FA009880040FD56A46B7
:1006E00010210A4800F038FA0098C107084803D0E2
:1006F00042F20101018002E04FF40051018001202B
:1007000000F054FB08BD0000143C014014320020EE
:100710001800002031B500F045FC0546009C601C27
:1007200000D0641C00F03EFC401BA042FAD338BD50
:10073000F0B5002490F84550012D09D0012780F82C
:100740004570022580F84450816244F2F45C19E05F
:100750000220F0BD01EB44154FF000462E60C5F8B5
:1007600004C0C4EBC41606EB460602EB8606AE6078
:1007700086695E1EB44203D205F12006EE6000E0F9
:10078000E960641C9C42E5D3026802F58052D160A6
:1007900080F84470002180F845100020F0BD2DE95C
:1007A000F043002590F84540012C0BD04FF0010C90
:1007B00080F845C0022480F84440C1624FF480189C
:1007C0005F1E1CE00220BDE8F08301EB4514C4F875
:1007D0000080C5EBC51606EB460602EB8606A66052
:1007E000C66926B9266846F44009C4F80090BD429F
:1007F00003D204F12006E66000E0E1606D1C9D423A
:10080000E3D3026802F58052116180F844C00021F0
:1008100080F845100020D6E710B590F84510012962
:1008200013D0012380F84530022180F84410816AFA
:100830000A680024002A29DB0A68D20518D5826BD1
:10084000521C8263012A02D002E0022010BD016323
:100850002830C1600A68C2F30D42121F42618268EB
:1008600092688261C968016003774477002010BDF7
:100870000A68920505D5016344638363C968816290
:1008800004E0826B521C8263C968816200F8443FB5
:100890004470012010BD00002DE9FC4704464FF0D4
:1008A0000008CDF80480C146002C03D094F8440021
:1008B00018B107E00120BDE8FC8784F84580204698
:1008C00000F0FCF87548016841F48041016000685F
:1008D00000F4804000907248016821F4000101603A
:1008E0000168226A11430160206800F580500168A8
:1008F00041F00101016000F055FB05464FF4FA7626
:100900000AE000F04FFB401BB04205D9032084F8F9
:10091000440084F84580CEE7206800F580500068E8
:10092000C007EED12068006920F01C0500F09CFC97
:100930005C495D4A0144914202D245F008050EE04F
:100940005A495B4A0144914202D245F00C0506E047
:10095000584908445849884201D345F004052068A5
:1009600005614FF400420021204600F0E1F9012525
:1009700038B101212046FFF7B5FD84F8445001202D
:1009800099E7FF20FFF7C6FE6068E0B300F00AFBBE
:10099000074641F2883601AA0121204600F0DCF822
:1009A00000F000FBC01BB04209D901212046FFF72F
:1009B00099FD84F8445084F8458003207BE7019832
:1009C0004007E8D54FF480520021204600F0B0F9EE
:1009D00038B101212046FFF785FD84F844500120FD
:1009E00069E700F0DFFA074601AA0121204600F07E
:1009F000B3F800F0D7FAC01BB0420BD90121204652
:100A0000FFF770FD00E028E084F8445084F845804A
:100A1000032050E701988006E6D501AA1021204660
:100A200000F09AF838B101212046FFF75BFD84F809
:100A3000445001203FE70198410703D54FF400617E
:100A4000E16001E0C4F80C80800702D5C4F808809A
:100A50001BE04FF48040A06017E0E0680021C0F385
:100A6000CF02A068C0F34F000243204600F060F9B7
:100A700038B101212046FFF735FD84F844500120AC
:100A800019E740F6FF70FFF745FE49462046FFF79D
:100A900029FD84F8445000200DE70000443802404E
:100AA0000438014000D3CEFEC0E1E40040F1E9FD8E
:100AB00040787D0100796CFC005A6202F0B587B085
:100AC0000068204988423BD100241F48016841F05A
:100AD00000710160016801F000710191016841F04D
:100AE00080610160016801F080610191016841F05D
:100AF00000610160006800F0006001903E200290FB
:100B0000022503950494032605960B27069702A950
:100B10000E4800F057F98F20029003950494059633
:100B2000069702A90A4800F04DF943F603500290D7
:100B3000039504940596069702A9064800F042F929
:100B400007B0F0BD0080024030380240000802408B
:100B500000000240000402402DE9F047044691469F
:100B600094F8440082281DD0822084F84400206834
:100B7000026902F01C03228A4FF6FF7505EAC222C1
:100B80001A434FF4F86303EA8111114321F0020183
:100B900041F00105056100F005FA064601274FF412
:100BA00080380FE00220BDE8F08700F0FBF9801BE1
:100BB000404505D304F8447F002060700320F2E72D
:100BC00020680569E807F0D12068406980B2C9F85B
:100BD000000084F844700020E5E770B5044694F8FE
:100BE0004500012819D0012584F84550022084F8D9
:100BF00044002046FFF74FFD2046FFF73BFD20460F
:100C0000FFF742FC2046FFF724FC2046FFF719FCC3
:100C100004F8445F0020607070BD022070BDF0B524
:100C2000002390F84520012A11D0012780F8457053
:100C3000022280F84420002659B1C46A2268002AA2
:100C40000CDA122100F8441F46700120F0BD02208A
:100C5000F0BD00F8447F46700120F0BD40F2F4552D
:100C6000A9420AD9B1FBF5F2B1FBF5FC05FB1C1C4E
:100C7000BCF1000F02D0521C00E00122012A44D135
:100C8000226842F040522260C26AC1F30C015160F6
:100C9000C16A0A6842F000420A60C16AC968C1625A
:100CA00035E0C46AD4F800C02CF0405CC4F800C041
:100CB00033B9C46AD4F800C04CF0805CC4F800C0FA
:100CC000C46A6560541EA34214D1C46AD4F800C03B
:100CD0004CF0005CC4F800C0C2F10104C4EBC414C1
:100CE00004EB440401EB8404D0F82CC0C4F30C04DE
:100CF000CCF80440C46AD4F800C04CF0004CC4F8EE
:100D000000C0C46AE468C4625B1C9342C9D3016832
:100D100001F580514A69520705D504224A610168EC
:100D200001F580514E6000F8447F46700020F0BD10
:100D30002DE9F041044694F84400422820D0422096
:100D400084F844002068036903F01C03258A4FF6E9
:100D5000FF7606EAC5251D434FF4F86303EA8111C7
:100D6000294341F0020141F0010591B2416120683F
:100D7000056100F017F9064601274FF480380FE0AF
:100D80000220BDE8F08100F00DF9801B404505D33D
:100D900004F8447F002060700320F2E720680569B2
:100DA000E807F0D184F84470EBE7704710B50449C8
:100DB0000A68024202D00860FFF7F7FF10BD00008A
:100DC000143C01402DE9F84F0022DFF89891DFF83C
:100DD000948109F108094FF0010E4FF00F0C09F151
:100DE000040A0EFA02F60B683340B34271D14C6824
:100DF000022C01D0122C11D1D40800EB84073D6ADB
:100E00005407E40E0CFA04FB25EA0B05D1F810B0E8
:100E10000BFA04FB4BEA050BC7F820B00768540037
:100E20000325A540AF4391F804B00BF0030B0BFA78
:100E300004FB4BEA070BC0F800B04F68012F05D048
:100E4000022F03D0112F01D0122F11D18768AF4389
:100E5000D1F80CB00BFA04FB4BEA070BC0F808B052
:100E60004768B7430E79C6F3001696403E43466086
:100E7000C668AE438D68A5403543C5604C68E40044
:100E80006AD5394C256845F480452560246804F40A
:100E900080440094354C22F003052E19D6F80878CA
:100EA0009407250F0CFA05F4A743314CA04201D159
:100EB000002429E02F4CA04201D1012424E02E4C33
:100EC000A04201D102241FE02C4CA04202D10324F5
:100ED0001AE041E02A4CA04201D1042414E0294C3C
:100EE000A04201D105240FE0274CA04201D10624E5
:100EF0000AE0264CA04201D1072405E0244CA04280
:100F000001D1082400E00924AC403C43C6F808485D
:100F1000D8F800409C434D68ED0300D51C43C8F849
:100F20000040104D2D1D2C689C434E68B60300D523
:100F30001C432C60D9F800409C434D68ED0200D55D
:100F40001C43C9F80040DAF800409C434D68AD02EC
:100F500000D51C43CAF80040521C102AFFF441AFD0
:100F6000BDE8F88F003C01404438024000300140A9
:100F7000000002400004024000080240000C024051
:100F8000001002400014024000180240001C024001
:100F9000002002400069084201D001207047002073
:100FA0007047000001480068704700001C000020E6
:100FB00002480168491C0160704700001C000020C5
:100FC00010B50B48016841F400710160016841F4FB
:100FD00080610160016841F480710160032000F0CC
:100FE0008BF8002000F006F800F018F8002010BD83
:100FF000003C024010B5044607484FF47A7200687E
:10100000B0FBF2F000F00BFB00222146501E00F076
:1010100053F8002010BD00002000002008B51F4834
:10102000016841F480410160006800F48040009054
:101030001A48001F016841F080510160006800F00B
:1010400080500090032000F057F8002211466FF006
:101050000B0000F031F8002211466FF00A0000F09A
:101060002BF8002211466FF0090000F025F800224D
:101070001146501F00F020F800221146101F00F00A
:101080001BF800221146901E00F016F80022BDE861
:1010900008401146501E00F00FB8000044380240CE
:1010A00000F01F02012191404009800000F1E02082
:1010B000C0F8001170470000F0B40D460D4B1B68DE
:1010C000C3F30223C3F10704042C00D90424191D1F
:1010D000072901D2002300E0DB1E012606FA04F1F5
:1010E000491E294099409E40761E16403143F0BC6F
:1010F00000F002BD0CED00E000F00701054A1068A9
:101100004FF6FF03184040EA0120034908431060EE
:10111000704700000CED00E00000FA052DE9F047F3
:1011200004460D46002C14D0DFF82C91D9F80000AD
:1011300005F0FF0800F00F00A8420CD289F80080EB
:10114000D9F8000000F00F00A84204D00120BDE84B
:10115000F0870120FBE72068404E810712D5400749
:1011600003D5306840F4E05030602078000703D5A4
:10117000306840F4604030603068A16820F0F000D2
:10118000084330602078C0072ED0344960680839A1
:10119000012806D0022809D0096889070BD401204C
:1011A000D5E70968890306D40120D0E709688901D9
:1011B00001D40120CBE7316821F003010143316004
:1011C000FFF7F0FE074641F2883A06E0FFF7EAFE35
:1011D000C01B504501D90320B9E73068616800F0B1
:1011E0000C00B0EB810FF1D1D9F8000000F00F0036
:1011F000A84209D989F80080D9F8000000F00F0052
:10120000A84201D00120A2E72078400705D5306828
:10121000E16820F4E050084330602078000706D5EC
:101220003068216920F4604040EAC100306000F07D
:1012300021F83168F02292FAA2F201F0F001B2FA3C
:1012400082F2D140064A515CC8400649086000203D
:10125000FFF7D0FE00207AE7003C02400838024049
:10126000327B000820000020014800687047000021
:101270002000002010B51748006810F00C01164837
:1012800016D0164B042912D0082911D1114C241F55
:10129000216801F03F02216849020AD52068C0F3A5
:1012A0008810A0FB03010023FEF788FF09E0184621
:1012B00010BD21680023C1F38811A1FB0001FEF7D6
:1012C0007DFF2168C1F30141491C4900B0FBF1F0E9
:1012D00010BD0000083802400024F40040787D0171
:1012E0002DE9F84F0446002C15D0DFF80483207850
:1012F000A8F10407C007A7F104053CD0D8F8000006
:10130000C0F3810001280CD0D8F80000C0F38100A0
:10131000022803D00CE00120BDE8F88F38684002B5
:1013200006D52868800326D5606820BB0120F3E736
:10133000AF492079891F0870606870B1FFF732FEED
:10134000064606E0FFF72EFE801B642801D9032025
:10135000E2E728688003F5D50DE0FFF723FE064697
:1013600006E0FFF71FFE801B642801D90320D3E7A6
:1013700028688003F5D42078DFF8789280074FF052
:10138000000A52D5D8F800004FF0F80B10F00C0FFF
:1013900008D0D8F80000C0F38100022816D13868C0
:1013A000400213D42868800704D5E068012801D0E2
:1013B0000120B1E728689BFAABF22169B2FA82F208
:1013C00020F0F8009140084328602EE0E068E0B18A
:1013D0000120C9F80000FFF7E5FD064606E0FFF72B
:1013E000E1FD801B022801D9032095E728688007CA
:1013F000F5D528689BFAABF22169B2FA82F220F0A7
:10140000F8009140084328600FE0C9F800A0FFF7FA
:10141000C9FD064606E0FFF7C5FD801B022801D97D
:10142000032079E728688007F5D42078000729D5BC
:10143000DFF8BCB1704861690BF16C0B89B1012117
:101440000160FFF7AFFD064606E0FFF7ABFD801B2E
:10145000022801D903205FE7DBF800008007F4D5FC
:1014600010E0C0F800A0FFF79DFD064606E0FFF77C
:1014700099FD801B022801D903204DE7DBF800000D
:101480008007F4D4207840074CD55948383001689B
:1014900041F080510160006800F080500090DFF85A
:1014A0005CB1DBF8000040F48070CBF80000FFF77F
:1014B00079FD064606E0FFF775FD801B022801D97D
:1014C000032029E7DBF80000C005F4D5DFF820B1E0
:1014D000207A0BF1680B8BF80000A06888B1FFF749
:1014E00061FD064608E0FFF75DFD811B41F2883093
:1014F000814201D903200FE7DBF800008007F2D515
:1015000010E0FFF74FFD064608E0FFF74BFD811B9B
:1015100041F28830814201D90320FDE6DBF800006A
:101520008007F2D4A069E8B3D8F80010C1F38101B4
:1015300002295AD0022805D0C9F860A0FFF732FD71
:1015400004464DE0C9F860A0FFF72CFD064606E012
:10155000FFF728FD801B642801D90320DCE62868FA
:101560008001F5D4D4E90701084347F6C07292FA26
:10157000A2F2616AB2FA82F29140A26A4FF0FF339E
:1015800003EB52024FF4403393FAA3F3B3FA83F31D
:101590009A4011434FF0706292FAA2F20843B2FAF5
:1015A00082F200E01FE0E16A9140084338600120C8
:1015B000C9F86000FFF7F6FC044606E0FFF7F2FC0E
:1015C000001B642801D90320A6E628688001F5D510
:1015D00009E0FFF7E7FC001B642801D903209BE624
:1015E00028688001F5D4002096E6012094E60000EA
:1015F0000838024000004742800E47420070004019
:101600004FF0E021042804D0086920F004000861AC
:101610007047086940F0040008617047704710B5D2
:10162000401EB0F1807F01D3012010BD4FF0E024B7
:1016300060610F21601700F05FFA0020A0610720B1
:101640002061002010BD10B5FFF7E8FF10BD704706
:10165000704730B590F83C20012A20D0012380F853
:101660003C30022280F83D200268546824F0700467
:101670005460026854680D682C4354600268946892
:1016800024F0800494600268946849680C43946074
:1016900080F83D30002180F83C10002030BD022051
:1016A00030BD10B50446002C03D094F83D0010B1B5
:1016B00007E0012010BD002084F83C00204600F027
:1016C0000DF8022084F83D00211D206800F094FAF6
:1016D000012084F83D00002010BD000008B500681E
:1016E000B0F1804F12D10A48016841F00101016058
:1016F000006800F001000090002211461C20FFF756
:10170000DBFCBDE808401C20FFF7CABC08BD000098
:101710004038024070B5044694F83C00012817D0C8
:10172000012584F83C50022084F83D00206882683E
:1017300022F0770222F47F428260086850283AD073
:101740000DDC20285FD005DCA0B3102864D155E063
:10175000022070BD30285BD040285DD13FE060287A
:1017600033D070280CD0B0F5805F03D0B0F5005FA7
:1017700052D113E02068816821F0070181604BE0BD
:10178000CB68D1E90121206800F09CFA20688168CB
:1017900021F0770141F0770181603DE0CB68D1E92C
:1017A0000121206800F08EFA2068816841F48041B0
:1017B000816031E01DE0CA684968206800F094FA51
:1017C0005021206800F088FA26E0CA68496820683D
:1017D00000F09BFA6021206800F07EFA1CE0CA68E5
:1017E0004968206800F080FA4021206800F074FA0F
:1017F00012E00021206800F06FFA0DE0102120684F
:1018000000F06AFA08E02021206800F065FA03E0A1
:101810003021206800F060FA3C34657000202070B0
:1018200070BD704770B50446206801694FF000052F
:10183000C943890716D4C168C943890712D4E91E70
:1018400001610120207720688069800703D020464D
:10185000FFF7E7FF05E0204600F09BF8204600F088
:1018600099F8257720680169C943490718D4C168E8
:10187000C943490714D46FF00401016102202077A5
:101880002068806910F4407F03D02046FFF7C9FF2D
:1018900005E0204600F07DF8204600F07BF8257733
:1018A00020680169C943090717D4C168C9430907FA
:1018B00013D46FF008010161042020772068C0690B
:1018C000800703D02046FFF7ACFF05E0204600F07C
:1018D00060F8204600F05EF8257720680169C9436A
:1018E000C90618D4C168C943C90614D46FF01001E1
:1018F0000161082020772068C06910F4407F03D080
:101900002046FFF78EFF05E0204600F042F8204613
:1019100000F040F8257720680169C943C90708D15C
:10192000C168C943C90704D1891E0161204600F07E
:1019300032F820680169C943090609D4C168C9435E
:10194000090605D46FF0800101612046FFF77FFE94
:1019500020680169C943490609D4C168C9434906D9
:1019600005D46FF040010161204600F015F82068B1
:101970000169C94389060BD4C168C943890607D4E4
:101980006FF0200101612046BDE87040FFF760BEA6
:1019900070BD7047704770477047FEE700B587B06D
:1019A00000211A48026842F080020260026802F0D8
:1019B00080020192026842F004020260026802F0B2
:1019C00004020192026842F001020260026802F021
:1019D00001020192026842F002020260006800F017
:1019E000020001900120029009480390049102A98D
:1019F0000848FFF7E7F9002211460620FFF75CFBD5
:101A00000620FFF74DFB07B000BD00003038024054
:101A100000003110000802400EB502F0C8FB134967
:101A200000200860091D0860091D08601049114A5E
:101A3000CDE901210D4B009008331A1F111F0E48EC
:101A400002F038FD0C4802F091FD0B4890F82F0091
:101A5000400703D5084802F0CEFD02E0064802F038
:101A60008BFDBDE80E40044801F082B80C00002058
:101A700041330008313400084001002010B586B021
:101A800017484FF08041016047F22F514160002418
:101A900084604FF47A71C16004618461FFF701FED4
:101AA00018B149210FA000F05FF94FF48050029067
:101AB00002A90B48FFF72EFE18B14F2109A000F034
:101AC00053F920200090019469460548FFF7C1FDB5
:101AD000002803D0562103A000F046F906B010BD3F
:101AE0005C3200202E2E2F5372632F74696D2E638B
:101AF00000000000FEE770470907090E002806DA1B
:101B000000F00F0000F1E02080F8141D704700F194
:101B1000E02080F8001470477047704710B5FFF759
:101B200047FABDE81040FFF78EBD000030B591B018
:101B300001240594069400250B9505A8FFF7D0FB1A
:101B400018B1B92113A000F00FF90F2000900194F3
:101B500002954FF4A05003904FF480500490002160
:101B60006846FFF7DBFA18B1C7210AA000F0FCF8BD
:101B7000FFF77AFB4FF47A71B0FBF1F0FFF74FFDFE
:101B80000420FFF73DFD00221146501EFFF794FA96
:101B900011B030BD2E2E2F5372632F6D61696E2EE2
:101BA000630000000D48016841F0010101600B4A2B
:101BB0000021083211600268094B1A400260031DBF
:101BC000084A1A60026822F48022026003480C303E
:101BD000016005495806086070470000003802405F
:101BE000FFFFF6FE1030002408ED00E00148FFF78B
:101BF00019BE00005C3200202DE9F0410268264D3C
:101C0000264E274FDFF89CC0274B4FF08048A84254
:101C100009D0404507D0B04205D0B84203D0604556
:101C200001D0984203D122F070044A682243A842AE
:101C30001BD0404519D0B04217D0B84215D06045EE
:101C400013D0984211D0194CA0420ED0184CA0428B
:101C50000BD0184CA04208D0174CA04205D0174C0E
:101C6000A04202D0164CA04203D122F44074CA68AC
:101C7000224322F080024C69144304608A68C262E5
:101C80000A688262A84201D0984201D109690163C1
:101C900001214161BDE8F0810000014000040040E5
:101CA00000080040000C00400004014000400140DA
:101CB000004401400048014000180040001C004062
:101CC0000020004010B5846824F47F4442EA0322D7
:101CD0000A432243826010BD826822F070020A43E8
:101CE00042F007018160704710B5036A046A24F06E
:101CF00001040462846924F0F00444EA021423F02D
:101D00000A020A438461026210BD10B5036A23F01F
:101D1000100303628469036A24F4704444EA0232C3
:101D200023F0A00343EA01118261016210BDFEE7C6
:101D300090F82F00C1070B4810D0017811B101783D
:101D4000052901D1012101700178032904D000780F
:101D5000042801D000207047012070470521017040
:101D6000002070471A000020FEE702E008C8121F9A
:101D700008C1002AFAD170477047002001E001C174
:101D8000121F002AFBD1704710B5044660688047D7
:101D900022462068BDE81040014902F0E9BE00007B
:101DA000891D000800280BD0026A002A08D0537A47
:101DB000082B05D10968926A914201D100F064B9FB
:101DC00070472DE9FC410546002D67D02C6A002C98
:101DD00064D000272784636B4FF03C02581C4FF4FB
:101DE00080384FF0010C4FF6FF760AD01E33B3FB5C
:101DF000F2F0404500D3304683B263840BB9A4F8B7
:101E000022C0A36B581C0CD01E33B3FBF2F141452A
:101E100000D331468BB223830BB9A4F818C0208BB2
:101E2000A083E36B581C0CD01E33B3FBF2F2424587
:101E300000D3324693B263830BB9A4F81AC0608B07
:101E4000E083208B638B984201D303B12783E07A30
:101E500010B1E06A01900DE094F828307F2B02D891
:101E6000FF20019006E0C02B03D36FF07F4001906C
:101E700000E00196206B009028B9A06A0199084003
:101E800040F0807000900A21204600F069FE6B4609
:101E900001AA04F12801284602F042FBBDE8FC81BA
:101EA00070B505462C6A0821204600F059FE002234
:101EB00004F12801284601F0EBF8A07AFF2801D2AE
:101EC000401CA0724FF4FA7040F2E731B1FBF0F021
:101ED000E08270BD10B51748046828E0216A09B394
:101EE000487AF8B1488C68B1088C401C80B20884EC
:101EF0004A8C904206D1204600F004FD204600F0B6
:101F000015F913E0C88B18B1421ECA83012806D008
:101F1000888B38B1421E8A83012804D006E020460F
:101F200000F095FE02E0204600F07CFE2468002CC4
:101F3000D4D110BD580000202DE9F04105460C46D3
:101F40001646002D0ED08CB100224FF49A71104627
:101F500002F05FFBE06060B1032E12D0A07A404F28
:101F600050B10CE06FF00F00BDE8F0816FF005009C
:101F7000FAE74FF0FF30F7E7FEF752F9B860B868BC
:101F80002060E06840682061012101702069417093
:101F9000216995F82800887020690027C77020689B
:101FA00002F0F4F8216948602069078120694781BF
:101FB0002069C760082E0AD0042E08D0072E06D04C
:101FC000032E07D1607A052801D0042802D12169A7
:101FD0006868C86020690761206947612069876176
:101FE000002095F82810814205D9062803D2291827
:101FF00091F8291000E00021236900F11C02995496
:10200000401C80B21028ECD30020226900F12C0182
:102010005754401C80B24028F7D30020226900F1B9
:102020006C015754401C80B28028F7D321690D48B9
:10203000C1F8EC00A7820020226900F1F0015054A1
:10204000401C80B24428F7D301223521204600F0FD
:102050007BF93146204600F085F9002084E7000036
:10206000BC0000206382536310B5064C2078401EEC
:10207000C0B22070002804D1E06805F0C1FC002047
:10208000E06010BDBC0000207CB50646346A0C211F
:10209000204600F065FD042221463046FFF74CFF44
:1020A0000546280021D104223221204600F04CF9B7
:1020B000A06A02F06BF80146204600F05AF920466B
:1020C00000F083F9A08AF03081B2E06802F0A4FC4D
:1020D0000D484323CDE900600D480C4AE168C06813
:1020E00005F0C4FC204600F015F8A07AFF2801D2C4
:1020F000401CA07242F603104FF4FA71B0FBF1F0ED
:10210000E08228467CBD00005C7C0008607C000802
:10211000BC00002010B50446002C06D0E06808B1D1
:1021200002F0EEFB0020E060206110BD2DE9FC41D3
:102130008046D8F820400020A0620621204600F00A
:102140000FFD012221464046FFF7F6FE0746380004
:102150002FD102223921204600F0F6F8B8F82610D7
:10216000204600F023F904223721204600F0ECF845
:1021700000251F4E2046715D00F0F4F86D1CEDB295
:10218000042DF7D3204600F020F9A08AF03081B268
:10219000E06802F041FC17484323CDE90080144871
:1021A000154A401EE168C06805F060FC2046FFF754
:1021B000B1FFA07AFF2801D2401CA072A17A0629A3
:1021C00002D20120884000E03C2000EB4001C1EB3E
:1021D000C0104FF6FF7101EAC00000F2F3104FF497
:1021E000FA71B0FBF1F0E0823846BDE8FC810000F6
:1021F000BD0000205C7C0008607C000870B50B48C6
:10220000046800250EE0216A59B1C88A012803D963
:10221000A0F10100C88204E003D1CD82204600F085
:102220002DFD2468002CEED170BD00005800002068
:1022300070B5046A0021E1622163174EA6F12805FA
:10224000F078002801D0E8686063307910B128691F
:10225000A06302E0606B4008A063707910B1686908
:10226000E06304E0606BC0EBC000C008E06360683E
:102270000069A062B07930B1A86901F087FFE0621F
:102280000120E07200E0E172F079002803D0E869F3
:1022900001F07CFF206370BDCC63002010B50446C4
:1022A000206A0C2100F05CFC054B20461A461146C2
:1022B00002F036F92046BDE81040FFF737BF0000B6
:1022C0005C7C000870B505462C6A094880780028B7
:1022D0000DD007482838806801F058FF60626068B8
:1022E0000069A0622846BDE8704000F0BBBB70BD2D
:1022F000CC63002010B5114C2078002815D105F0D2
:1023000049FBE060B0B1017A41F020010172442242
:102310000B4905F0FDF943220949E06805F03AFA56
:1023200000220849E06805F067FB2078401C207017
:10233000002010BD4FF0FF3010BD0000BC00002099
:102340005C7C00080528000810B5838A5C1C848228
:102350000469F033E154818A4B1C83820069F031B7
:10236000425410BD828A531C83820069F03281542A
:10237000704710B5828A0C0E531C83820369F032B9
:102380009C54828A0C0C531C83820369F0329C5447
:10239000828A0C0A531C83820369F0329C54828A1D
:1023A000531C83820069F032815410BD10B5828ABB
:1023B0000C0A531C83820369F0329C54828A531C9A
:1023C00083820069F032815410BD002814D0818AC4
:1023D000FF234A1C82820269F0315354002304E037
:1023E0004A1C82820269F0315354818A442901D304
:1023F0008A0701D04429F3D3704700002DE9F34F39
:1024000083B004464FF0000B002102910A219A4844
:10241000FDF731FF049949892C2904D26FF001009E
:1024200005B0BDE8F08F049949686160F026049812
:10243000B0F80880049F06E0311A8EB2A8EB0000C5
:102440001FFA80F83F6817B17889B042F4D917B104
:10245000D7F804A0DDE06FF00100E1E74FF0FF34B2
:10246000B01C1FFA80F97A89701C824203D90AEBEA
:102470000600407805E0386810B14068007800E058
:102480000020054634294DD00BDC032928D003DC7D
:10249000D1B101290DD11CE0062929D0332908D159
:1024A00037E0352945D036294AD03A294FD03B2943
:1024B00054D000253044801C86B27DB300200190AA
:1024C0006D48005D58B393E000200546761EB6B215
:1024D000F0E7042802D06FF00500A1E70624E9E741
:1024E0000425042802D26FF0050099E70724E1E7EC
:1024F000810702D06FF0050092E7082801D2054657
:1025000000E00825A84202D26FF0050088E7082401
:10251000D0E7042804D06FF0050081E768E024E0EC
:102520000324C7E7012802D06FF0050078E70024F4
:10253000C0E7012802D06FF0050071E70124B9E778
:10254000042802D06FF005006AE70224B2E70428ED
:1025500002D06FF0050063E70424ABE7042802D043
:102560006FF005005CE70524A4E7042D01D228469E
:1025700000E0042000904B4601A93846009A02F082
:1025800089F901460098814202D06FF0010047E7C7
:10259000042D16D9A80702D06FF0050040E7364990
:1025A00001200855019801F0F1FD3349283941F81F
:1025B00024002D1FEDB209F104091FFA89F9641CEA
:1025C0007EE7042D04D0012D07D06FF0050027E72A
:1025D000019801F0DBFD019002E09DF804000190FC
:1025E00025490120085524480199283840F824102D
:1025F0007889B0420DD8311A8EB2A8EB00001FFACC
:1026000080F846450DD2B8F1000F0AD03F68D7F8E0
:1026100004A037B11AF80610FF2902D04645FFF48E
:102620001DAF154A1078A0B1A2F128000068002162
:102630001170012804D0022805D0032806D008E034
:102640004FF0010B05E00120029002E00120029012
:102650008346BBF1000F05D04FF0000B6C264FF006
:10266000EC08E7E6029828B1002002902C264FF0F3
:102670006C08DFE60020D3E6CC6300202DE9F843A8
:1026800007463D6A0421284600F06AFA03222946DB
:102690003846FFF751FC80465FEA08002CD1022241
:1026A00039212846FFF750FEF98C2846FFF77EFEB9
:1026B000042237212846FFF747FE00241B4E2846F8
:1026C000315DFFF74FFE641CE4B2042CF7D32846BB
:1026D000FFF77BFEA88AF03081B2E86802F09CF92F
:1026E00012480097401E4323114AE968C06805F06C
:1026F0009FF92846FFF70EFDA87AFF2801D2401C5B
:10270000A872A87A0A2803D24FF47A71484301E0EC
:1027100042F2107080B200F2F3104FF4FA71B0FB85
:10272000F1F0E8824046BDE8F8830000BD000020DB
:10273000607C00082DE9F84307463C6A03212046E7
:1027400000F00EFA032221463846FFF7F5FB8046DB
:102750005FEA080039D1022239212046FFF7F4FD53
:102760004FF410712046FFF721FE0422322120464B
:10277000FFF7EAFDA06A01F009FD01462046FFF7D8
:10278000F8FD042237212046FFF7DEFD00251B4E11
:102790002046715DFFF7E6FD6D1CEDB2042DF7D309
:1027A0002046FFF712FEA08AF03081B2E06802F006
:1027B00033F912480097401E4323114AE168C0686C
:1027C00005F036F92046FFF7A5FCA07AFF2801D2D4
:1027D000401CA072A07A0A2803D24FF47A714843B1
:1027E00001E042F2107080B200F2F3104FF4FA717F
:1027F000B0FBF1F0E0824046BDE8F883BD00002068
:10280000607C00082DE9F04116463C4845682C6A7A
:1028100073680027002C69D0207A002866D0708960
:102820002C2863D31878022860D1002095F828104E
:1028300001E0401CC0B281420BD9062809D22A18F7
:1028400003EB000C92F829209CF81CC062454DD186
:10285000EFE7586801F09AFC2168884246D131467A
:102860002046FFF7CBFD10BB25484078F8B124483F
:1028700028380079052802D0062820D028E0607A80
:10288000012806D0032813D0042811D005280FD022
:102890002CE02846FFF7CCFC95F82F00000703D565
:1028A0002846FFF7FDFA21E02846FFF78AFA1DE0E7
:1028B0002846FFF7BDFC2846FFF783FA16E0637A47
:1028C000032B08D0012B06D0042B04D0052B02D0FB
:1028D000022804D00AE02846FFF7E0FC06E0607A10
:1028E000062803D1E7822846FFF7ECFC04B16760B5
:1028F0003046BDE8F04102F003B800009C320020F1
:10290000CC6300207CB505462C6A002C1ED0606A82
:102910000190284600F077F906460021204600F095
:102920001FF900206062A062E0622063E063A063A0
:10293000606360842084E083A08356B1072221462F
:102940002846FFF7F9FA06462EB124E06FF00F0093
:102950007CBD00207CBD042236212046FFF7F4FC1C
:10296000019801F013FC01462046FFF702FD2046C6
:10297000FFF72BFDA08AF03081B2E06802F04CF83E
:1029800009480095432301AAE168C06805F050F8A2
:102990002046FFF7BFFB054B28461A46114601F0BB
:1029A000BFFD30467CBD0000BC0000205C7C000800
:1029B0002DE9F84307463C6A0521204600F0D0F88F
:1029C000032221463846FFF7B7FA80465FEA08003F
:1029D0002DD1022239212046FFF7B6FCF98C204682
:1029E000FFF7E4FC042237212046FFF7ADFC002569
:1029F0001B4E2046715DFFF7B5FC6D1CEDB2042D3A
:102A0000F7D32046FFF7E1FCA08AF03081B2E068FE
:102A100002F002F812480097401E432304F12402FA
:102A2000E168C06805F004F82046FFF773FBA07A60
:102A3000FF2801D2401CA072A07A0A2803D24FF4CA
:102A4000FA61484301E044F6206080B200F2F310DE
:102A50004FF4FA71B0FBF1F0E0824046BDE8F88334
:102A6000BD0000202DE9FC418046D8F8204001211E
:102A7000204600F075F8032221464046FFF75CFA35
:102A80000746380047D1022239212046FFF75CFC77
:102A9000B8F826102046FFF789FC04223221204690
:102AA000FFF752FCA06A01F071FB01462046FFF7D8
:102AB00060FC042236212046FFF746FC606A01F0E4
:102AC00065FB01462046FFF754FC042237212046CF
:102AD000FFF73AFC00251F4E2046715DFFF742FCD0
:102AE0006D1CEDB2042DF7D32046FFF76EFCA08AD3
:102AF000F03081B2E06801F08FFF17484323CDE941
:102B000000801448154A401EE168C06804F0AEFF1A
:102B10002046FFF7FFFAA07AFF2801D2401CA072DE
:102B2000A17A062902D20120884000E03C2000EB77
:102B30004001C1EBC0104FF6FF7101EAC00000F286
:102B4000F3104FF4FA71B0FBF1F0E0823846BDE8C3
:102B5000FC810000BD0000205C7C0008607C000857
:102B6000427A8A4203D0417200218172C182704749
:102B700070B505466FF00F01002D0BD095F82F00B2
:102B8000C00709D02C6AE88C0E11B0F5107F05D271
:102B9000304670BD084670BD084670BD64B1207AED
:102BA00008B1FFF761FA40212046FDF764FBFFF70B
:102BB000A1FB50B1304670BD402001F07DFB0446C2
:102BC0000CB12C62EFE7304670BD01202072284620
:102BD000FFF7ACFA0028F7D0284600F002F830469C
:102BE00070BD10B500280DD0046A002C0AD0002159
:102BF0002046FFF7B5FF207A002803D0FFF734FA0C
:102C00000020207210BD00280AD0006A40B1407A2E
:102C10000A2803D0052801D0002070470120704702
:102C20000020704710B5046A617A012903D00A298F
:102C300001D005290AD1FFF7BBFE608B218C401A19
:102C4000022803DB00EBD0704008A08310BD10B554
:102C5000046A617A012905D00A2903D0052901D027
:102C600004290AD1FFF70AFD608C218C401A022842
:102C700003DB00EBD0704008E08310BD10B50446C4
:102C8000216A4A7A0C2A0FD0062A0DD0012A10D0C8
:102C9000082A1ED0032A2ED1887A022826D220465E
:102CA000BDE81040FFF746BD2046BDE81040FFF7E5
:102CB0003DBA887A052804D82046BDE81040FFF7C1
:102CC000D1BE2046FFF71EFE2046BDE81040FFF7AC
:102CD0002DBA887A012804D82046BDE81040FFF7B5
:102CE000DFB82046BDE81040FFF76BB82046BDE8CE
:102CF0001040FFF71BBA10BD826812680A60806836
:102D00000160704781680868002802D002680A6084
:102D1000704700207047000070B505460024094E3A
:102D200004EB440006EBC000017D29B18068A84295
:102D300002D1204600F084F8641CE4B20A2CEFD3E0
:102D400070BD0000D86300202DE9F74F05464FF015
:102D50000A09CA460A2300209B460027844680466B
:102D6000364900EB400401EBC402117D0A2B00D16F
:102D700049B1A1B14DB12E68D2F804E0764504D135
:102D800040B2BDE8FE8F43B209E0012913D0022909
:102D900005D3518A414502D34FFA80FA8846401C38
:102DA000C0B20A28DCD301984FF0FF3180071BD452
:102DB0000A2B12D014E0214951F8341031B1548A51
:102DC000BC42ECD34FFA80FB2746E8E7568A6645BB
:102DD000E5D34FFA80F9B446E1E70198C00703D084
:102DE0000A2B03DADCB215E00846CAE7BAF10A0F8B
:102DF00002DA0AF0FF040AE0B9F10A0F02DA09F078
:102E0000FF0404E0BBF10A0F15DA0BF0FF042046C3
:102E100000F016F835B1094804EB440200EBC2009B
:102E200029684160054804EB440200EBC200002120
:102E3000418260B2A5E70846A3E70000D8630020FE
:102E400070B5084D00EB4004002655F8340000280A
:102E500003D001F055FD45F8346005EBC40006755C
:102E600070BD0000D86300202DE9FE4307460D46E3
:102E7000002D11D07C684FF480782088404508D11F
:102E80002079062805D16079042802D160880828B5
:102E900004D0384601F034FDBDE8FE83D4F80E00BE
:102EA0000290A0690190696819B1884203D1012696
:102EB00002E0002600E000260EB1012300E002231C
:102EC00004F10802914602A9284600F0F7F9E088CB
:102ED000404503D0B0F5007F25D120E01EB302208D
:102EE00001F060F9E080D4F80E00A0616868C4F8D1
:102EF0000E00A068C4F81200A089E082D5F829006D
:102F0000A060B5F82D00A08140F60600009004F105
:102F100012034A463946284600F064FA03E002A943
:102F20002846FEF73FFF384601F0EAFCB4E7000010
:102F3000FEB505460E4614462946206800F06EFB95
:102F400008B1354B3CE02068C0F303110E2922D0B4
:102F5000A9686B6800EA01020B409A4208D080B26F
:102F6000A0F57E41A93903D0E86898B305F10C04B7
:102F70002A4B2B481A7802EB420100EBC1010F7D6E
:102F8000022F2BD3276849688F4227D13146284624
:102F900000F048F8FEBD01208DF8040000208DF8F7
:102FA00005005E208DF80600607800F07F008DF847
:102FB0000700A0788DF80800E0788DF8090001ABD3
:102FC0004FF40060009005F129023146284600F0D8
:102FD00009FAFEBDFFE76FF00300FAE7002101EBFD
:102FE000410200EBC202177D022F0AD32768526804
:102FF000974206D1CAB21A703146284600F012F83C
:10300000E7E7491C49B20A29E9DB3246214628464E
:1030100000F03EF8DDE70000427B0008CC00002015
:10302000D86300202DE9F84306460F46174802EB07
:10303000420100EBC10404F10C05207D022818D1E7
:10304000618A4FF00308B1F58E7F07D9211D304604
:1030500000F0EEF868B984F814800AE0B1F5877FD3
:1030600007D32A46211D304600F0E8F808B984F855
:1030700014804FF4006000902B4606F12902394677
:10308000304600F0AFF9BDE8F8830000D8630020B7
:103090002DE9FC5F8246894617460AF12900019016
:1030A0004FF0FF344FF0000B5146D9F8000000F00C
:1030B000B5FA98B9D9F80000C0F303110E290DD064
:1030C000B9F1000F0AD048B1524601214846FFF736
:1030D0003BFE0646300004D5BDE8FC9F6FF00F00B4
:1030E000FAE72E4806EB460800EBC805287D28B90C
:1030F0004FF0010B01202875C5F808A0BBF1000FA7
:1031000000D12FB94946504600F092F8044697B1D5
:10311000287DDFF8889002280FD3214806704FF4ED
:103120000060009005F10C0339465046019A00F00A
:1031300059F9044630E02046CEE701282CD1002181
:103140003C4605E0207B012801D0012102E02468F3
:10315000002CF7D181B121890022022001F059FA17
:1031600005466DB13946284601F044FB40B128467A
:1031700001F0C6FB002503E03D46284601F076FC41
:1031800045B159F8380008B101F0BAFB49F8385098
:10319000002401E04FF0FF3420469DE7D863002073
:1031A000CC0000202DE9FF4F81B08B46DDE90F9A5E
:1031B000DDF838801E46002700221C21022001F085
:1031C00028FA054628002FD06C68119800F0EAFF15
:1031D000E0803068A060B088A081D9F80000C4F811
:1031E0001200B9F80400E082D8F80000C4F80E001C
:1031F000DAF80000A0614FF4807020800820608021
:10320000062020710420607140F6060000905A46A6
:103210002946039B019800F0E5F8284601F070FB71
:10322000384605B0BDE8F08F4FF0FF30F9E70000F9
:10323000014A00F003B80000427B00087FB5064D4C
:10324000031D0124CDE90035CDE9021425331946CB
:10325000FFF7A8FF04B070BD487B000870B50024DC
:10326000154D04EB440005EBC002117DF9B1508A05
:10327000401C80B25082B0F5967F03D2012905D15F
:10328000052803D32046FFF7DBFD10E0032904D017
:10329000042905D0012906D009E00420107506E0B4
:1032A0000220107503E0111D9068FFF7C1FF641C38
:1032B000E4B20A2CD5D370BDD8630020F8B505461A
:1032C0000C4616461F46002C34D0206888B3294689
:1032D00000F0A4F968BB2078C0F303100E2829D0B1
:1032E0002A4639462046FFF72FFD002820DB134AE7
:1032F00000EB400102EBC1000223037585603368D7
:10330000C360B38803820023438252F8314074B112
:1033100042F831304FF400600090334605F1290245
:103320002146284600F05EF8204601F0E9FA002028
:10333000F8BDFFE76FF00F00FAE70000D863002048
:1033400070B504460E4660890E283DD960688589AF
:103350000278D10715D0012A05D006222049FCF7B2
:10336000A8FF50B10DE0417859B980785E2808D1A6
:10337000607B40F01000607303E0607B40F0080069
:1033800060736FF00D01082D03D0B5F5C16F1BD12F
:103390000FE096F82F00000716D560890E2813DB82
:1033A000204601F0F3FA78B93146204600F016FACB
:1033B00013E096F82F00000706D560890E2803DB7E
:1033C000204601F0E3FA20B1204601F099FA0020EE
:1033D00070BD31462046FFF747FD002070BD00005C
:1033E000427B00082DE9F04780460F4616461D46F1
:1033F000089800F0D7FE81460E21384601F0C6FA43
:1034000018B16FF00100BDE8F0877C68A4F80C905B
:1034100028682060A888A0803068C4F80600B088BA
:10342000608139464046D8F81820BDE8F04710477B
:1034300010B5732180F83010742180F831100449E0
:1034400041610449816100F063FD002010BD00006E
:10345000312F0008DD40000870B50546284600F011
:10346000DBFD0446002C0AD02A69294620469047F5
:10347000002804D02046BDE8704001F041BA70BD7C
:103480000A46032100F090B82DE9FE4F0446884615
:10349000444FD7F808A09AF800000007850E142DB5
:1034A0007ADB6089042877D36068017800296ED0C0
:1034B00008296CD107F114097869C0F303110E29AA
:1034C00044D0396800F0AAF850BB2089082863D39B
:1034D00005F10E0001B20E46204601F057FA70B316
:1034E00020890022284481B2022001F092F8064689
:1034F000B6B1718905F10800814203D2304601F06E
:10350000FFF923E02A4651467068FCF79BFE6842AB
:1035100001B2304601F03AFA18B1304601F0F0F944
:1035200014E02146304601F065F918B1304601F04B
:10353000E7F90BE0204601F0E3F934460BE0FFE742
:10354000704201B2204601F021FA20B12046BDE8C8
:10355000FE4F01F0D5B966682946204601F016FAFB
:10356000A8B96068D9F80010C1603969016100210B
:1035700031707180FF22027241810120CDE9010882
:103580000091FF2300224946204600F019FA204608
:10359000BDE8FE4F01F0B4B92046BDE8FE4F01F092
:1035A000AFB900009C3200202DE9FF47064688464F
:1035B000914600222421012001F02BF80546280025
:1035C00026D077686C6884F8008084F801904FF00A
:1035D0000008A4F80480A4F80680686871680830C0
:1035E0001C22FCF72FFEF868039003A800F004FBF0
:1035F00058B1A4F802800121CDE900810290FF2397
:1036000003AA0021284600F0DBF9284601F078F9EA
:10361000BDE8FF870A460B21FFF7C6BF08B500903B
:10362000421C07D0020005D091F82F20920703D446
:10363000002008BD012008BD4A68824201D1002057
:1036400008BD896800EA01030A40934202D10143A0
:10365000491C01D0002008BD012008BD2DE9F74F0D
:1036600088B004460998C08C1438C11700EB51701B
:10367000C0F3CF00059014260027606807900798D4
:10368000BD1F017801F00F01052903D028460BB0BA
:10369000BDE8F08FC08800F085FDC0F30C010391F8
:1036A000800401D52846F2E7208914381FFA80F8F3
:1036B0008CE00598B8EBC00F01D2404601E00598B8
:1036C000C00080B2049000221421022000F0A1FF6B
:1036D00083465FEA0B004FD01422DBF80400079901
:1036E000FCF7B0FDDBF804000690049D2BE0608938
:1036F000801B87B2BD4200D22F467FB300F0AAFAEA
:1037000081465FEA09002DD060684B463044CDE920
:10371000000702223946042001F017F88246BAF168
:10372000000F23D0204601F0A1F9C9F814402A481F
:10373000C9F810005146584601F035F8E81B85B22B
:103740000DB100262468002DD1D1F01986B2099858
:10375000C08C1438404512DB012111E0FFE7002640
:103760002468F0E7584601F0CBF805E0484600F041
:1037700074FA584601F0C4F84FF0FF3087E7002193
:103780000398C0F30C0009B940F4005000F00AFDA2
:103790000699C8800498143080B200F003FD0699A1
:1037A0004880069800214181099859460A9A436940
:1037B0009847584601F0A4F80498A8EB00001FFAB7
:1037C00080F805990398084480B20390B8F1000F7F
:1037D0007FF46FAF00205AE7F93E00082DE9F05F53
:1037E00006460F464FF0010B756804212878B1EBAF
:1037F000101F05D0304601F083F80020BDE8F09F8F
:1038000000F00F004FF6FF7101EA8008688800F0B1
:10381000C9FC04463089A04203D92146304601F054
:10382000FBF87089404505D33089A04202D3B8F136
:10383000140F04D2304601F063F80020DEE7DFF811
:1038400078A12869CAF81400E968CAF81010C0F312
:1038500003100E2811D04FF001093C4694F82F00B8
:10386000C00714D0616891B1DAF8140088421CD006
:103870002146FFF7D3FEC0B909E097F82F00C00733
:1038800003D0786808B13C460FE000240DE0B9F1A0
:10389000000F04D04FF000094848046800E0246895
:1038A000BC4200D12468002CD8D15CB9687A1128B8
:1038B00008D105EB08004088B0F5884F02D13C469E
:1038C0004FF0000BBBF1000F0CD0DAF8100048B13C
:1038D0003946FFF7A3FE88BB9AF81000C0F3031027
:1038E0000E282DD05CB3E88830F0C00005D03046FB
:1038F00000F0D0F806466EB37568CAF80040CAF802
:103900000470CAF8085028780007800EAAF80C0046
:103910000FFA88F8C8F1000001B2304601F036F81D
:10392000687A012822D006281BD0112814D02146FD
:10393000DAF81400FFF772FEE8B12BE000E004E0D3
:10394000304600F0DDFF002058E7304600F0D8FF99
:10395000002053E7002051E73946304603F046FF88
:103960001BE03946304601F04FFC16E03946304640
:10397000FFF78AFD11E09AF81400C0F303100E2837
:1039800008D04146304601F004F875600221304607
:10399000FFF776FD304600F0B3FF0020CAF80000C4
:1039A000CAF80400CAF80800AAF80C00CAF8100007
:1039B000CAF8140022E700009C32002058000020C2
:1039C000FEB5DDE908670A9C002A04D00D0001D08D
:1039D0000D6805B9211DCDE90067029400F002F8D9
:1039E000FEBD00002DE9F84F0546DDE90AABDDF824
:1039F0003080894616461F46002E2FD014212846B7
:103A000000F0C4FF18B16FF00100BDE8F88F6C68DA
:103A1000277284F809B0306820614520207084F84E
:103A200001A0288900F0BEFB60804FF0000AA4F8D6
:103A300006A0164F388800F0B5FBA0803888401CDF
:103A40003880B9F1000F05D0D9F80000E060A4F883
:103A50000AA007E00E480068E060F8E768680069BF
:103A600000906E46B8F8260040B12989814205D9F8
:103A7000324641462846FFF7F1FDC6E7D8F8143034
:103A80003246294640469847BFE70000CE00002056
:103A90005C7C00082DE9F0478246DAF8045028786B
:103AA00000F00F00052878D1E88800F07BFBC00407
:103AB0004FEA1048688800F075FB297801F00F0183
:103AC000494200EB81001FFA80F9504600F089FE60
:103AD0000646484F388830440A2809D931462846D6
:103AE00000F0B0F900287FD0388830440A287BD80D
:103AF0007C680CE06069E968884207D1A06929699F
:103B0000884203D1A089A988884202D02468002C69
:103B1000F0D12CB1E88800F045FBC00408D012E0D9
:103B20003146284600F02AF9044620005CD00AE01D
:103B3000E08900F037FBC00405D01422294604F1C7
:103B40000800FCF77FFB388830443880A87980066D
:103B500006D4A07F40F00100A07708EB0900A08305
:103B60005146204600F07EF8D8B3A08B1430A083D5
:103B7000606846683568142204F108013046FCF795
:103B800061FBA08B00F00EFB70800020F080708144
:103B9000D4F804806FF013090AE025E06E68494606
:103BA000284600F0F3FE2946404600F0FCFD35684B
:103BB000002DF3D179688C4205D1002105E0086819
:103BC000A04202D001460029F9D1204600F0C4F8F5
:103BD000404600F006FE3988081A38804046BDE8A5
:103BE000F087FFE70020FAE7504600F089FE00204A
:103BF000F5E70000D000002070B5064613480068C5
:103C000014E090F82F10CA070FD04A070DD543686B
:103C10005BB184683268234002EA04059D4214D0F7
:103C2000890702D4C1688A420FD000680028E8D111
:103C30000748006840B190F82F10CA0704D0490720
:103C400002D54168002900D1002070BD5800002035
:103C50005C000020052000F021BC0146052000F09A
:103C6000EDBB00002DE9F04707460E460024012574
:103C7000D6F80480B8F8020000F094FA98F8001022
:103C800001F00F01494200EB8109B8F8060000F08D
:103C900089FAC004010C736800201860998001EB58
:103CA00009001FFA80F8A3F806807A681CE05068C3
:103CB000B0F804C061450CD21A6044B1B4F806C033
:103CC00061453AD38088804537D826600EE07E6013
:103CD0000CE032D0C28891422FD31CB1E2886245F9
:103CE00000D0002502680446002AE0D142B934B170
:103CF0002660E0889988884202D0002500E07E6036
:103D0000B87FC00717D09DB1786810B1406880882F
:103D100008B100250CE0196808E04868D988828855
:103D2000914201D0002503E0034601680029F4D147
:103D30002846BDE8F0870020FBE7304600F051FD43
:103D4000014604480288511A0180304600F0D8FD2F
:103D50000020EEE7D000002030B40B460649026890
:103D60004C68844201D14A6000E01A60014630BCD0
:103D7000042000F063BB0000D000002070B50646B0
:103D80000D46042000F08AFB044654B9294630460B
:103D900000F058F8A84203DB042000F07FFB044643
:103DA0008CB120212046FCF766FA0320E077074813
:103DB0004168216044601422314604F10800FCF798
:103DC00041FA204670BD002070BD0000D0000020E8
:103DD0002DE9F041064688460025746860688188B0
:103DE000002912D100687060142206F10801606891
:103DF000FCF728FA01212046FFF70CFC204600F0D2
:103E0000F0FC0546204600F07BFD74680AE060681F
:103E100027460468384600F0E4FC284485B238465A
:103E200000F06EFD002CF2D141463046FFF794FFC2
:103E300003490888401B08802846BDE8F08100003F
:103E4000D00000202DE9F04705460F460026DFF898
:103E500078800020002100230024D8F8042022E0EC
:103E6000D2F814C0D5F80C90CC450BD1D2F818C0BC
:103E7000D5F81090CC4505D1B2F80CC0B5F8049037
:103E8000CC4509D0641CE0B192F81FC090F81F9097
:103E9000CC4501D810460B46D2F800C0BCF1000F4B
:103EA00000D011466246002ADAD118B11946FFF750
:103EB0008FFF0644BE4201DA012CCADC3046BDE861
:103EC000F08710460B46E7E7D000002070B50025CC
:103ED000084844680BE0E07F20B1401EE0772546AB
:103EE000246804E0204624682946FFF771FF002C6F
:103EF000F1D170BDD000002010B5044660690028E3
:103F000001D000F0FDFC2046BDE81040FFF7A5BE43
:103F10003EB50446002002903C4D3B4929600121FA
:103F2000696029828DF8000080218DF80110E1215F
:103F30008DF802108DF803008DF804008DF805004F
:103F4000C5F814D0A861E86128622846FCF7A4FCF3
:103F500028B994F82F0040F0040084F82F000423BF
:103F60002B4A2C492948FCF71AFC2A4A04238032A0
:103F7000A2F580712548FCF7DBFB06202634A070F3
:103F800068690078E07068694078207168698078B5
:103F900060716869C078A07168690079E0716869CA
:103FA0004079207240F2DC502080607A40F00A00B4
:103FB00060721648FCF711FE02AA11211348FCF7A3
:103FC000CBFD029840F00302029211210F48FCF74A
:103FD000AFFE02AA12210D48FCF7BEFD029840F088
:103FE0002002029212210948FCF7A2FE02AA122125
:103FF0000648FCF7B1FD029840F0400202921221FF
:104000000248FCF795FE3EBD0080024014320020BD
:10401000441A0020F40100202DE9F84F0020009000
:1040200000242D48FCF7F8FB10B10020BDE8F88F04
:104030002948818F89B2D0F8409021B10322042011
:1040400000F0E7FA0090009858B32348D0F8308089
:10405000009D24E06F89002640F2F45B12E068685E
:10406000A4F2F45209EB040130445242FCF7EAF89E
:10407000D8F80C80D8F80890AAF2F457361B06F24C
:10408000F456002407EB040ADA45E8D8686809EB1F
:10409000040130443A46FCF7D5F83C442D68002D25
:1040A000D8D10D4A106B002105E0036843F00043AE
:1040B0000360C068491C936B8B42F6D80021916362
:1040C000106800F580504269120602D580224261D4
:1040D00081600098AAE70000143200202DE9F05F0B
:1040E0000E462948C56AD5F808A04FF000090024FB
:1040F00035E02868002802DA6FF0070036E0B6F8ED
:104100000A8000271BE07068A4F2F452C1190AEB80
:1041100004005242FCF796F8ED682868002802DA9D
:104120006FF0070022E0D5F808A0ABF2F4583F1B6F
:1041300007F2F457A9EB040909F2F459002408EB3B
:10414000040B40F2F4508345DDD870684246C11933
:104150000AEB0400FCF776F84444C1443668002EAC
:10416000C7D149460848FCF75AFD002006490968AE
:1041700001F580514A69920603D520224A61002246
:104180004A60BDE8F09F000014320020010600F4F0
:104190007F4241EA022100F47F0241EA122141EA12
:1041A000106070470106090C41EA1020704710B5F5
:1041B00000F068F800F04EF900F0A4F903F014FBE9
:1041C00001F020F8BDE8104000F020BD88B02022AA
:1041D0001E496846FCF736F80124FCF7F1FEFDF7AE
:1041E000A5FCFDF7DBFBFDF749FCFDF715FCFCF733
:1041F000AFF802F0C3FD1648FDF79AFD154E2702F1
:104200001348FFF729F900F081FC1148FCF7C4F8C6
:104210000F48FDF78DFD08B1012500E00025394666
:104220003046FCF7B7FE204305D125B1012468468E
:1042300000F04CFCE4E739463046FCF7ABFE0128C1
:10424000DED1002CDCD00024DAE70000147B00086B
:10425000400100200018024000280FD008490A68D9
:1042600090420BD34A68904208D20838002202716B
:104270008A68904200D2886000F0FEBB7047000060
:104280002400002010B50A480A4A20F003001060FC
:104290004FF4C863038000214180017100F5C861BB
:1042A000516001240C710B804B80906010BD0000A8
:1042B000B7320020240000202DE9F04100280ED064
:1042C000C01C4FF6FC7100EA01030C2B00D20C233A
:1042D0004FF4C867BB4204D90020BDE8F08100203C
:1042E000FBE7224E3468B268101B81B2C3F5C86C7C
:1042F00037E06018057995BB05886D1A083D9D4229
:104300002ED3058803F114086D1A083D4FF0010CF7
:10431000454515D30B4408339DB263194FF000088F
:1043200083F80480B0F80080A3F8008059800580ED
:1043300080F804C01988B94204D0A31CCD5201E012
:1043400080F804C0904202D007E011880A19117960
:1043500011B171688A42F8D1B2600830BDE7FFE759
:10436000615A8C45C5D80020B7E700002400002022
:104370002DE9F047C91C4FF6FC7211400C2900D200
:104380000C214FF4C86C614502D90020BDE8F087CC
:10439000DFF8A490D9F80040A042F7D3D9F8042060
:1043A0009042F3D2A0F10802131B9BB21588EE1ABB
:1043B000083EB7B2B94202D94FF00000E6E7E5D0B7
:1043C00025441D4E95F804A04FF000083668BAF158
:1043D000000F06F1020618D001F11405BD42D5D830
:1043E000194408318DB26119D9F80840A14201D2AF
:1043F000C9F8081081F8048014880C804B8015805F
:1044000009886145C2D08D53C0E72F88194408310F
:1044100089B2D9F808A0AA4502D16518C9F8085090
:104420000C4484F8048027806380118022886245D0
:10443000ACD09153AAE7000024000020092806D23E
:10444000002904D0024A52F82000FEF755BC7047FC
:10445000BC7B000830B50024044D55F8240000F062
:1044600007F8641CA4B2092CF7D330BDBC7B00084C
:104470008268002111604168C91C21F003010022FB
:1044800007E083681B680B60836819600388194420
:10449000521C43889342F4DC70470000092801D382
:1044A00000207047024951F82000FEF72BBC0000A5
:1044B000BC7B00082DE9F04106AD0446E0CD0020AC
:1044C0006060A060E06084F82F002062032084F820
:1044D0002400E5610A4D287884F83200401C2870D9
:1044E0002761204600F01CF82046B04710B100209C
:1044F000BDE8F081686820606C602046F8E7000045
:10450000540000207047C90709D04168002906D02F
:1045100090F82F10090702D5011DFEF789BE7047DC
:104520002DE9F04107460C4615461E46002C0FD0DB
:10453000216869B12946384600F056F831463846B8
:1045400000F027F821463846BDE8F04100F028B8D1
:104550002146384600F024F82946384600F044F851
:1045600031463846BDE8F04100F013B80149886093
:10457000704700005400002090F82F10CA0707D0A1
:1045800021F0010180F82F10090701D5FEF7C4BB07
:104590007047002902D00968C16070470021FBE71D
:1045A00038B504460D46002D02D02868009002E080
:1045B0000C48006800900098616888420ED06946F7
:1045C000201D01F039F96946201D03F0C9F935B104
:1045D0002868606001212046FFF795FF38BD002064
:1045E000F7E700005C7C0008002902D009688160C0
:1045F00070470021FBE790F82F10CA0708D141F05F
:10460000010180F82F10490702D50321FFF77BBF76
:1046100070472DE9F0470D46174605281BD2DFE805
:1046200000F0030507090B00362606E0222604E009
:104630000E2602E0002600E000264FF001094FF0B0
:104640000008F7B3012F6BD0022F69D0032F04D0DD
:104650000020BDE8F0870020FBE70820FFF71EFFE1
:104660000446200019D02773C4F80080A019133025
:1046700020F0030060602581F61C26F00300C0F5E1
:104680000170A84200D9284680B26081A4F80E903B
:1046900026462D1A4FF4017A1CE000F0B7F90020ED
:1046A000D7E70820FFF7FAFEB8B1077380F80D804E
:1046B000C0F800803060A9B20181514500D3514655
:1046C00000E011E0418100F110024260A0F80E907C
:1046D0006D1A0646002DE4DC2FE000F097F9204625
:1046E00000F00EF90020B4E706F1130020F00301FA
:1046F000E81C20F00300084480B2FFF7DDFD04460B
:1047000020000BD0A019133020F003006060258139
:104710006581C4F8008084F80C800EE0002098E7E2
:104720000720FFF7BBFE044620000CD0C4F804802D
:1047300025816581C4F800802773A4F80E9084F861
:104740000D80204685E7002083E770B50546DDE94A
:1047500004461846052D15D2DFE805F003050709C4
:104760000B00362306E0222304E00E2302E00023A0
:1047700000E00023DB1C23F003035D18B54203D9DE
:10478000002070BD002070BD0025056014B12344D9
:10479000436000E04560022343730181418102735D
:1047A0000121C18170BD10B500280FD000290DD0A6
:1047B00004E003890C892344038110460268002A1F
:1047C000F7D102890B891A440281016010BD10B52E
:1047D0000C462146FFF7E7FF2046BDE8104000F0F9
:1047E00045B9002102E0491C89B200680028FAD1CD
:1047F000084670472DE9F04705460C46002600277D
:104800006FF00F09002D04D01CB12889218988423E
:1048100002D24846BDE8F0876FF0050A68896189D1
:10482000801BC91B884202DB1FFA81F801E01FFAD6
:1048300080F860684246C11968683044FBF702FDA1
:1048400006EB080086B207EB080087B26089B84221
:1048500001D8002724686889B04205D100262D6858
:1048600015B90CB14846D5E73CB160892189884229
:1048700003D1206808B15046CCE73DB16889298949
:10488000884203D1286808B15046C3E7002CC5D13F
:104890000020BFE72DE9F047894616464FF0000893
:1048A000002805D0B9F1000F05D00027044622E00A
:1048B0000020BDE8F0870020FBE72BB1608998421B
:1048C00002D8181A83B215E06089C01A85B2B542C1
:1048D00000D9354660682A46C11809EB0700FBF786
:1048E000B1FC08EB05001FFA80F8781987B2701B3D
:1048F00086B2002324680EB1002CDED14046D8E7F2
:1049000070B5002801D0002407E0002070BDC189E7
:10491000491E89B2C18121B100200028F7D120466B
:1049200070BD0568017B427B920702D5016988470B
:1049300007E0032909D001290CD002290AD0FFF78A
:104940008BFC641CE4B22846E7E701460820FFF729
:1049500075FDF6E701460720FFF770FDF1E700005F
:1049600070B50848002505700748046807E0206F07
:1049700020B1206F02F034F9256770BDE468002C87
:10498000F5D170BD600000207C000020002200F006
:1049900003B80122AFF3008030B5002908D038B148
:1049A00008DA4B429DB24389AB4204D2012030BDAC
:1049B000002030BD8DB2037B44683BB1032B05D092
:1049C000022B0CD0012B0AD0012030BD621A4260AC
:1049D00000F110039A420FD24460012030BD00293B
:1049E00005DA4389AB4202D3621A426004E000292F
:1049F0000ADD4AB1621A426042890A444281028950
:104A000011440181002030BD012030BD0149012049
:104A1000087070476000002070B502898A4224D96E
:104A20008A1A0D46044605E0281A85B220891044EA
:104A3000208124686089A842F6D3207B68B9608908
:104A4000A8420AD0607B800707D4A088001B2844B6
:104A500081B22046FFF78CFC0446658125812068E1
:104A600008B1FFF74DFF0020206070BD002802D084
:104A7000C189491CC181704730B5134C0188226837
:104A80001144931C88420DD00D795DB96568A94227
:104A900008D0A5688D4200D1A0600D8805800988E6
:104AA000851ACD524188114481420BD00D79002DD9
:104AB00008D1A568854200D1A16004880C800088D7
:104AC000891AC15230BD00002400002070B505468F
:104AD0000C4C0D496068406802F0E6F82846FBF788
:104AE000E1FB82B2606801232946406802F00DFCB8
:104AF0002846FBF7D7FB81B260684068BDE870408C
:104B000001F06CBF000000204B6F00082DE9F0475A
:104B1000144F3868002822D000F028F87968441A29
:104B2000DFF8448098F8000008B1FFF719FF00256E
:104B3000396891B14868A0420FD801257A680244CB
:104B40007A60241A086838608E68D1F80C900620C4
:104B5000FFF774FC0EB14846B047002DE2D1BDE826
:104B6000F0870000A800002060000020FCF71ABABF
:104B70002DE9F04105460F4690460620FFF78EFCD2
:104B80000446200013D0FFF7F1FF1F490B68002BEC
:104B90000FD04A68A0EB02064FF000002060A7602B
:104BA000C4F80C8005EB0600606006D10C60BDE81F
:104BB000F0814FF000064860EEE75868A84204D93B
:104BC000401B586023600C60F1E7184614E04E6803
:104BD000964210D9026822B14A686368D21A4A60C4
:104BE00005E06168A94202D95968294461600168F9
:104BF00021600460DBE70846616842688A1A6260E7
:104C000001680029E6D0E2E7A800002070B5012481
:104C1000074D084905EBC40255F83400FFF7A8FF1B
:104C2000641C052CF5D3FFF7A1FF0349486070BD54
:104C3000347C0008891D0008A80000202DE9FC5FD5
:104C40000446207D0A283DD000250027D4F84C904A
:104C5000D4F824A0D4F88C60D4F810B0DFF8AC807D
:104C600078B30D46E78A214608F1180001F088F86C
:104C7000012088F80000E06E08B101F0B1FFA06EDD
:104C800008B101F0ADFF206F08B101F0A9FF45B1F7
:104C9000208B231DCDE9007022465146484601F085
:104CA0003AFF21460120FFF7C9FB002E2CD002B0AD
:104CB0005846B446BDE8F04F6FF00C015DF804EBC8
:104CC00060470AE0114821461C3001F059F821469E
:104CD000BDE8FC5F0120FFF7B1BBE08A0028CAD025
:104CE000D8F81000A0420AD1C068C8F8100008E047
:104CF000C168A14202D1E168C16002E00846002813
:104D0000F6D10020E060B6E7BDE8FC9F640000201B
:104D10000121FFF793BF002803D0027D012A00D1B3
:104D20008161704710B50846FFF7F2FF6FF00C0085
:104D300010BD000070B505460120FFF7AFFB04462B
:104D4000ECB900F093FC0120FFF7A8FB0446B4B9CE
:104D5000092000F06DFC0120FFF7A0FB044674B9A8
:104D6000082000F065FC0120FFF798FB044634B9E9
:104D7000284600F039FC0120FFF790FB044654B3AD
:104D800098212046FBF777FA143465704FF4E660FB
:104D9000A4F84C004FF40060E082A082FF2004F8E9
:104DA0000A0C4FF4E670E0830620A0856085C01FE2
:104DB000A0830120A08600F0A7FD2064A0632063EB
:104DC00060640648C168E160807860720448E0660B
:104DD0000448E067143C204670BD000064000020D9
:104DE000B769000800DD6D00002800D00161704740
:104DF0002DE9F04107460C460420002C00D11E4C42
:104E00006FF005032FB124B1397D21B11846BDE8FB
:104E1000F0811846FBE71AB10021DFF860C01CE002
:104E200000F046FD0246100019D1801EEFE75CF845
:104E300021301B680EE0DD8A95420AD133B11E682D
:104E400026B11CB125680DB1AE4202D16FF007004A
:104E5000DDE7DB68002BEED1491C8142E7DB14B1B2
:104E6000206800B13860FA8205480169F96007617D
:104E700002F0CAF90020CAE75C7C0008247C000824
:104E800064000020017D012903D0817E41F01001E2
:104E900081760121AFF300802DE9FC47044600260E
:104EA000207D554F4FF00108002941D0042801D042
:104EB00007283DD1616F19B9218DB1F5006F37D049
:104EC000208BE18ACDE90010231D2246616AE06C47
:104ED00001F021FE204600F032FFB869A04209D15E
:104EE000C068B86108E0C168A14202D1E168C16050
:104EF00002E008460028F6D1E66087F80080207DB1
:104F0000042806D03D480068A0420AD102F0DAF930
:104F10000BE00A202075F869E060FC6102F074F98A
:104F200003E021460120FFF789FA0020BDE8FC8755
:104F30004FF00509082856D2DFE800F0041D2C3A8E
:104F40004355554C0025E08A78B13869A04209D113
:104F5000C068386108E0C168A14202D1E168C1605F
:104F600002E008460028F6D1E66021460120FFF75E
:104F700065FA002439E00025204600F091FB1E4828
:104F80002146143000F0FCFE21460220FFF756FABD
:104F900000242AE0002518482146183000F0F0FED1
:104FA00087F8008021460120FFF748FA00241CE022
:104FB000204601F055FE0546280016D184F81490CD
:104FC00013E0204601F04CFE054628000DD184F880
:104FD00014900AE0204601F043FE0546280004D163
:104FE0000920207501E0002500241CB115B92046D8
:104FF00000F0D0FC284699E764000020A4000020BF
:105000002DE9F0470746DDF820800E4691469A4686
:105010005FEAC87001D0042500E000250320FFF7F7
:105020003DFA041E14D084F80A804FF00008C4F83A
:10503000008066603089401B208114213046FFF7D4
:10504000A5FC50B1204601F0BCFD0020BDE8F08772
:105050003046FFF755FC0020F8E760684068E060E4
:10506000F88AFFF79FF8E1680880388BFFF79AF815
:10507000E16848805046FFF789F8E16848600520FC
:1050800000EB950049EA003080B2FFF78BF8E16849
:105090008881E068A0F812802046D7E710B5044662
:1050A0000846FEF7A9FD50B1B0F9260028B128380E
:1050B00080B2844200D220460446204610BD2046DD
:1050C00010BDF8B504460D460026B4F86200771E00
:1050D000102801D3E80706D0A80700D50126F0075D
:1050E00007D0042106E0A07E40F08000A07638467C
:1050F000F8BD002100221046FFF78BFA58B1009648
:1051000001462A462046A36DFFF77AFF021E08D00B
:10511000A06E60B10EE0A07E40F08000A076384620
:10512000F8BDA07E40F08000A0763846F8BDA266AB
:1051300004E0084601680029FBD102600020A4F8C1
:10514000640005F0020005F00101084302D0A06DE3
:10515000401CA065E80703D0A07E40F02000A076A8
:105160005068FFF73EFB34F8621F0844208000209F
:10517000F8BD002801D0C0F88C10704770B5144EEF
:10518000B078401CB070B4691FE0617FB078814294
:105190001AD06077A07EC10709D040F00200A07647
:1051A000204600F0F7FBA07E20F00300A076E56823
:1051B000606F38B100203070204601F02BF8307855
:1051C0000028E0D12C4600E0E468002CDDD170BD61
:1051D0006400002010B50A4C20462269C088411C9A
:1051E00089B2002A02D0A388984204D2E26814321D
:1051F000E180105C10BDC01AE180C0B2105C10BD2F
:1052000084000020704700002DE9FC5F0546DB4E5E
:105210006868F0606889142873D3DFF86483D8F86D
:105220000010D8F81400FEF7F9F9002869D198F8B1
:105230001400C0F303100E2863D0F0688089FEF7D5
:10524000B1FF000B80001428E6D329898142E3D303
:10525000A0F1140189B27180002737616A89824206
:1052600005D3B18041422846FFF790FB1BE06FF069
:1052700013012846FFF78AFB6889B0807188091AF4
:105280008CB2404201B22846FFF780FB2868418972
:10529000A142C1D341683161614209B2FFF776FB97
:1052A0002889001B2881F0680088FEF77BFF0146F3
:1052B000F06801804088FEF775FF0146F068418084
:1052C0004068FEF763FF0146F068416071618068E5
:1052D000FEF75CFF0146F0688160B161C089FEF7AE
:1052E00061FF0146F068C1818089FEF75BFF00F035
:1052F0003F0986F8009029895FEA897002D0012071
:1053000001E035E10020084470810020DFF874C21C
:10531000DCF800301C46D8F81020F168D8F814A04A
:105320001CE0B4F818B0B1F800E0F34514D1B4F8BB
:1053300016B0B1F802E0F3450ED1D4F804B09345AD
:105340000AD1D4F800B0D34506D148B1E268C260B2
:10535000E360CCF8004003E02046E468002CE0D194
:10536000F4BB89480468D8E9040C16E0228B0B884A
:105370009A4211D1E28A4B889A420DD162688242E8
:105380000AD12268624507D1204601F057FF28461E
:10539000BDE8FC5FFFF7B4BAE468002CE6D1002357
:1053A000DFF8E8A1DAF8000080460BE0C28AB1F825
:1053B00002B05A4504D10268624505D020B11AB145
:1053C0000346C0680028F1D150B12BB1C168D96043
:1053D000C0F80C80CAF8000000F072F9284600E01E
:1053E00003E0BDE8FC5FFFF78BBA002C6FD0DFF85D
:1053F000A081C8F800702889A8F80800C8F80450EF
:10540000C8F80C10F761777037815FEA097003D52F
:10541000687B40F001006873606F40B1204600F087
:10542000F9FE0D303CD0606F08B17089C0BB3462AA
:10543000204600F0D1FC0D3076D0707800070FD5F3
:10544000D4F88C201AB16FF00D01206990472146E5
:105450004C4800F095FC21460120FEF7EFFF63E089
:10546000002032893AB1E36F13B121462069984791
:105470000D3059D037817078C00612D5A07EC00695
:1054800006D4D4F88C201AB16FF00E012069904731
:1054900021463C4800F074FC21460120FEF7CEFF77
:1054A00042E0F06900B3A17EC90605D5FFF728FAEE
:1054B0002046FFF72DFC37E0D4F8805045B1D4F8F2
:1054C00010C00246002321466046A84706E037E0A8
:1054D000002302462146184601F06DFA10F10D0F27
:1054E00022D008B1F06960677078800618D5606FC7
:1054F00020B1417B41F02001417311E0208DB0F5D6
:10550000006F01D0401C2085D4F880502DB10023BD
:105510001A4621462069A84700E000200D3003D03C
:105520003762204600F036FA3762F761D8F8040097
:10553000002803D0FFF7E4F9C8F80470BDE8FC9F29
:105540008889FEF72FFE40070DD4F0680C4B0188C8
:105550004088CDE9000171897069103301441A1D3A
:10556000B06901F0D8FA2846BDE8FC5FFFF7C8B97A
:105570002846BDE8FC5FFFF7C3B9000084000020A7
:105580009C3200207C000020800000207800002059
:10559000946300203EB50446E06C401EFEF7F6FD25
:1055A000034600221146204600F0DCFA0546A5B16C
:1055B000201DFEF721FB98B106210022CDE9002134
:1055C0000290A37A221D21462846FEF7F9F90446E7
:1055D0002846FFF795F920463EBD4FF0FF303EBD0F
:1055E0006FF00304F4E70000F0B47F2801D97F23B3
:1055F00000E00346002500240C4880690B49CE6872
:105600000AE0427D9A4206D8016A711AA94202D381
:105610000D4604461346C0680028F2D1002C03D082
:105620002046F0BCFFF774BBF0BC7047640000205C
:1056300030B40446002300200B498A69CD6809E094
:10564000117DA14205D1116A691A994201D30B4615
:105650001046D268002AF3D1002803D030BC0021C4
:10566000FFF7ECBA30BC70476400002030B4002370
:1056700000200A49C969094AD46806E00A6AA21AE0
:105680009A4201D313460846C9680029F6D100287A
:1056900002D030BCFFF73CBB30BC70476400002038
:1056A00070B506460124054D314655F824000068C2
:1056B00001F0B7F9641C042CF6D370BD247C0008FB
:1056C0007CB50546354E307841070ED4C1060DD560
:1056D000F068334B01884088CDE900017189706919
:1056E0001A1D0144B06901F016FA7CBD8007FCD593
:1056F000687DFFF71FFB044620003DD02848103886
:105700004169216000696060E88AE082F068008891
:1057100020830320207570690146401C6062E062AE
:10572000491E216528692061A567287A00F00C00D0
:1057300020721C480168E160046001F065FD1A49AF
:1057400001200870204600F097FAF0683234C089D2
:105750006085A085208334F83209211DFFF79EFC67
:10576000608612212046FFF7ACFC90B12046BDE8D0
:105770007C400021FFF762BA002DB6D0AB69002B48
:10578000B3D0286902B04FF0FF32BDE8704000216D
:1057900018472046BDE87C4000F0FCB8840000209B
:1057A000AC3200207C0000206400002070B504466C
:1057B000207D002801D0002070BD0220FEF76EFE83
:1057C0000546280018D020692861E08AE882012077
:1057D0002875607D6875207A2872A07AA872607A30
:1057E000687220682860E08A98B111490869A0426F
:1057F0000BD1C06808610AE0002070BDC168A142F9
:1058000002D1E168C16002E008460028F6D100201C
:10581000E06021460120FEF711FE0648A861044819
:1058200014300168E960056001F0EEFC284670BDA7
:1058300064000020254D000870B504460D46002C7C
:105840001ED0206800281BD00E4E2046B16900F003
:105850001BF82046316900F017F8002D10D0286899
:1058600000280DD006F11400026807E0D068116826
:105870002368994201D1296811600246002AF5D1B6
:1058800070BD00006400002070B50546084609E0C0
:1058900001682A68914204D1C468FFF739FA2046AA
:1058A00000E0C0680028F3D170BD4020FFF742BA85
:1058B000F0B50024124E134D4FF6FF77A888411C17
:1058C000A980B84202D14FF44040A8800021AA88A4
:1058D00056F8210000680AE0C38A934206D1641C8E
:1058E000A4B2B4F5804FE9D30020F0BDC068002811
:1058F000F2D1491CC9B20429EAD3A888F0BD00003E
:10590000247C0008640000200249D1E9020210440E
:10591000886070476400002070B505460C46E86852
:105920008089FEF73FFCC00704D0204601F058F9FB
:1059300000242BE0164E10E08089FEF733FCC007F0
:1059400007D00120FEF72EFC0146E868828911434A
:1059500081812046246801F034F944B1E06822894D
:105960007369416811442A891A44511AE4D56CB10B
:10597000288971694218E0684068121A002A05DD1A
:10598000401A81B229816868FFF746F82C6070BD23
:10599000840000202DE9F05F044671480068A042B1
:1059A00002D10020BDE8F09FB4F85C80B4F8480054
:1059B000804500D38046A56EA07E80070FD54DB1EF
:1059C000E8684068FEF7E2FB616C401A29890844E8
:1059D000404504D92046BDE8F05F01F00AB9E76E02
:1059E0000FB903E0074638680028FBD1201DFEF7F9
:1059F00003F981465FEA09006FF0030103D024B187
:105A0000206810B106E00846CCE709F1040020B197
:105A1000006820604FF0000A8CE00846C2E7E868A2
:105A20008089FEF7BFFBE06EA8B1A17E11F0440FA4
:105A300011D1A06E28B102686AB90089628E9042C5
:105A400009D2B4F8600030B1B4F86200102802D274
:105A500011F0A00F7AD0207D022807D01020FEF789
:105A6000A1FB0146E8688289114381814A462146AB
:105A7000284600F0ADF820B1A17E41F08001A1766A
:105A800090E72868A066207D022803D0A07E20F041
:105A90000300A076E8684068FEF778FB0646E868F1
:105AA0008089FEF77FFB800701D0012000E0002005
:105AB000298930440844E16C091A00D5E064E8689B
:105AC0008089FEF76FFB800701D0012000E00020F5
:105AD0002989C8422AD0C5F800A0E06E68B1E868FC
