:020000040800F2
:1000000068A4002099010008E719000827180008D3
:10001000E5190008FD0200081F1C00080000000090
:100020000000000000000000000000000B1A0008A3
:10003000FF02000800000000091A00080D1A00085D
:10004000B3010008B3010008B3010008B3010008C0
:10005000B3010008B301000875050008B3010008EA
:10006000B3010008B3010008B3010008B3010008A0
:10007000B3010008B3010008B3010008B301000890
:10008000B3010008B3010008B3010008B301000880
:10009000B3010008B3010008B3010008B301000870
:1000A000B3010008B3010008B3010008B301000860
:1000B000DD1A0008B3010008B3010008B30100080D
:1000C000B3010008B3010008B3010008B301000840
:1000D000B3010008B3010008B3010008B301000830
:1000E000B3010008B3010008B3010008B301000820
:1000F000B3010008B3010008B3010008B301000810
:10010000B3010008B3010008B3010008B3010008FF
:10011000B3010008B3010008B3010008B3010008EF
:10012000B3010008B3010008B3010008B3010008DF
:10013000B3010008B3010008B3010008B3010008CF
:10014000B3010008B3010008B3010008B3010008BF
:10015000B3010008B3010008B3010008B3010008AF
:10016000B3010008B3010008B3010008B30100089F
:10017000B3010008B3010008B3010008000000004B
:10018000B3010008DFF80CD000F0A6F800480047E3
:10019000F530000868A4002006488047064800475C
:1001A000FEE7FEE7FEE7FEE7FEE7FEE7FEE7FEE727
:1001B000FEE7FEE7951A0008850100082DE9F05FCB
:1001C0000546002092469B468846064681464024C6
:1001D0001BE0284641464746224600F06CF853464D
:1001E0005A46C01A914110D311461846224600F0D3
:1001F00053F82D1A67EB01084F46224601200021D3
:1002000000F04AF817EB00094E41201EA4F101044A
:10021000DFDC484631462A464346BDE8F09F40EAC7
:1002200001039B0703D009E008C9121F08C0042A74
:10023000FAD203E011F8013B00F8013B521EF9D25B
:100240007047D2B201E000F8012B491EFBD2704783
:100250000022F6E710B513460A4604461946FFF792
:10026000F0FF204610BD10B5044604E00B7800F8FE
:10027000013B03B1491C521EF8D2204610BD30B5D7
:1002800004460020034600E05B1C934203D2E05C7E
:10029000CD5C401BF8D030BD202A04DB203A00FAA8
:1002A00002F1002070479140C2F1200320FA03F3CD
:1002B000194390407047202A04DB203A21FA02F0CB
:1002C0000021704721FA02F3D040C2F12002914090
:1002D0000843194670470000064C074D06E0E068E9
:1002E00040F0010394E8070098471034AC42F6D37D
:1002F000FFF74CFFA4680008C4680008FEE77047D9
:10030000006800F58050816941F002018161704709
:10031000006800F58050816941F4005181617047A7
:1003200008B507494FF4FA520968B1FBF2F14143AD
:10033000009100BF0098411E0091FAD208BD000054
:100340002800002038B50446206800F580508169F7
:1003500041F480118161206800F58050806900902F
:100360000120FFF7DDFF2068009900F580508161D2
:1003700038BD00001079537940EA03230748084448
:1003800003641178D37841EA0361937852781B04AF
:1003900043EA02221143416470470000008002409A
:1003A0002DE9F041AEB00446002904D04FF40060BE
:1003B000E060C000A060002511951295139514957A
:1003C00015951695E06900287DD017954FF40070BB
:1003D000189019951A951B951C951D9540271E97E9
:1003E0001F95209521952295239524952595269551
:1003F00080262796289529952A952B952C952D951D
:100400002068026845490A40D4E902131943179B42
:10041000194341F40071114301602068D0F8008055
:10042000012000F0D1F82068C0F800802068476003
:1004300020684768012000F0C7F8206847602068FE
:1004400085602068C560206881694FF6417211405F
:1004500041F08001816120688769012000F0B4F8D3
:10046000206887612068C5612068C769012000F0A5
:10047000ABF82068C7610195B004029003950111A3
:1004800004910595069507950895042109910A9010
:1004900040120B9080010C9040120D900E960F951B
:1004A0001095206800F5805081691D4A11401D4A51
:1004B0000A438261206800F580508569012000F0C0
:1004C00083F8206800E016E000F580508561206820
:1004D000154900F580500160206800F580500568DE
:1004E000012000F071F8206800F580500560A069D7
:1004F000012804D00AE04FF48060179066E7206876
:1005000000F58050C169094A1143C16162692EB08A
:100510002046BDE8F0410021FFF72CBF0F8120FFEE
:10052000233FDEF8040020028020C10240000100C9
:1005300038B504462068016841F004010160206874
:10054000006800900120FFF7EBFE2168009808602A
:1005500038BD38B504462068016841F008010160E3
:100560002068006800900120FFF7DAFE21680098FB
:10057000086038BD08B511480168C90703D0016893
:1005800041F001010160002000906A4612210C48F0
:1005900000F03CFA009880040BD56A461021084808
:1005A00000F034FA0098C107064803D042F2010176
:1005B000018008BD4FF40051018008BD143C01408A
:1005C000043200202000002031B500F031FC054647
:1005D000009C601C00D0641C00F02AFC401BA04260
:1005E000FAD338BDF0B5002490F84550012D09D05C
:1005F000012780F84570022580F84450816244F25A
:10060000F45C19E00220F0BD01EB44154FF0004608
:100610002E60C5F804C0C4EBC41606EB460602EB18
:100620008606AE6086695E1EB44203D205F12006DE
:10063000EE6000E0E960641C9C42E5D3026802F5CC
:100640008052D16080F84470002180F8451000206D
:10065000F0BD2DE9F043002590F84540012C0BD06A
:100660004FF0010C80F845C0022480F84440C1627C
:100670004FF480185F1E1CE00220BDE8F08301EB00
:100680004514C4F80080C5EBC51606EB460602EB20
:100690008606A660C66926B9266846F44009C4F8ED
:1006A0000090BD4203D204F12006E66000E0E16064
:1006B0006D1C9D42E3D3026802F58052116180F8FF
:1006C00044C0002180F845100020D6E710B590F80E
:1006D0004510012913D0012380F84530022180F80C
:1006E0004410816A0A680024002A29DB0A68D205BE
:1006F00018D5826B521C8263012A02D002E00220CC
:1007000010BD01632830C1600A68C2F30D42121F98
:100710004261826892688261C968016003774477A8
:10072000002010BD0A68920505D501634463836308
:10073000C968816204E0826B521C8263C96881626D
:1007400000F8443F4470012010BD00002DE9FC4733
:1007500004464FF00008CDF80480C146002C03D0B9
:1007600094F8440018B107E00120BDE8FC8784F844
:100770004580204600F0FCF87548016841F480414E
:100780000160006800F4804000907248016821F424
:10079000000101600168226A11430160206800F5D0
:1007A0008050016841F00101016000F041FB054605
:1007B0004FF4FA760AE000F03BFB401BB04205D94B
:1007C000032084F8440084F84580CEE7206800F5D3
:1007D00080500068C007EED12068006920F01C0539
:1007E00000F088FC5C495D4A0144914202D245F028
:1007F00008050EE05A495B4A0144914202D245F095
:100800000C0506E0584908445849884201D345F090
:100810000405206805614FF400420021204600F0E5
:10082000E1F9012538B101212046FFF7B9FD84F82F
:100830004450012099E7FF20FFF7C6FE6068E0B34F
:1008400000F0F6FA074641F2883601AA0121204657
:1008500000F0DCF800F0ECFAC01BB04209D901212D
:100860002046FFF79DFD84F8445084F8458003201E
:100870007BE701984007E8D54FF4805200212046DD
:1008800000F0B0F938B101212046FFF789FD84F866
:100890004450012069E700F0CBFA074601AA012184
:1008A000204600F0B3F800F0C3FAC01BB0420BD9E9
:1008B00001212046FFF774FD00E028E084F8445051
:1008C00084F84580032050E701988006E6D501AA08
:1008D0001021204600F09AF838B101212046FFF798
:1008E0005FFD84F8445001203FE70198410703D59C
:1008F0004FF40061E16001E0C4F80C80800702D58C
:10090000C4F808801BE04FF48040A06017E0E06866
:100910000021C0F3CF02A068C0F34F00024320467D
:1009200000F060F938B101212046FFF739FD84F865
:100930004450012019E740F6FF70FFF745FE494695
:100940002046FFF72DFD84F8445000200DE70000FD
:10095000443802400438014000D3CEFEC0E1E40038
:1009600040F1E9FD40787D0100796CFC005A62029B
:10097000F0B587B00068204988423BD100241F4869
:10098000016841F000710160016801F0007101919E
:10099000016841F080610160016801F080610191AE
:1009A000016841F000610160006800F000600190A2
:1009B0003E200290022503950494032605960B27FA
:1009C000069702A90E4800F04BF98F20029003957C
:1009D00004940596069702A90A4800F041F943F6E7
:1009E00003500290039504940596069702A90648C1
:1009F00000F036F907B0F0BD008002403038024008
:100A00000008024000000240000402402DE9F047C7
:100A10000446914694F8440082281DD0822084F830
:100A200044002068026902F01C03228A4FF6FF7519
:100A300005EAC2221A434FF4F86303EA8111114315
:100A400021F0020141F00105056100F0F1F90646CF
:100A500001274FF480380FE00220BDE8F08700F056
:100A6000E7F9801B404505D304F8447F00206070FF
:100A70000320F2E720680569E807F0D120684069A3
:100A800080B2C9F8000084F844700020E5E770B532
:100A9000044694F84500012819D0012584F84550F2
:100AA000022084F844002046FFF753FD2046FFF75C
:100AB0003FFD2046FFF746FC2046FFF729FC204675
:100AC000FFF71EFC04F8445F0020607070BD022038
:100AD00070BDF0B5002390F84520012A11D0012700
:100AE00080F84570022280F84420002659B1C46A7B
:100AF0002268002A0CDA122100F8441F46700120F7
:100B0000F0BD0220F0BD00F8447F46700120F0BD2A
:100B100040F2F455A9420AD9B1FBF5F2B1FBF5FC5C
:100B200005FB1C1CBCF1000F02D0521C00E001228E
:100B3000012A44D1226842F040522260C26AC1F3C5
:100B40000C015160C16A0A6842F000420A60C16A41
:100B5000C968C16235E0C46AD4F800C02CF0405CBA
:100B6000C4F800C033B9C46AD4F800C04CF0805C4B
:100B7000C4F800C0C46A6560541EA34214D1C46A9C
:100B8000D4F800C04CF0005CC4F800C0C2F101040D
:100B9000C4EBC41404EB440401EB8404D0F82CC06F
:100BA000C4F30C04CCF80440C46AD4F800C04CF080
:100BB000004CC4F800C0C46AE468C4625B1C934281
:100BC000C9D3016801F580514A69520705D504224D
:100BD0004A61016801F580514E6000F8447F46701B
:100BE0000020F0BD2DE9F041044694F8440042286D
:100BF00020D0422084F844002068036903F01C03DD
:100C0000258A4FF6FF7606EAC5251D434FF4F863A3
:100C100003EA8111294341F0020141F0010591B23B
:100C200041612068056100F003F9064601274FF491
:100C300080380FE00220BDE8F08100F0F9F8801B59
:100C4000404505D304F8447F002060700320F2E79C
:100C500020680569E807F0D184F84470EBE70000EC
:100C60002DE9F84F0022DFF89891DFF8948109F11F
:100C700008094FF0010E4FF00F0C09F1040A0EFAAB
:100C800002F60B683340B34271D14C68022C01D09C
:100C9000122C11D1D40800EB84073D6A5407E40EEE
:100CA0000CFA04FB25EA0B05D1F810B00BFA04FB93
:100CB0004BEA050BC7F820B0076854000325A54090
:100CC000AF4391F804B00BF0030B0BFA04FB4BEAB3
:100CD000070BC0F800B04F68012F05D0022F03D0DA
:100CE000112F01D0122F11D18768AF43D1F80CB06A
:100CF0000BFA04FB4BEA070BC0F808B04768B74390
:100D00000E79C6F3001696403E434660C668AE4371
:100D10008D68A5403543C5604C68E4006AD5394C00
:100D2000256845F480452560246804F480440094D7
:100D3000354C22F003052E19D6F808789407250FB4
:100D40000CFA05F4A743314CA04201D1002429E05C
:100D50002F4CA04201D1012424E02E4CA04201D10D
:100D600002241FE02C4CA04202D103241AE041E0EF
:100D70002A4CA04201D1042414E0294CA04201D104
:100D800005240FE0274CA04201D106240AE0264C9E
:100D9000A04201D1072405E0244CA04201D108243F
:100DA00000E00924AC403C43C6F80848D8F80040AD
:100DB0009C434D68ED0300D51C43C8F80040104D1E
:100DC0002D1D2C689C434E68B60300D51C432C6037
:100DD000D9F800409C434D68ED0200D51C43C9F88A
:100DE0000040DAF800409C434D68AD0200D51C433A
:100DF000CAF80040521C102AFFF441AFBDE8F88F3A
:100E0000003C0140443802400030014000000240F4
:100E10000004024000080240000C024000100240A2
:100E20000014024000180240001C02400020024052
:100E30000148006870470000240000200248016853
:100E4000491C0160704700002400002010B50B48C9
:100E5000016841F400710160016841F48061016042
:100E6000016841F480710160032000F08BF80020DC
:100E700000F006F800F018F8002010BD003C024019
:100E800010B5044607484FF47A720068B0FBF2F0E0
:100E900000F00BFB00222146501E00F053F800200A
:100EA00010BD00002800002008B51F48016841F46B
:100EB00080410160006800F4804000901A48001FE3
:100EC000016841F080510160006800F0805000909E
:100ED000032000F057F8002211466FF00B0000F0DD
:100EE00031F8002211466FF00A0000F02BF80022C2
:100EF00011466FF0090000F025F800221146501F3E
:100F000000F020F800221146101F00F01BF800220C
:100F10001146901E00F016F80022BDE80840114668
:100F2000501E00F00FB800004438024000F01F02CD
:100F3000012191404009800000F1E020C0F800113B
:100F400070470000F0B40D460D4B1B68C3F302233D
:100F5000C3F10704042C00D90424191D072901D268
:100F6000002300E0DB1E012606FA04F1491E294099
:100F700099409E40761E16403143F0BC00F034BDCF
:100F80000CED00E000F00701054A10684FF6FF0382
:100F9000184040EA012003490843106070470000F0
:100FA0000CED00E00000FA052DE9F04704460D467F
:100FB000002C14D0DFF82C91D9F8000005F0FF08C0
:100FC00000F00F00A8420CD289F80080D9F8000088
:100FD00000F00F00A84204D00120BDE8F0870120F6
:100FE000FBE72068404E810712D5400703D53068E3
:100FF00040F4E05030602078000703D5306840F4BA
:10100000604030603068A16820F0F0000843306034
:101010002078C0072ED0344960680839012806D0EE
:10102000022809D0096889070BD40120D5E709688F
:10103000890306D40120D0E70968890101D4012081
:10104000CBE7316821F0030101433160FFF7F0FE87
:10105000074641F2883A06E0FFF7EAFEC01B50451A
:1010600001D90320B9E73068616800F00C00B0EBEB
:10107000810FF1D1D9F8000000F00F00A84209D982
:1010800089F80080D9F8000000F00F00A84201D0D4
:101090000120A2E72078400705D53068E16820F4F8
:1010A000E050084330602078000706D53068216999
:1010B00020F4604040EAC100306000F021F831685F
:1010C000F02292FAA2F201F0F001B2FA82F2D140DB
:1010D000064A515CC840064908600020FFF7D0FE70
:1010E00000207AE7003C0240083802401067000800
:1010F00028000020014800687047000028000020F8
:1011000010B51748006810F00C01164816D0164BA1
:10111000042912D0082911D1114C241F216801F093
:101120003F02216849020AD52068C0F38810A0FB5D
:1011300003010023FFF742F809E0184610BD2168BB
:101140000023C1F38811A1FB0001FFF737F82168E4
:10115000C1F30141491C4900B0FBF1F010BD000092
:10116000083802400024F40040787D012DE9F84F52
:101170000446002C15D0DFF804832078A8F104077A
:10118000C007A7F104053CD0D8F80000C0F38100E7
:1011900001280CD0D8F80000C0F38100022803D049
:1011A0000CE00120BDE8F88F3868400206D52868B9
:1011B000800326D5606820BB0120F3E7AF49207982
:1011C000891F0870606870B1FFF732FE064606E0BE
:1011D000FFF72EFE801B642801D90320E2E7286870
:1011E0008003F5D50DE0FFF723FE064606E0FFF786
:1011F0001FFE801B642801D90320D3E728688003E1
:10120000F5D42078DFF8789280074FF0000A52D5A5
:10121000D8F800004FF0F80B10F00C0F08D0D8F8F9
:101220000000C0F38100022816D13868400213D4B0
:101230002868800704D5E068012801D00120B1E7C3
:1012400028689BFAABF22169B2FA82F220F0F8002A
:101250009140084328602EE0E068E0B10120C9F821
:101260000000FFF7E5FD064606E0FFF7E1FD801B05
:10127000022801D9032095E728688007F5D528685A
:101280009BFAABF22169B2FA82F220F0F8009140A9
:10129000084328600FE0C9F800A0FFF7C9FD064623
:1012A00006E0FFF7C5FD801B022801D9032079E77E
:1012B00028688007F5D42078000729D5DFF8BCB16D
:1012C000704861690BF16C0B89B101210160FFF776
:1012D000AFFD064606E0FFF7ABFD801B022801D9F3
:1012E00003205FE7DBF800008007F4D510E0C0F8CA
:1012F00000A0FFF79DFD064606E0FFF799FD801B65
:10130000022801D903204DE7DBF800008007F4D460
:10131000207840074CD559483830016841F0805159
:101320000160006800F080500090DFF85CB1DBF8ED
:10133000000040F48070CBF80000FFF779FD06460E
:1013400006E0FFF775FD801B022801D9032029E77D
:10135000DBF80000C005F4D5DFF820B1207A0BF1EE
:10136000680B8BF80000A06888B1FFF761FD0646A6
:1013700008E0FFF75DFD811B41F28830814201D911
:1013800003200FE7DBF800008007F2D510E0FFF73D
:101390004FFD064608E0FFF74BFD811B41F2883008
:1013A000814201D90320FDE6DBF800008007F2D47A
:1013B000A069E8B3D8F80010C1F3810102295AD01E
:1013C000022805D0C9F860A0FFF732FD04464DE0C1
:1013D000C9F860A0FFF72CFD064606E0FFF728FDE0
:1013E000801B642801D90320DCE628688001F5D43D
:1013F000D4E90701084347F6C07292FAA2F2616A83
:10140000B2FA82F29140A26A4FF0FF3303EB52022C
:101410004FF4403393FAA3F3B3FA83F39A401143A2
:101420004FF0706292FAA2F20843B2FA82F200E040
:101430001FE0E16A9140084338600120C9F860006C
:10144000FFF7F6FC044606E0FFF7F2FC001B6428F9
:1014500001D90320A6E628688001F5D509E0FFF749
:10146000E7FC001B642801D903209BE62868800163
:10147000F5D4002096E6012094E6000008380240EA
:1014800000004742800E4742007000404FF0E021CC
:10149000042804D0086920F0040008617047086936
:1014A00040F0040008617047704710B5401EB0F16D
:1014B000807F01D3012010BD4FF0E02460610F2137
:1014C000601700F091FA0020A06107202061002041
:1014D00010BD10B5FFF7E8FF10BD7047704730B57D
:1014E00090F83C20012A20D0012380F83C300222D1
:1014F00080F83D200268546824F07004546002684B
:1015000054680D682C4354600268946824F0800489
:1015100094600268946849680C43946080F83D3098
:10152000002180F83C10002030BD022030BD10B5F5
:101530000446002C03D094F83D0010B107E00120D0
:1015400010BD002084F83C00204600F00DF8022079
:1015500084F83D00211D206800F0C6FA012084F8BF
:101560003D00002010BD000008B50068B0F1804FBC
:1015700012D10A48016841F001010160006800F0E1
:1015800001000090002211461C20FFF7DBFCBDE8A3
:1015900008401C20FFF7CABC08BD000040380240CC
:1015A00070B5044694F83C00012817D0012584F852
:1015B0003C50022084F83D002068826822F07702C7
:1015C00022F47F428260086850283AD00DDC20283F
:1015D0005FD005DCA0B3102864D155E0022070BDB7
:1015E00030285BD040285DD13FE0602833D07028A0
:1015F0000CD0B0F5805F03D0B0F5005F52D113E09E
:101600002068816821F0070181604BE0CB68D1E957
:101610000121206800F0CEFA2068816821F077016E
:1016200041F0770181603DE0CB68D1E9012120687C
:1016300000F0C0FA2068816841F48041816031E0A7
:101640001DE0CA684968206800F0C6FA5021206889
:1016500000F0BAFA26E0CA684968206800F0CDFABE
:101660006021206800F0B0FA1CE0CA684968206870
:1016700000F0B2FA4021206800F0A6FA12E0002142
:10168000206800F0A1FA0DE01021206800F09CFA1B
:1016900008E02021206800F097FA03E0302120685C
:1016A00000F092FA3C3465700020207070BD7047E5
:1016B00070B50446206801694FF00005C9438907E9
:1016C00016D4C168C943890712D4E91E01610120FB
:1016D000207720688069800703D02046FFF7E7FF66
:1016E00005E0204600F09BF8204600F099F82577A9
:1016F00020680169C943490718D4C168C94349072B
:1017000014D46FF004010161022020772068806901
:1017100010F4407F03D02046FFF7C9FF05E02046C4
:1017200000F07DF8204600F07BF8257720680169FD
:10173000C943090717D4C168C943090713D46FF017
:1017400008010161042020772068C069800703D068
:101750002046FFF7ACFF05E0204600F060F8204689
:1017600000F05EF8257720680169C943C90618D4DE
:10177000C168C943C90614D46FF010010161082083
:1017800020772068C06910F4407F03D02046FFF71F
:101790008EFF05E0204600F042F8204600F040F8B9
:1017A000257720680169C943C90708D1C168C943C1
:1017B000C90704D1891E0161204600F032F8206873
:1017C0000169C943090609D4C168C943090605D49A
:1017D0006FF0800101612046FFF77FFE20680169FC
:1017E000C943490609D4C168C943490605D46FF005
:1017F00040010161204600F015F820680169C943E5
:1018000089060BD4C168C943890607D46FF020014B
:1018100001612046BDE87040FFF760BE70BD7047B3
:10182000704770477047FEE700B587B000211A483F
:10183000026842F080020260026802F080020192B7
:10184000026842F004020260026802F0040201929F
:10185000026842F001020260026802F00102019295
:10186000026842F002020260006800F0020001908B
:101870000120029009480390049102A90848FFF74B
:10188000EFF9002211460620FFF75CFB0620FFF768
:101890004DFB07B000BD00003038024000002110B1
:1018A00000080240FEB52D4CC0222270A8236370B0
:1018B0000120A0700B21E170FF21251D29706970A6
:1018C000A9700027EF702E1D32707370B070F07029
:1018D00001F001FC2078E178627840EA0160A178AB
:1018E000090441EA02210843A4F10C0108602878A8
:1018F000E9786A7840EA0160A978090441EA02219E
:101900000843A4F1080108603078F178727840EA61
:101910000160B178090441EA02210843211F0860EF
:1019200010490F48CDE90071231F1A1F0290111FA3
:101930000D4801F02FFD0C4801F086FD0A4890F893
:101940002B00400704D5BDE8FE40074801F0C1BDAB
:10195000BDE8FE40044801F07DBD000014000020F9
:1019600091220008812300083401002010B586B0C0
:1019700017484FF08041016047F22F514160002429
:1019800084604FF47A71C16004618461FFF7CFFD18
:1019900018B149210FA000F043F94FF48050029094
:1019A00002A90B48FFF7FCFD18B14F2109A000F078
:1019B00037F920200090019469460548FFF78FFD14
:1019C000002803D0562103A000F02AF906B010BD6C
:1019D0004C3200202E2E2F5372632F74696D2E63AC
:1019E00000000000FEE770470907090E002806DA2C
:1019F00000F00F0000F1E02080F8141D704700F1A6
:101A0000E02080F8001470477047704710B5FFF76A
:101A100015FABDE81040FFF75CBD000030B591B08D
:101A200001240594069400250B9505A8FFF79EFB5D
:101A300018B1952113A000F0F3F80F200090019445
:101A400002954FF4A05003904FF480500490002171
:101A50006846FFF7A9FA18B1A3210AA000F0E0F840
:101A6000FFF748FB4FF47A71B0FBF1F0FFF71DFD73
:101A70000420FFF70BFD00221146501EFFF762FA0B
:101A800011B030BD2E2E2F5372632F6D61696E2EF3
:101A9000630000000D48016841F0010101600B4A3C
:101AA0000021083211600268094B1A400260031DD0
:101AB000084A1A60026822F48022026003480C304F
:101AC0000160054958060860704700000038024070
:101AD000FFFFF6FE1030002408ED00E00148FFF79C
:101AE000E7BD00004C3200202DE9F0410268264D90
:101AF000264E274FDFF89CC0274B4FF08048A84266
:101B000009D0404507D0B04205D0B84203D0604567
:101B100001D0984203D122F070044A682243A842BF
:101B20001BD0404519D0B04217D0B84215D06045FF
:101B300013D0984211D0194CA0420ED0184CA0429C
:101B40000BD0184CA04208D0174CA04205D0174C1F
:101B5000A04202D0164CA04203D122F44074CA68BD
:101B6000224322F080024C69144304608A68C262F6
:101B70000A688262A84201D0984201D109690163D2
:101B800001214161BDE8F0810000014000040040F6
:101B900000080040000C00400004014000400140EB
:101BA000004401400048014000180040001C004073
:101BB0000020004010B5846824F47F4442EA0322E8
:101BC0000A432243826010BD826822F070020A43F9
:101BD00042F007018160704710B5036A046A24F07F
:101BE00001040462846924F0F00444EA021423F03E
:101BF0000A020A438461026210BD10B5036A23F031
:101C0000100303628469036A24F4704444EA0232D4
:101C100023F0A00343EA01118261016210BDFEE7D7
:101C2000FEE702E008C8121F08C1002AFAD1704777
:101C30007047002001E001C1121F002AFBD170474C
:101C400010B504466068804722462068BDE8104011
:101C5000014901F0DBBE0000411C000882681268E7
:101C60000A6080680160704781680868002802D0B7
:101C700002680A60704700207047000070B5054692
:101C80000024094E04EB440006EBC000017D29B19D
:101C90008068A84202D1204600F084F8641CE4B2B7
:101CA0000A2CEFD370BD0000746300202DE9F74FBC
:101CB00005464FF00A09CA460A2300209B46002722
:101CC00084468046364900EB400401EBC402117D96
:101CD0000A2B00D149B1A1B14DB12E68D2F804E070
:101CE000764504D140B2BDE8FE8F43B209E0012938
:101CF00013D0022905D3518A414502D34FFA80FA05
:101D00008846401CC0B20A28DCD301984FF0FF314E
:101D100080071BD40A2B12D014E0214951F834104B
:101D200031B1548ABC42ECD34FFA80FB2746E8E736
:101D3000568A6645E5D34FFA80F9B446E1E7019843
:101D4000C00703D00A2B03DADCB215E00846CAE765
:101D5000BAF10A0F02DA0AF0FF040AE0B9F10A0F39
:101D600002DA09F0FF0404E0BBF10A0F15DA0BF008
:101D7000FF04204600F016F835B1094804EB440290
:101D800000EBC20029684160054804EB440200EB07
:101D9000C2000021418260B2A5E70846A3E7000027
:101DA0007463002070B5084D00EB4004002655F820
:101DB0003400002803D001F011FD45F8346005EB34
:101DC000C400067570BD0000746300202DE9FE4359
:101DD00007460D46002D11D07C684FF4807820888E
:101DE000404508D12079062805D16079042802D120
:101DF0006088082804D0384601F0F0FCBDE8FE8376
:101E0000D4F80E000290A0690190696819B1884267
:101E100003D1012602E0002600E000260EB10123D6
:101E200000E0022304F10802914602A9284600F0CE
:101E3000EDF9E08840451FD1F6B1022001F046F9E6
:101E4000E080D4F80E00A0616868C4F80E00A068B5
:101E5000C4F81200A089E082D5F82500A060B5F88A
:101E60002900A08140F60600009004F112034A46C2
:101E70003946284600F05EFA384601F0AFFCBDE76F
:101E8000FEB505460E4614462946206800F06EFB56
:101E900008B1354B3CE02068C0F303110E2922D075
:101EA000A9686B6800EA01020B409A4208D080B230
:101EB000A0F57E41A93903D0E86898B305F10C0478
:101EC0002A4B2B481A7802EB420100EBC1010F7D2F
:101ED000022F2BD3276849688F4227D131462846E5
:101EE00000F048F8FEBD01208DF8040000208DF8B8
:101EF00005005E208DF80600607800F07F008DF808
:101F00000700A0788DF80800E0788DF8090001AB93
:101F10004FF40060009005F125023146284600F09C
:101F200009FAFEBDFFE76FF00300FAE7002101EBBD
:101F3000410200EBC202177D022F0AD327685268C4
:101F4000974206D1CAB21A703146284600F012F8FC
:101F5000E7E7491C49B20A29E9DB3246214628460F
:101F600000F03EF8DDE7000020670008C400002014
:101F7000746300202DE9F84306460F46174802EB2C
:101F8000420100EBC10404F10C05207D022818D1A8
:101F9000618A4FF00308B1F58E7F07D9211D3046C5
:101FA00000F0EEF868B984F814800AE0B1F5877F94
:101FB00007D32A46211D304600F0E8F808B984F816
:101FC00014804FF4006000902B4606F1250239463C
:101FD000304600F0AFF9BDE8F883000074630020DC
:101FE0002DE9FC5F8246894617460AF125000190DB
:101FF0004FF0FF344FF0000B5146D9F8000000F0CD
:10200000B5FA98B9D9F80000C0F303110E290DD024
:10201000B9F1000F0AD048B1524601214846FFF7F6
:1020200045FE0646300004D5BDE8FC9F6FF00F006A
:10203000FAE72E4806EB460800EBC805287D28B9CC
:102040004FF0010B01202875C5F808A0BBF1000F67
:1020500000D12FB94946504600F092F8044697B196
:10206000287DDFF8889002280FD3214806704FF4AE
:102070000060009005F10C0339465046019A00F0CB
:1020800059F9044630E02046CEE701282CD1002142
:102090003C4605E0207B012801D0012102E02468B4
:1020A000002CF7D181B121890022022001F01FFA12
:1020B00005466DB13946284601F00AFB40B1284675
:1020C00001F08CFB002503E03D46284601F03CFC76
:1020D00045B159F8380008B101F080FB49F8385093
:1020E000002401E04FF0FF3420469DE77463002098
:1020F000C40000202DE9FF4F81B08B46DDE90F9A27
:10210000DDF838801E46002700221C21022001F045
:10211000EEF9054628002FD06C68119800F0D6FF24
:10212000E0803068A060B088A081D9F80000C4F8D1
:102130001200B9F80400E082D8F80000C4F80E00DC
:10214000DAF80000A0614FF48070208008206080E1
:10215000062020710420607140F6060000905A4667
:102160002946039B019800F0E5F8284601F036FB6C
:10217000384605B0BDE8F08F4FF0FF30F9E70000BA
:10218000014A00F003B80000206700087FB5064D43
:10219000031D0124CDE90035CDE902142133194690
:1021A000FFF7A8FF04B070BD2667000870B50024D3
:1021B000154D04EB440005EBC002117DF9B1508AC6
:1021C000401C80B25082B0F5967F03D2012905D120
:1021D000052803D32046FFF7E5FD10E0032904D0CE
:1021E000042905D0012906D009E00420107506E075
:1021F0000220107503E0111D9068FFF7C1FF641CF9
:10220000E4B20A2CD5D370BD74630020F8B505463E
:102210000C4616461F46002C34D0206888B3294649
:1022200000F0A4F968BB2078C0F303100E2829D071
:102230002A4639462046FFF739FD002820DB134A9D
:1022400000EB400102EBC100022303758560336897
:10225000C360B38803820023438252F8314074B1D3
:1022600042F831304FF400600090334605F125020A
:102270002146284600F05EF8204601F0AFFA002023
:10228000F8BDFFE76FF00F00FAE70000746300206D
:1022900070B504460E4660890E283DD96068858970
:1022A0000278D10715D0012A05D006222049FDF772
:1022B000E6FF50B10DE0417859B980785E2808D129
:1022C000607B40F01000607303E0607B40F008002A
:1022D00060736FF00D01082D03D0B5F5C16F1BD1F0
:1022E0000FE096F82B00000716D560890E2813DB47
:1022F000204601F0B9FA78B93146204600F016FAC6
:1023000013E096F82B00000706D560890E2803DB42
:10231000204601F0A9FA20B1204601F05FFA002022
:1023200070BD31462046FFF751FD002070BD000012
:10233000206700082DE9F04780460F4616461D46E7
:10234000089800F0C3FE81460E21384601F08CFA51
:1023500018B16FF00100BDE8F0877C68A4F80C901C
:1023600028682060A888A0803068C4F80600B0887B
:10237000608139464046D8F81820BDE8F04710473C
:1023800010B5732180F82C10742180F82D100449A9
:1023900041610449816100F04FFD002010BD000043
:1023A000811E00080530000870B50546284600F07B
:1023B000C7FD0446002C0AD02A69294620469047CA
:1023C000002804D02046BDE8704001F007BA70BD77
:1023D0000A46032100F090B82DE9FE4F04468846D6
:1023E000444FD7F808A09AF800000007850E142D76
:1023F0007ADB6089042877D36068017800296ED081
:1024000008296CD107F114097869C0F303110E296A
:1024100044D0396800F0AAF850BB2089082863D35B
:1024200005F10E0001B20E46204601F01DFA70B310
:1024300020890022284481B2022001F058F8064683
:10244000B6B1718905F10800814203D2304601F02E
:10245000C5F923E02A4651467068FDF7E0FE684260
:1024600001B2304601F000FA18B1304601F0B6F979
:1024700014E02146304601F02BF918B1304601F046
:10248000ADF90BE0204601F0A9F934460BE0FFE777
:10249000704201B2204601F0E7F920B12046BDE8C4
:1024A000FE4F01F09BB966682946204601F0DCF931
:1024B000A8B96068D9F80010C160396901610021CC
:1024C00031707180FF22027241810120CDE9010843
:1024D0000091FF2300224946204600F005FA2046DD
:1024E000BDE8FE4F01F07AB92046BDE8FE4F01F08D
:1024F00075B900008C3200202DE9FF47064688465A
:10250000914600222421012000F0F1FF0546280019
:1025100026D077686C6884F8008084F801904FF0CA
:102520000008A4F80480A4F8068068687168083080
:102530001C22FDF774FEF868039003A800F0F0FA7F
:1025400058B1A4F802800121CDE900810290FF2357
:1025500003AA0021284600F0C7F9284601F03EF9F9
:10256000BDE8FF870A460B21FFF7C6BF08B50090FC
:10257000421C07D0020005D091F82B20920703D40B
:10258000002008BD012008BD4A68824201D1002018
:1025900008BD896800EA01030A40934202D1014361
:1025A000491C01D0002008BD012008BD2DE9F74FCE
:1025B00088B004460998408C1438C11700EB51705C
:1025C000C0F3CF0005901426002760680790079895
:1025D000BD1F017801F00F01052903D028460BB07B
:1025E000BDE8F08FC08800F071FDC0F30C010391CD
:1025F000800401D52846F2E7208914381FFA80F8B4
:102600008CE00598B8EBC00F01D2404601E0059878
:10261000C00080B2049000221421022000F067FF65
:1026200083465FEA0B004FD01422DBF804000799C1
:10263000FDF7F5FDDBF804000690049D2BE06089B2
:10264000801B87B2BD4200D22F467FB300F096FABE
:1026500081465FEA09002DD060684B463044CDE9E1
:10266000000702223946042000F0DDFF8246BAF15D
:10267000000F23D0204601F067F9C9F814402A481A
:10268000C9F810005146584600F0FBFFE81B85B220
:102690000DB100262468002DD1D1F01986B2099819
:1026A000408C1438404512DB012111E0FFE7002681
:1026B0002468F0E7584601F091F805E0484600F03C
:1026C00060FA584601F08AF84FF0FF3087E70021A2
:1026D0000398C0F30C0009B940F4005000F0F6FC78
:1026E0000699C8800498143080B200F0EFFC069977
:1026F0004880069800214181099859460A9A436901
:102700009847584601F06AF80498A8EB00001FFAB1
:1027100080F805990398084480B20390B8F1000F3F
:102720007FF46FAF00205AE7212E00082DE9F04713
:1027300006460F46756804212878B1EB101F05D0B6
:10274000304601F04BF80020BDE8F08700F00F00A4
:102750004FF6FF7101EA8009688800F0B7FC044673
:102760003089A04203D92146304601F0C3F8708970
:10277000484505D33089A04202D3B9F1140F04D2E1
:10278000304601F02BF80020DEE7DFF854A128697D
:10279000CAF81400E968CAF81010C0F303100E2834
:1027A00011D04FF001083C4694F82B00C00714D01C
:1027B000616891B1DAF8140088421CD02146FFF715
:1027C000D5FEC0B909E097F82B00C00703D07868A0
:1027D00008B13C460FE000240DE0B8F1000F04D032
:1027E0004FF000083F48046800E02468BC4200D174
:1027F0002468002CD8D13946DAF81000FFF7B6FE6D
:1028000088BB9AF81000C0F303100E282DD05CB3DB
:10281000E88830F0C00005D0304600F0CFF806461A
:102820006EB37568CAF80040CAF80470CAF8085058
:1028300028780007800EAAF80C000FFA89F8C8F172
:10284000000001B2304601F00FF8687A012822D06A
:1028500006281BD0112814D02146DAF81400FFF7FF
:1028600085FEE8B12BE000E004E0304600F0B6FF62
:10287000002069E7304600F0B1FF002064E7002047
:1028800062E73946304603F067FE1BE039463046C2
:1028900001F008FC16E039463046FFF79DFD11E0D7
:1028A0009AF81400C0F303100E2808D041463046B1
:1028B00000F0DDFF756002213046FFF789FD3046EC
:1028C00000F08CFF0020CAF80000CAF80400CAF823
:1028D0000800AAF80C00CAF81000CAF8140033E780
:1028E0008C32002060000020FEB5DDE908670A9CFC
:1028F000002A04D00D0001D00D6805B9211DCDE9D5
:102900000067029400F002F8FEBD00002DE9F84FC8
:102910000546DDE90AABDDF83080894616461F46DC
:10292000002E2FD01421284600F09EFF18B16FF022
:102930000100BDE8F88F6C68277284F809B0306830
:1029400020614520207084F801A0288900F0BEFB9A
:1029500060804FF0000AA4F806A0164F388800F0F7
:10296000B5FBA0803888401C3880B9F1000F05D035
:10297000D9F80000E060A4F80AA007E00E4800685B
:10298000E060F8E76868006900906E46B8F82200D9
:1029900040B12989814205D9324641462846FFF790
:1029A00005FEC6E7D8F81430324629464046984717
:1029B000BFE70000C6000020286800082DE9F047A6
:1029C0008246DAF80450287800F00F00052878D104
:1029D000E88800F07BFBC0044FEA1048688800F0EC
:1029E00075FB297801F00F01494200EB81001FFAC5
:1029F00080F9504600F063FE0646484F3888304460
:102A00000A2809D93146284600F0B0F900287FD0BD
:102A1000388830440A287BD87C680CE06069E96813
:102A2000884207D1A0692969884203D1A089A98871
:102A3000884202D02468002CF0D12CB1E88800F044
:102A400045FBC00408D012E03146284600F02AF9C0
:102A5000044620005CD00AE0E08900F037FBC004A7
:102A600005D01422294604F10800FDF7D8FB388868
:102A700030443880A879800606D4A07F40F0010059
:102A8000A07708EB0900A0835146204600F07EF8AD
:102A9000D8B3A08B1430A0836068466835681422D0
:102AA00004F108013046FDF7BAFBA08B00F00EFBE5
:102AB00070800020F0807081D4F804806FF01309DA
:102AC0000AE025E06E684946284600F0CDFE29461A
:102AD000404600F0D6FD3568002DF3D179688C4270
:102AE00005D1002105E00868A04202D00146002976
:102AF000F9D1204600F0C4F8404600F0E0FD3988E6
:102B0000081A38804046BDE8F087FFE70020FAE762
:102B1000504600F063FE0020F5E70000C8000020EA
:102B200070B506461348006814E090F82B10CA07E9
:102B30000FD04A070DD543685BB1846832682340E3
:102B400002EA04059D4214D0890702D4C1688A4272
:102B50000FD000680028E8D10748006840B190F81D
:102B60002B10CA0704D0490702D54168002900D1BB
:102B7000002070BD6000002064000020052000F0EF
:102B8000FDBB0146052000F0C9BB00002DE9F04760
:102B900007460E4600240125D6F80480B8F8020046
:102BA00000F094FA98F8001001F00F01494200EB90
:102BB0008109B8F8060000F089FAC004010C7368B6
:102BC00000201860998001EB09001FFA80F8A3F833
:102BD00006807A681CE05068B0F804C061450CD2E9
:102BE0001A6044B1B4F806C061453AD38088804584
:102BF00037D826600EE07E600CE032D0C288914269
:102C00002FD31CB1E288624500D00025026804463B
:102C1000002AE0D142B934B12660E0889988884220
:102C200002D0002500E07E60B87FC00717D09DB1BC
:102C3000786810B14068808808B100250CE01968F8
:102C400008E04868D9888288914201D0002503E0D5
:102C5000034601680029F4D12846BDE8F08700202A
:102C6000FBE7304600F02BFD014604480288511A6C
:102C70000180304600F0B2FD0020EEE7C8000020E1
:102C800030B40B46064902684C68844201D14A6060
:102C900000E01A60014630BC042000F03FBB000099
:102CA000C800002070B506460D46042000F066FB03
:102CB000044654B92946304600F058F8A84203DBD0
:102CC000042000F05BFB04468CB120212046FDF778
:102CD000BFFA0320E077074841682160446014226E
:102CE000314604F10800FDF79AFA204670BD002035
:102CF00070BD0000C80000202DE9F041064688465E
:102D00000025746860688188002912D100687060AD
:102D1000142206F108016068FDF781FA01212046BE
:102D2000FFF720FC204600F0CAFC0546204600F0D4
:102D300055FD74680AE0606827460468384600F06C
:102D4000BEFC284485B2384600F048FD002CF2D184
:102D500041463046FFF794FF03490888401B08802E
:102D60002846BDE8F0810000C80000202DE9F047AA
:102D700005460F460026DFF878800020002100235A
:102D80000024D8F8042022E0D2F814C0D5F80C9022
:102D9000CC450BD1D2F818C0D5F81090CC4505D150
:102DA000B2F80CC0B5F80490CC4509D0641CE0B171
:102DB00092F81FC090F81F90CC4501D810460B46E2
:102DC000D2F800C0BCF1000F00D011466246002AC4
:102DD000DAD118B11946FFF78FFF0644BE4201DA77
:102DE000012CCADC3046BDE8F08710460B46E7E709
:102DF000C800002070B50025084844680BE0E07F5B
:102E000020B1401EE0772546246804E0204624686F
:102E10002946FFF771FF002CF1D170BDC8000020DA
:102E200010B504466069002801D000F0D7FC2046A8
:102E3000BDE81040FFF7A5BE3EB504460020029055
:102E40003C4D3B4929600121696029828DF80000D1
:102E500080218DF80110E1218DF802108DF803001A
:102E60008DF804008DF80500C5F814D0A861E8615C
:102E700028622846FDF76AFC28B994F82B0040F038
:102E8000040084F82B0004232B4A2C492948FDF721
:102E9000E0FB2A4A04238032A2F580712548FDF721
:102EA000A1FB06202234A07068690078E070686990
:102EB000407820716869807860716869C078A07115
:102EC00068690079E07168694079207240F2DC50ED
:102ED0002080607A40F00A0060721648FDF7D7FD46
:102EE00002AA11211348FDF791FD029840F0030258
:102EF000029211210F48FDF775FE02AA12210D481A
:102F0000FDF784FD029840F0200202921221094848
:102F1000FDF768FE02AA12210648FDF777FD029828
:102F200040F04002029212210248FDF75BFE3EBDD6
:102F30000080024004320020341A0020E401002006
:102F40002DE9F84F0020009000242D48FDF7BEFB2E
:102F500010B10020BDE8F88F2948818F89B2D0F8E0
:102F6000409021B10322042000F0C1FA00900098A3
:102F700058B32348D0F83080009D24E06F890026A4
:102F800040F2F45B12E06868A4F2F45209EB040129
:102F900030445242FDF743F9D8F80C80D8F8089035
:102FA000AAF2F457361B06F2F456002407EB040A83
:102FB000DA45E8D8686809EB040130443A46FDF781
:102FC0002EF93C442D68002DD8D10D4A106B0021FC
:102FD00005E0036843F000430360C068491C936B3D
:102FE0008B42F6D800219163106800F58050426949
:102FF000120602D58022426181600098AAE7000093
:10300000043200202DE9F05F0E462948C56AD5F844
:1030100008A04FF00009002435E02868002802DAF3
:103020006FF0070036E0B6F80A8000271BE07068F2
:10303000A4F2F452C1190AEB04005242FDF7EFF872
:10304000ED682868002802DA6FF0070022E0D5F862
:1030500008A0ABF2F4583F1B07F2F457A9EB0409A0
:1030600009F2F459002408EB040B40F2F4508345B4
:10307000DDD870684246C1190AEB0400FDF7CFF8AD
:103080004444C1443668002EC7D149460848FDF77C
:1030900020FD00200649096801F580514A69920621
:1030A00003D520224A6100224A60BDE8F09F00005B
:1030B00004320020010600F47F4241EA022100F4BC
:1030C0007F0241EA122141EA106070470106090CB3
:1030D00041EA1020704710B500F044F800F02AF9DA
:1030E00000F07EF903F036FA00F0DAFFBDE8104098
:1030F00000F0DABC88B00E2104A8FDF7A9F80C484E
:1031000090E80E00C0688DE80E000390FDF79EFE6B
:10311000FEF784FCFEF788FBFEF728FCFEF7C2FBF7
:1031200002F076FD0348FFF73FF900F03DFCF9E7B8
:10313000006700083401002000280FD008490A6801
:1031400090420BD34A68904208D20838002202719C
:103150008A68904200D2886000F0FCBB7047000093
:103160002C00002010B50A480A4A20F00300106025
:103170004FF4C863038000214180017100F5C861EC
:10318000516001240C710B804B80906010BD0000D9
:10319000A73200202C0000202DE9F04100280ED09D
:1031A000C01C4FF6FC7100EA01030C2B00D20C236B
:1031B0004FF4C867BB4204D90020BDE8F08100206D
:1031C000FBE7224E3468B268101B81B2C3F5C86CAD
:1031D00037E06018057995BB05886D1A083D9D425A
:1031E0002ED3058803F114086D1A083D4FF0010C29
:1031F000454515D30B4408339DB263194FF00008C1
:1032000083F80480B0F80080A3F80080598005801E
:1032100080F804C01988B94204D0A31CCD5201E043
:1032200080F804C0904202D007E011880A19117991
:1032300011B171688A42F8D1B2600830BDE7FFE78A
:10324000615A8C45C5D80020B7E700002C0000204B
:103250002DE9F047C91C4FF6FC7211400C2900D231
:103260000C214FF4C86C614502D90020BDE8F087FD
:10327000DFF8A490D9F80040A042F7D3D9F8042091
:103280009042F3D2A0F10802131B9BB21588EE1AEC
:10329000083EB7B2B94202D94FF00000E6E7E5D0E8
:1032A00025441D4E95F804A04FF000083668BAF189
:1032B000000F06F1020618D001F11405BD42D5D861
:1032C000194408318DB26119D9F80840A14201D2E0
:1032D000C9F8081081F8048014880C804B80158090
:1032E00009886145C2D08D53C0E72F881944083141
:1032F00089B2D9F808A0AA4502D16518C9F80850C2
:103300000C4484F804802780638011802288624501
:10331000ACD09153AAE700002C000020092806D267
:10332000002904D0024A52F82000FEF797BC7047EB
:103330009867000830B50024044D55F8240000F0CB
:1033400007F8641CA4B2092CF7D330BD98670008B5
:103350008268002111604168C91C21F0030100222C
:1033600007E083681B680B60836819600388194451
:10337000521C43889342F4DC70470000092801D3B3
:1033800000207047024951F82000FEF76DBC000094
:10339000986700082DE9F04106AD0446E0CD002015
:1033A0006060A060E06084F82B00032084F82000B7
:1033B000E5610A4D287884F82E00401C28702761AA
:1033C000204600F01BF82046B04710B10020BDE8B1
:1033D000F081686820606C602046F8E75C0000209F
:1033E0007047C90709D04168002906D090F82B1012
:1033F000090702D5011DFEF7C3BE70472DE9F04154
:1034000007460C4615461E46002C0FD0216869B1B0
:103410002946384600F056F83146384600F027F87D
:1034200021463846BDE8F04100F028B8214638462C
:1034300000F024F82946384600F044F83146384672
:10344000BDE8F04100F013B8014988607047000002
:103450005C00002090F82B10CA0707D021F0010172
:1034600080F82B10090701D5FEF708BC704700292A
:1034700002D00968C16070470021FBE738B50446F7
:103480000D46002D02D02868009002E00C4800682C
:1034900000900098616888420ED06946201D01F0B6
:1034A00019F96946201D03F011F935B128686060EB
:1034B00001212046FFF795FF38BD0020F7E7000007
:1034C00028680008002902D009688160704700213F
:1034D000FBE790F82B10CA0708D141F0010180F8F2
:1034E0002B10490702D50321FFF77BBF70472DE959
:1034F000F0470D46174605281BD2DFE800F003050C
:1035000007090B00362606E0222604E00E2602E01C
:10351000002600E000264FF001094FF00008F7B345
:10352000012F6BD0022F69D0032F04D00020BDE8FB
:10353000F0870020FBE70820FFF720FF044620006B
:1035400019D02773C4F80080A019133020F00300AD
:1035500060602581F61C26F00300C0F50170A842CA
:1035600000D9284680B26081A4F80E9026462D1A14
:103570004FF4017A1CE000F0B7F90020D7E70820EB
:10358000FFF7FCFEB8B1077380F80D80C0F800802B
:103590003060A9B20181514500D3514600E011E0ED
:1035A000418100F110024260A0F80E906D1A0646AB
:1035B000002DE4DC2FE000F097F9204600F00EF932
:1035C0000020B4E706F1130020F00301E81C20F00E
:1035D0000300084480B2FFF7DFFD044620000BD053
:1035E000A019133020F00300606025816581C4F8C4
:1035F000008084F80C800EE0002098E70720FFF799
:10360000BDFE044620000CD0C4F8048025816581ED
:10361000C4F800802773A4F80E9084F80D8020462B
:1036200085E7002083E770B50546DDE904461846C6
:10363000052D15D2DFE805F0030507090B00362339
:1036400006E0222304E00E2302E0002300E0002332
:10365000DB1C23F003035D18B54203D9002070BDC5
:10366000002070BD0025056014B12344436000E0D4
:103670004560022343730181418102730121C181AD
:1036800070BD10B500280FD000290DD004E00389CB
:103690000C892344038110460268002AF7D102896D
:1036A0000B891A440281016010BD10B50C462146F9
:1036B000FFF7E7FF2046BDE8104000F045B90021C4
:1036C00002E0491C89B200680028FAD10846704718
:1036D0002DE9F04705460C46002600276FF00F093C
:1036E000002D04D01CB128892189884202D2484685
:1036F000BDE8F0876FF0050A68896189801BC91BE6
:10370000884202DB1FFA81F801E01FFA80F8606846
:103710004246C11968683044FCF781FD06EB080099
:1037200086B207EB080087B26089B84201D800274B
:1037300024686889B04205D100262D6815B90CB1FE
:103740004846D5E73CB160892189884203D1206889
:1037500008B15046CCE73DB168892989884203D138
:10376000286808B15046C3E7002CC5D10020BFE748
:103770002DE9F047894616464FF00008002805D08D
:10378000B9F1000F05D00027044622E00020BDE873
:10379000F0870020FBE72BB16089984202D8181A05
:1037A00083B215E06089C01A85B2B54200D93546AA
:1037B00060682A46C11809EB0700FCF730FD08EBEA
:1037C00005001FFA80F8781987B2701B86B20023B3
:1037D00024680EB1002CDED14046D8E770B5002831
:1037E00001D0002407E0002070BDC189491E89B2C4
:1037F000C18121B100200028F7D1204670BD0568A5
:10380000017B427B920702D50169884707E00329C3
:1038100009D001290CD002290AD0FFF78DFC641CC5
:10382000E4B22846E7E701460820FFF777FDF6E710
:1038300001460720FFF772FDF1E7000070B5084868
:10384000002505700748046807E0206F20B1206F4D
:1038500002F014F9256770BDE468002CF5D170BD45
:103860006800002084000020002200F003B801223C
:10387000AFF3008030B5002908D038B108DA4B42E8
:103880009DB24389AB4204D2012030BD002030BD3F
:103890008DB2037B44683BB1032B05D0022B0CD0C7
:1038A000012B0AD0012030BD621A426000F11003E2
:1038B0009A420FD24460012030BD002905DA4389C5
:1038C000AB4202D3621A426004E000290ADD4AB129
:1038D000621A426042890A4442810289114401818C
:1038E000002030BD012030BD014901200870704723
:1038F0006800002070B502898A4224D98A1A0D46D0
:10390000044605E0281A85B22089104420812468E5
:103910006089A842F6D3207B68B96089A8420AD0A2
:10392000607B800707D4A088001B284481B2204612
:10393000FFF78EFC044665812581206808B1FFF7FA
:103940004DFF0020206070BD002802D0C189491CB5
:10395000C181704730B5134C018822681144931C13
:1039600088420DD00D795DB96568A94208D0A56877
:103970008D4200D1A0600D8805800988851ACD523E
:103980004188114481420BD00D79002D08D1A568E2
:10399000854200D1A16004880C800088891AC15238
:1039A00030BD00002C0000202DE9F047144F38688E
:1039B000002822D000F028F87968441ADFF8448003
:1039C00098F8000008B1FFF739FF0025396891B178
:1039D0004868A0420FD801257A6802447A60241A08
:1039E000086838608E68D1F80C900620FFF796FCC6
:1039F0000EB14846B047002DE2D1BDE8F087000087
:103A0000B000002068000020FDF712BA2DE9F04157
:103A100005460F4690460620FFF7B0FC04462000FE
:103A200013D0FFF7F1FF1F490B68002B0FD04A6836
:103A3000A0EB02064FF000002060A760C4F80C80E5
:103A400005EB0600606006D10C60BDE8F0814FF028
:103A500000064860EEE75868A84204D9401B586049
:103A600023600C60F1E7184614E04E68964210D9C6
:103A7000026822B14A686368D21A4A6005E0616848
:103A8000A94202D959682944616001682160046033
:103A9000DBE70846616842688A1A626001680029AB
:103AA000E6D0E2E7B000002070B50124074D0849D8
:103AB00005EBC40255F83400FFF7A8FF641C032C83
:103AC000F5D3FFF7A1FF0349486070BD10680008F7
:103AD000411C0008B00000202DE9FC5F0446207D59
:103AE0000A283DD000250027D4F84C90D4F824A013
:103AF000D4F88C60D4F810B0DFF8AC8078B30D4601
:103B0000E78A214608F1180001F088F8012088F8BA
:103B10000000E06E08B101F0B1FFA06E08B101F045
:103B2000ADFF206F08B101F0A9FF45B1208B231D27
:103B3000CDE9007022465146484601F03AFF214641
:103B40000120FFF7EBFB002E2CD002B05846B44604
:103B5000BDE8F04F6FF00C015DF804EB60470AE040
:103B6000114821461C3001F059F82146BDE8FC5FA0
:103B70000120FFF7D3BBE08A0028CAD0D8F8100094
:103B8000A0420AD1C068C8F8100008E0C168A1428C
:103B900002D1E168C16002E008460028F6D10020A9
:103BA000E060B6E7BDE8FC9F6C0000200121FFF754
:103BB00093BF002803D0027D012A00D181617047A4
:103BC00010B50846FFF7F2FF6FF00C0010BD0000C3
:103BD00070B505460120FFF7D1FB0446ECB900F0B3
:103BE00093FC0120FFF7CAFB0446B4B9092000F09A
:103BF0006DFC0120FFF7C2FB044674B9082000F0F9
:103C000065FC0120FFF7BAFB044634B9284600F0F2
:103C100039FC0120FFF7B2FB044654B3982120463B
:103C2000FCF716FB143465704FF4E660A4F84C0002
:103C30004FF40060E082A082FF2004F80A0C4FF4E9
:103C4000E670E0830620A0856085C01FA083012068
:103C5000A08600F0A7FD2064A0632063606406488E
:103C6000C168E160807860720448E0660448E067FB
:103C7000143C204670BD00006C0000205358000822
:103C800000DD6D00002800D0016170472DE9F04192
:103C900007460C460420002C00D11E4C6FF0050393
:103CA0002FB124B1397D21B11846BDE8F081184605
:103CB000FBE71AB10021DFF860C01CE000F046FD10
:103CC0000246100019D1801EEFE75CF821301B6816
:103CD0000EE0DD8A95420AD133B11E6826B11CB1CF
:103CE00025680DB1AE4202D16FF00700DDE7DB6859
:103CF000002BEED1491C8142E7DB14B1206800B1F2
:103D00003860FA8205480169F960076102F09EF99E
:103D10000020CAE728680008006800086C0000203E
:103D2000017D012903D0817E41F0100181760121BE
:103D3000AFF300802DE9FC4704460026207D554F57
:103D40004FF00108002941D0042801D007283DD1B7
:103D5000616F19B9218DB1F5006F37D0208BE18AE1
:103D6000CDE90010231D2246616AE06C01F021FEBE
:103D7000204600F032FFB869A04209D1C068B8619E
:103D800008E0C168A14202D1E168C16002E00846D2
:103D90000028F6D1E66087F80080207D042806D050
:103DA0003D480068A0420AD102F0AEF90BE00A20BB
:103DB0002075F869E060FC6102F048F903E02146F3
:103DC0000120FFF7ABFA0020BDE8FC874FF00509A2
:103DD000082856D2DFE800F0041D2C3A4355554C14
:103DE0000025E08A78B13869A04209D1C0683861FD
:103DF00008E0C168A14202D1E168C16002E0084662
:103E00000028F6D1E66021460120FFF787FA00245A
:103E100039E00025204600F091FB1E482146143071
:103E200000F0FCFE21460220FFF778FA00242AE089
:103E3000002518482146183000F0F0FE87F8008071
:103E400021460120FFF76AFA00241CE0204601F019
:103E500055FE0546280016D184F8149013E020463C
:103E600001F04CFE054628000DD184F814900AE0BC
:103E7000204601F043FE0546280004D109202075A4
:103E800001E0002500241CB115B9204600F0D0FC4B
:103E9000284699E76C000020AC0000202DE9F0478F
:103EA0000746DDF820800E4691469A465FEAC870C4
:103EB00001D0042500E000250320FFF75FFA041E6F
:103EC00014D084F80A804FF00008C4F800806660BF
:103ED0003089401B208114213046FFF7C5FC50B1CA
:103EE000204601F0BCFD0020BDE8F0873046FFF71A
:103EF00075FC0020F8E760684068E060F88AFFF72A
:103F0000E5F8E1680880388BFFF7E0F8E168488061
:103F10005046FFF7CFF8E1684860052000EB9500B8
:103F200049EA003080B2FFF7D1F8E1688881E068A3
:103F3000A0F812802046D7E710B504460846FEF7E1
:103F4000EFFD50B1B0F9220028B1283880B2844288
:103F500000D220460446204610BD204610BDF8B5CC
:103F600004460D460026B4F86200771E102801D3DF
:103F7000E80706D0A80700D50126F00707D00421DE
:103F800006E0A07E40F08000A0763846F8BD002113
:103F900000221046FFF7ABFA58B1009601462A46B8
:103FA0002046A36DFFF77AFF021E08D0A06E60B115
:103FB0000EE0A07E40F08000A0763846F8BDA07EDE
:103FC00040F08000A0763846F8BDA26604E00846BE
:103FD00001680029FBD102600020A4F8640005F00C
:103FE000020005F00101084302D0A06D401CA0654D
:103FF000E80703D0A07E40F02000A0765068FFF7CD
:104000005EFB34F8621F084420800020F8BD0028C1
:1040100001D0C0F88C10704770B5144EB078401CB9
:10402000B070B4691FE0617FB07881421AD06077C8
:10403000A07EC10709D040F00200A076204600F023
:10404000F7FBA07E20F00300A076E568606F38B132
:1040500000203070204601F02BF830780028E0D1A5
:104060002C4600E0E468002CDDD170BD6C0000201F
:1040700010B50A4C20462269C088411C89B2002A2A
:1040800002D0A388984204D2E2681432E180105C26
:1040900010BDC01AE180C0B2105C10BD8C000020C1
:1040A000704700002DE9FC5F0546DB4E6868F06054
:1040B0006889142873D3DFF86483D8F80010D8F81F
:1040C0001400FEF753FA002869D198F81400C0F3E1
:1040D00003100E2863D0F0688089FEF7F7FF000B0D
:1040E00080001428E6D329898142E3D3A0F114018A
:1040F00089B27180002737616A89824205D3B18015
:1041000041422846FFF7B0FB1BE06FF01301284641
:10411000FFF7AAFB6889B0807188091A8CB2404207
:1041200001B22846FFF7A0FB28684189A142C1D30C
:1041300041683161614209B2FFF796FB2889001B93
:104140002881F0680088FEF7C1FF0146F068018011
:104150004088FEF7BBFF0146F06841804068FEF7EB
:10416000A9FF0146F068416071618068FEF7A2FF17
:104170000146F0688160B161C089FEF7A7FF014682
:10418000F068C1818089FEF7A1FF00F03F0986F841
:10419000009029895FEA897002D0012001E035E1B1
:1041A0000020084470810020DFF874C2DCF8003081
:1041B0001C46D8F81020F168D8F814A01CE0B4F818
:1041C00018B0B1F800E0F34514D1B4F816B0B1F866
:1041D00002E0F3450ED1D4F804B093450AD1D4F8E7
:1041E00000B0D34506D148B1E268C260E360CCF8C4
:1041F000004003E02046E468002CE0D1F4BB89488D
:104200000468D8E9040C16E0228B0B889A4211D17D
:10421000E28A4B889A420DD1626882420AD12268B2
:10422000624507D1204601F02BFF2846BDE8FC5F20
:10423000FFF7D4BAE468002CE6D10023DFF8E8A148
:10424000DAF8000080460BE0C28AB1F802B05A45A5
:1042500004D10268624505D020B11AB10346C06896
:104260000028F1D150B12BB1C168D960C0F80C80E1
:10427000CAF8000000F072F9284600E003E0BDE84B
:10428000FC5FFFF7ABBA002C6FD0DFF8A081C8F855
:1042900000702889A8F80800C8F80450C8F80C1065
:1042A000F761777037815FEA097003D5687B40F06A
:1042B00001006873606F40B1204600F0F9FE0D30D8
:1042C0003CD0606F08B17089C0BB3462204600F0FA
:1042D000D1FC0D3076D0707800070FD5D4F88C2043
:1042E0001AB16FF00D012069904721464C4800F04B
:1042F00095FC21460120FFF711F863E00020328988
:104300003AB1E36F13B12146206998470D3059D077
:1043100037817078C00612D5A07EC00606D4D4F8C6
:104320008C201AB16FF00E012069904721463C485D
:1043300000F074FC21460120FEF7F0FF42E0F06936
:1043400000B3A17EC90605D5FFF748FA2046FFF75E
:104350002DFC37E0D4F8805045B1D4F810C00246A7
:10436000002321466046A84706E037E000230246C6
:104370002146184601F06DFA10F10D0F22D008B158
:10438000F06960677078800618D5606F20B1417B56
:1043900041F02001417311E0208DB0F5006F01D094
:1043A000401C2085D4F880502DB100231A462146A8
:1043B0002069A84700E000200D3003D03762204676
:1043C00000F036FA3762F761D8F80400002803D00D
:1043D000FFF704FAC8F80470BDE8FC9F8889FEF76F
:1043E00075FE40070DD4F0680C4B01884088CDE97C
:1043F000000171897069103301441A1DB06901F020
:10440000D8FA2846BDE8FC5FFFF7E8B92846BDE8C2
:10441000FC5FFFF7E3B900008C0000208C32002025
:1044200084000020880000208000002064630020B9
:104430003EB50446E06C401EFEF73CFE03460022FB
:104440001146204600F0DCFA0546A5B1201DFEF716
:1044500067FB98B106210022CDE900210290A37AE2
:10446000221D21462846FEF73FFA04462846FFF75C
:10447000B5F920463EBD4FF0FF303EBD6FF003045E
:10448000F4E70000F0B47F2801D97F2300E0034661
:10449000002500240C4880690B49CE680AE0427D63
:1044A0009A4206D8016A711AA94202D30D460446FF
:1044B0001346C0680028F2D1002C03D02046F0BC7F
:1044C000FFF774BBF0BC70476C00002030B40446AA
:1044D000002300200B498A69CD6809E0117DA142C3
:1044E00005D1116A691A994201D30B461046D26868
:1044F000002AF3D1002803D030BC0021FFF7ECBA2A
:1045000030BC70476C00002030B4002300200A4902
:10451000C969094AD46806E00A6AA21A9A4201D314
:1045200013460846C9680029F6D1002802D030BCDD
:10453000FFF73CBB30BC70476C00002070B50646EE
:104540000124054D314655F82400006801F0B7F903
:10455000641C042CF6D370BD006800087CB50546C9
:10456000354E307841070ED4C1060DD5F068334B77
:1045700001884088CDE90001718970691A1D0144E4
:10458000B06901F016FA7CBD8007FCD5687DFFF7A5
:104590001FFB044620003DD02848103841692160A7
:1045A00000696060E88AE082F06800882083032068
:1045B000207570690146401C6062E062491E2165F9
:1045C00028692061A567287A00F00C0020721C4839
:1045D0000168E160046001F039FD1A4901200870AA
:1045E000204600F097FAF0683234C0896085A085D3
:1045F000208334F83209211DFFF79EFC60861221CA
:104600002046FFF7ACFC90B12046BDE87C4000217D
:10461000FFF762BA002DB6D0AB69002BB3D0286982
:1046200002B04FF0FF32BDE870400021184720462D
:10463000BDE87C4000F0FCB88C0000209C320020DB
:10464000840000206C00002070B50446207D002806
:1046500001D0002070BD0220FEF790FE0546280024
:1046600018D020692861E08AE88201202875607DE1
:104670006875207A2872A07AA872607A68722068B9
:104680002860E08A98B111490869A0420BD1C0683E
:1046900008610AE0002070BDC168A14202D1E16852
:1046A000C16002E008460028F6D10020E060214603
:1046B0000120FEF733FE0648A86104481430016863
:1046C000E960056001F0C2FC284670BD6C00002066
:1046D000C13B000870B504460D46002C1ED0206872
:1046E00000281BD00E4E2046B16900F01BF8204672
:1046F000316900F017F8002D10D0286800280DD07F
:1047000006F11400026807E0D06811682368994236
:1047100001D1296811600246002AF5D170BD000060
:104720006C00002070B50546084609E001682A685B
:10473000914204D1C468FFF739FA204600E0C0680E
:104740000028F3D170BD4020FFF742BAF0B5002435
:10475000124E134D4FF6FF77A888411CA980B8422E
:1047600002D14FF44040A8800021AA8856F82100C9
:1047700000680AE0C38A934206D1641CA4B2B4F56F
:10478000804FE9D30020F0BDC0680028F2D1491C59
:10479000C9B20429EAD3A888F0BD00000068000867
:1047A0006C0000200249D1E9020210448860704781
:1047B0006C00002070B505460C46E8688089FEF75D
:1047C00085FCC00704D0204601F058F900242BE0F6
:1047D000164E10E08089FEF779FCC00707D0012053
:1047E000FEF774FC0146E868828911438181204606
:1047F000246801F034F944B1E068228973694168A2
:1048000011442A891A44511AE4D56CB12889716976
:104810004218E0684068121A002A05DD401A81B289
:1048200029816868FFF766F82C6070BD8C00002055
:104830002DE9F05F044671480068A04202D10020D3
:10484000BDE8F09FB4F85C80B4F84800804500D320
:104850008046A56EA07E80070FD54DB1E868406800
:10486000FEF728FC616C401A29890844404504D9A8
:104870002046BDE8F05F01F00AB9E76E0FB903E02A
:10488000074638680028FBD1201DFEF749F981460C
:104890005FEA09006FF0030103D024B1206810B172
:1048A00006E00846CCE709F1040020B1006820606A
:1048B0004FF0000A8CE00846C2E7E8688089FEF7FE
:1048C00005FCE06EA8B1A17E11F0440F11D1A06EDD
:1048D00028B102686AB90089628E904209D2B4F8A0
:1048E000600030B1B4F86200102802D211F0A00FBD
:1048F0007AD0207D022807D01020FEF7E7FB014682
:10490000E8688289114381814A462146284600F0A1
:10491000ADF820B1A17E41F08001A17690E7286832
:10492000A066207D022803D0A07E20F00300A076A0
:10493000E8684068FEF7BEFB0646E8688089FEF737
:10494000C5FB800701D0012000E000202989304408
:104950000844E16C091A00D5E064E8688089FEF734
:10496000B5FB800701D0012000E000202989C84262
:104970002AD0C5F800A0E06E68B1E8684068FEF78C
:1049800099FB0646F8684068FEF794FB301A18D584
:1049900004F16C0603E0E5662F4618E036683068DF
:1049A00058B1C0684068FEF785FB8346E8684068F8
:1049B000FEF780FBBBEB0000F0D430682860356068
:1049C00005E03D602F4602E0284601F048F8A56E5C
:1049D00055B1E8684068FEF76DFB616C401A2989A3
:1049E000084440457FF669AFA06E08B9A4F864A0FA
:1049F000A07E20F08000A076002021E7AC000020FF
:104A00002DE9F04105460F469846B818143081B29A
:104A100000220120FEF76BFD0646300023D07468AB
:104A2000E88AFEF753FB2080288BFEF74FFB60805F
:104A3000C4F80480686AFEF73DFBA060052000EB27
:104A40009700102141EA003080B2FEF73FFBA081C1
:104A5000688DFEF73BFBE081002020826082698D3B
:104A6000686A0844E8623046BDE8F081FEB5054654
:104A70000C4617466868C089012801D00020FEBD99
:104A8000606AFEF717FBE9688860608DFEF71EFB21
:104A9000E968C881618D606A0844E062EE68143696
:104AA000A87AC00709D0211D4FF4E670FFF744FA39
:104AB00040F00170FEF7FEFA3060B4F930000026D5
:104AC000002800DA2686606B38B9114800686063F8
:104AD000E8684068FEF7EEFAA0636968A8898A88EA
:104AE000801A4A89121A4A8169680A89101A08814B
:104AF0006968E8684860E8680682607A06218DE89F
:104B00008300A37A221D21466868FDF7EDFEFEBDF5
:104B1000780000202DE9F04105461A4C60880028F5
:104B200018D00020E0804FF4E6760FE0FFF7A0FAFF
:104B300000280FD0012809D002280DD0FFF798FADD
:104B4000022807D3E1880844801EE080E08861885D
:104B50008842EBD3BDE8F081FFF78AFA0428F9D147
:104B6000E0886188801C8842F4D8FFF781FA070248
:104B7000FFF77EFA3843B04200D800B93046688665
:104B8000E4E700008C0000202DE9F0411E46DDE93D
:104B90000737069D0C462146944211D29B0707D445
:104BA000AB7E5B060CD41FB1AB6E0BB9EB6E3BB1A9
:104BB00004F2CF1121F00301914200D80A4691B2CC
:104BC0000022FEF794FC30B14189091B3180048139
:104BD0004481BDE8F0810020FBE770B50446207DEC
:104BE00000281AD00A2818D0012816D0606F002596
:104BF00010B1FEF7F3FD6567206F00F03FFF2567FA
:104C00004FF0FF302086A06E00F038FFE06E00F01D
:104C100035FFA566E566A4F8645070BD70B5024620
:104C20000C461068A04209D1C068106008E0C16855
:104C3000A14202D1E168C16002E008460028F6D135
:104C40000025E5602046FFF7C8FF207D0A280AD02E
:104C5000012808D0A07EC10705D040F00200A07650
:104C60002046FFF7E5FD2575E58270BDC0F8881088
:104C7000027770472DE9FE4F044600200021029183
:104C8000DFF814B49BF800104A072CD5217D0229C7
:104C900006D0616ADBF81420914208D1012011E0AE
:104CA000E16CDBF8182091420CD101200AE0531A84
:104CB00008D4238D1944511A002903DCA17E41F048
:104CC0000201A17668B19BF8010040F008008BF862
:104CD0000100A07E20F00100A0766FF00D00BDE87D
:104CE000FE8F0020FBE788070AD5207D022807D029
:104CF000032805D0A07E40F00200A0760020EEE759
:104D0000A07EC00602D4E548006820624FF0000A89
:104D100084F896A02046FFF7FDFEE14A207D02F1CF
:104D20001003801E012704211432DFF87883DE4E41
:104D3000DE4D4FF00A0908285DD2DFE800F0047F5D
:104D4000F0FEEDF0ECEB9BF80000C5065FD58507A3
:104D50005DD5666CDBF81850761CAE4257D1DBF897
:104D600014000246401C6062E0626564DBF80C00DF
:104D7000C089A4F85C00A4F85E00521E226521756B
:104D8000608E211DFFF7D8F86086B4F85C10A4F897
:104D90004A1041F21C11B1EB400F01D2420000E079
:104DA0000A46B2EB800F01D9810003E0B1EB400F5E
:104DB00000D2410024F8481F608B401E6083606A67
:104DC000483CC8B10168E16600F049FEE06EB8B148
:104DD000A4F830A084F842A0D4F8843023B1002293
:104DE000214620699847029002980D300CD0A07E91
:104DF00040F00200A0764CE1A06E0168A166E3E7F6
:104E00004FF0FF302086E7E76FF00C0067E7C00641
:104E1000F1D5DBF80C0001884088CDE90001BBF832
:104E20000A10DBF814000144DBF8180000F0C1FDA3
:104E3000A4F830A0204600F0A5FD2AE19BF8000070
:104E4000C5065BD5656CDBF81800451B012D47D402
:104E5000E56C451B002D43DC2175A06F30B18369E3
:104E60003BB1002221462069984704E06FF005001D
:104E700001E06FF00F0038B10D3002D02046FEF790
:104E800095FE6FF00C002AE7204600F04BF9B4F8CD
:104E90005C00A4F84A00BBF8080010B1401EABF853
:104EA0000800608E41F21C11B1EB400F01D24200AC
:104EB00000E00A46B2EB800F01D9810003E0B1EBBC
:104EC000400F00D24100A4F848109BF80100800672
:104ED00005D5A07E40F00200A07607202075D8E01E
:104EE000DBF80C100C884988CDE90014BBF80A40A7
:104EF000DBF81410214400F05CFDCAE0800708D5FF
:104F0000606ADBF81410401E884202D1204600F08F
:104F1000E0FCBEE0A9E07EE056E00EE0FFE72046C0
:104F200000F000F99BF80100800605D5A07E40F056
:104F30000200A07607202075ABE0204600F0F2F8D2
:104F40009BF80100800631D59BF80000C00606D50D
:104F5000E06CDBF81810884201D1A06E30B1A07E61
:104F600040F00200A0760820207592E0A07E40F07C
:104F70000200A0762046FFF730FE2868A04209D143
:104F8000C068286008E0C168A14202D1E168C16040
:104F900002E008460028F6D188F8007084F81490E2
:104FA0003068E060346001F051F872E09BF8000076
:104FB000C0066ED5E06CDBF81810884269D1A06E8F
:104FC00040BB0620207564E0204600F0ABF89BF85B
:104FD000010080065DD5A07E40F00200A07620464C
:104FE000FFF7FBFD2868A04209D1C068286008E0EF
:104FF000C168A14202D1E168C16002E00846002810
:10500000F6D188F8007084F814903068E06034605D
:1050100001F01CF83DE0204600F084F89BF8000009
:10502000C00636D5E06CDBF81810884231D1A06E8E
:1050300078BB2046FFF7D1FD2868A04209D1C0689F
:10504000286008E0C168A14202D1E168C16002E0C5
:1050500008460028F6D188F8007084F8149030686B
:10506000E060346000F0F2FF13E0204600F05AF8F0
:105070009BF80000C0060CD5E06CDBF818108842E5
:1050800007D1A06E28B99BF8010040F010008BF802
:105090000100002023E600008C00002078000020A2
:1050A0008C3200206C00002088000020840000204A
:1050B0002DE9F0410446656F6F7B00206067D4F8EE
:1050C0008060002E05D000232A4621462069B04783
:1050D00005E000232A462146184600F0BAFB6FF08F
:1050E0000C0630B10D301AD065676FF00400BDE8D2
:1050F000F081B9060FD5218DB1F5006F01D0491CA3
:105100002185D4F8805025B100231A462146206914
:10511000A8470D3001D00020E9E73046E7E73046E8
:10512000E5E700002DE9F04704460025FC4F2E4638
:105130003878C0067DD5B4F85C90616D09EB010844
:105140003846D4F850C07A69C3688069BCEB020A5B
:1051500009D4944502D1B1EB000C04D4814213D19F
:10516000D989494510D9D989A4F85C10B4F85E30C2
:105170008B4201D2A4F85E102265606559B194F8A3
:10518000951009B184F89560626C811A002938DCA9
:10519000798951B130E094F895100029F4D184F860
:1051A0009460012184F89510EEE7B4F85C30616DED
:1051B0001944414520D1B4F9301000291CDB82424A
:1051C0001AD1012594F84300411CC9B2814201D98A
:1051D00084F8431094F84300032809D9B4F8481020
:1051E000608E084480B2884206D9A4F8480003E0E3
:1051F00002D1204600F095FB002D01D184F84360D8
:105200008AE001296DD4E16C411A002969DCA17E94
:105210004A0706D521F00401A176B4F84A10A4F893
:10522000481084F84260E18FB4F93C2001EBE201C0
:1052300000E0B3E0A4F8401084F843606064207D8F
:1052400004282CD3B4F84800B4F84A10884207D296
:10525000618E014489B2814221D9A4F848101EE030
:10526000618E494391FBF0F1014489B2884216D224
:10527000A4F8481013E02868E0666868FEF71FFA93
:105280006868FEF71CFAB4F86210081AA4F8620005
:105290002889398908443881284600F0E0FBE06E0F
:1052A000B0B1C0684068FDF705FF0546E06EC06814
:1052B0008089FDF70BFF800701D0012000E000206E
:1052C0002844E56E29890844B969401A0028D2DDCE
:1052D000E06E10B12686E6761EE04FF0FF302086A5
:1052E000F9E7204600F0D3FB16E02868A06608B96D
:1052F000A4F864606868FEF7E2F96868FEF7DFF911
:1053000034F8621F081A20802889398908443881B6
:10531000284600F0A4FB623CA06EC8B1C06840689B
:10532000FDF7C8FE0546A06EC0688089FDF7CEFE79
:10533000800701D0012000E000202844A56E2989C3
:105340000144B869411A03D4E16C401A0028CCDD4D
:10535000B4F8600039890844A4F86000606BE8B1D3
:10536000A16BBA69891A19D56E490988081AB4F966
:105370003C10A0EBE10000B2014409B2A187002873
:1053800001DA404200B2B4F93E20A0EBA200104482
:10539000E08700EBE100A4F8400066637B89002B06
:1053A0007ED0207D07287BD2606A7A69DFF8788119
:1053B000811A01292AD41344C31A5B1C002B25DC53
:1053C000D8F8040042898A420FDA0289521A93B24D
:1053D00003E0891A03814681006842898A42F8DB2A
:1053E000494209B2FEF740FA03E0494209B2FEF72A
:1053F0003BFABA8A606AB8F80810821A891AA8F8C3
:1054000008107861D8F80C10486005E0101A03D530
:10541000A07E40F00200A076606A79690A1A7DD405
:10542000228D02448A1A521C002A77DC884276D1E7
:10543000D8F80C008089FDF749FE800701D00120D3
:1054400000E00020B8F80810084480B27881218D6F
:1054500081423DD2D8F80C008089FDF737FEC007A5
:1054600011D0D8F80C008089FDF730FEC0F344005D
:105470004000FDF72BFE0146D8F80C00828922F48B
:105480007C5211438181208DA8F80800D8F80C00C7
:105490008089FDF71BFE800706D5B8F8080000E0FC
:1054A000C0E1401EA8F80800B8F80810D8F80400B9
:1054B000FEF720FAD8F80C008089FDF707FE800778
:1054C00001D0012000E00020B8F8081008447881DD
:1054D000206F58B3D8F80C008089FDF7F7FDC0079E
:1054E00004D107E00168216700F0B9FA206F0028B5
:1054F000F8D165E0256F2CE08089FDF7E7FDC00756
:1055000023D0D8F80C008089FDF7E0FD80071CD47B
:105510000120FDF7DBFDD8F80C1008E07DE1C2E0CA
:105520008C000020780000206463002048E08A8915
:1055300010438881FDF7CAFD800701D0012000E0FB
:105540000020B8F808100844788128462D6800F03B
:1055500086FA45B1E8682A897B89416811447A69ED
:105560001A44511AC8D555B3798978694218E9683F
:105570004968521A002A22DD081AA8F80800D8F84B
:105580000C008089FDF7A2FD800704D5B8F808005B
:10559000401EA8F80800B8F80810D8F80400FEF774
:1055A000A9F9D8F80C008089FDF790FD800701D09B
:1055B000012000E00020B8F8081008447881256731
:1055C0007889796901446162218D081A2085204615
:1055D00000F0A2FDD8F80400018911B1F861C8F803
:1055E0000460D8F80C008089FDF770FDC00745D035
:1055F000787840F02000787040E079618089FDF78C
:1056000065FD800701D0012000E000202A89616A41
:10561000114408446062E8688089FDF757FDE86836
:105620008089FDF753FD800701D0012000E00020B4
:1056300029890844218D081A2085204600F06CFD38
:105640006968088930B1F86910B1FEF71AF800E00E
:10565000F9616E60E8688089FDF738FDC00708D001
:10566000787840F020007870207D042801D1072050
:10567000207528682067284600F0F1F9256F25B1CC
:10568000E868626A41689142B7D0A07EC10706D03F
:1056900020F0010040F00200A076BDE8F08740F065
:1056A0000100A076F9E7204600F0F1F9256F0DB171
:1056B0000026AEE0634800F0BFF92067EDE7E86838
:1056C00041687869814212D1B8F808002989884276
:1056D000E3D95C4800F0B0F90028DED00EB13060AC
:1056E00000E020672946BDE8F047FFF763B81EB326
:1056F000F2685268821A012A2BD4421A521C002ADC
:1057000027DC504800F098F904462000C5D0F06826
:105710003189406842187969521A002A05DD081A51
:1057200081B231817068FEF7E5F834602946204681
:10573000BDE8F047FFF73EB8421A0AD5414800F0ED
:105740007BF90028A9D020672946BDE8F047FFF77C
:1057500031B82A68F2BB401A002858DDE868808911
:10576000FDF7B4FCC00798D1364800F065F9286011
:10577000002892D0E8682989406842187969521A4D
:10578000002A05DD081A81B229816868FEF7B2F89F
:10579000218D606A7A69084479891144081A0028C1
:1057A0008CDD2868C0688089FDF790FCC00713D0A5
:1057B0002868C0688089FDF789FCC0F34400400078
:1057C000FDF784FC01462868C068828922F47C5277
:1057D000114300E01BE08181A08C218D0844B98A2F
:1057E000401A81B22868018128684068FEF782F873
:1057F0002868C0688089FDF769FC800701D0012016
:1058000000E00020296809890844788145E72E4690
:105810001546002D7FF453AF3FE72046BDE8F04723
:1058200000F035B9606A79690A1A05D4228D1044EE
:10583000081A401C0028E9DDA07E40F00200A07696
:105840002BE7000064630020002801D0C0F880101E
:10585000704710B508461446002C06D0218900F088
:105860000BF82046FDF7BAFF00E00BB1002010BD99
:10587000BDE81040FEF754BA10B50446208D084428
:1058800080B220854FF40061884201D9218506E06D
:1058900028B9207D072801D0092800D1218520467C
:1058A00000F03AFCB0F5007F08DBA07E40F002007B
:1058B000A0762046BDE81040FEF7BABF10BD00221A
:1058C00004E0836F8B4200D18267C0680028F8D162
:1058D00070472DE9F0410546EE6E002E1FD030686E
:1058E000E86605F1680400E02468206850B1C068EB
:1058F0004068FDF7DFFB0746F0684068FDF7DAFB1C
:10590000381AF1D42068306026603168002009B967
:10591000A5F864003435A97B491CA9732860BDE84B
:10592000F08110B50446E06E00282AD0A07E400722
:1059300027D42046FFF7CDFFB4F84800B4F85C1038
:10594000884203D94808A4F84A0002E04008A4F8B5
:105950004A00B4F84A10608EB1EB400F05D24FF602
:10596000FF7101EA4001A4F84A101A3400EB40002C
:10597000218E0844E085207840F00400207000204B
:10598000E08210BDC16E002912D000E011460A6805
:10599000002AFBD1826E0A60C16E81660021C16659
:1059A00090F84220521C80F842204163FEF740BF2D
:1059B00070472DE9FE4F8146DDE90CAB884617465E
:1059C0001E46002214210120FDF791FD0546280006
:1059D00030D06C685046FDF779FB20805846FDF7C3
:1059E00075FB60804846FDF765FB60604046FDF74B
:1059F00061FBA06045F21400FDF768FBA081082060
:105A0000E0814FF00008A4F81080A4F8128030461E
:105A1000FDF786F848B10621CDE900810290FF2309
:105A2000324639462846FCF75FFF2846BDE8FE4F60
:105A3000FDF7D4BEBDE8FE8F70B504460320FDF728
:105A40009DFC05464DB1201D22680BC82C1D0BC4C2
:105A50002A60FDF779FF284670BD002070BD10B5A3
:105A60000446002C09D0606808B1FDF7B7FE214656
:105A7000BDE810400320FDF751BC10BD10B503E098
:105A80000468FFF7ECFF20460028F9D110BDFEB5F1
:105A900004460025E06CFDF70DFB03460022294675
:105AA0002046FEF7ADFF0646C6B1201DFDF738F8CB
:105AB000D8B1617A0622CDE900120290A37A221DA4
:105AC00021463046FCF710FF05463046FDF786FEBE
:105AD00075B1A07E40F00300A0760DE0A07E40F0FE
