:020000040800F2
:1000000058A9002099010008331D0008831B00082F
:10001000311D00081B050008F71F00080000000044
:10002000000000000000000000000000E51D0008C6
:100030002906000800000000551D0008E71D000803
:10004000B3010008B3010008B3010008B3010008C0
:10005000B3010008B3010008A1080008B3010008BB
:10006000B3010008B3010008B3010008B3010008A0
:10007000B3010008B3010008B3010008B301000890
:10008000B3010008B3010008B3010008B301000880
:10009000B3010008B3010008B3010008B301000870
:1000A000B3010008B3010008B3010008B301000860
:1000B000B51E0008B3010008B3010008B301000831
:1000C000B3010008B3010008B3010008B301000840
:1000D000B3010008B3010008B3010008B301000830
:1000E000B3010008B3010008B3010008B301000820
:1000F000B3010008B3010008B3010008B301000810
:10010000B3010008B3010008B3010008B3010008FF
:10011000B3010008B3010008B3010008B3010008EF
:10012000B3010008B3010008B3010008B3010008DF
:10013000B3010008B3010008B3010008B3010008CF
:10014000B3010008B3010008B3010008B3010008BF
:10015000B3010008B3010008B3010008B3010008AF
:10016000B3010008B3010008B3010008B30100089F
:10017000B3010008B3010008B3010008000000004B
:10018000B3010008DFF80CD000F054F90048004734
:100190001D53000858A9002006488047064800471C
:1001A000FEE7FEE7FEE7FEE7FEE7FEE7FEE7FEE727
:1001B000FEE7FEE76D1E0008850100082DE9F05FEF
:1001C0000546002092469B468846064681464024C6
:1001D0001BE0284641464746224600F0E2F85346D7
:1001E0005A46C01A914110D311461846224600F0D3
:1001F000C9F82D1A67EB01084F462246012000215D
:1002000000F0C0F817EB00094E41201EA4F10104D4
:10021000DFDC484631462A464346BDE8F09F0000F1
:100220000649074A0868504343F2390210440860FF
:10023000400870470149086070470000180100201D
:100240006D4EC64140EA01039B0703D009E008C98F
:10025000121F08C0042AFAD203E011F8013B00F88B
:10026000013B521EF9D27047D2B201E000F8012BD7
:10027000491EFBD270470022F6E710B513460A4626
:1002800004461946FFF7F0FF204610BD30B505467D
:100290002A460B4612F8010B13F8014B08B1A04295
:1002A000F8D01CB1002802D06D1CF1E7284630BD03
:1002B00010B5044604E00B7800F8013B03B1491C7B
:1002C000521EF8D2204610BDCAB2401E10F8011FBF
:1002D0008A4202D00029F9D100207047421C10F850
:1002E000011B0029FBD1801A704710B5002200E0E5
:1002F000521C835C8C5CA34201D1002BF8D1D8B294
:10030000E1B2401A10BD30B504460020034600E0BB
:100310005B1C934203D2E05CCD5C401BF8D030BD47
:1003200030B505460020034600E05B1C934205D231
:10033000EC5CC85C201A01D1002CF6D130BD70B540
:10034000064601F08BFE046805460A22002130466D
:1003500000F037F82C6070BD30B50B460146002028
:100360002022012409E021FA02F59D4205D303FA77
:1003700002F5491B04FA02F52844151EA2F10102F8
:10038000F1DC30BD202A04DB203A00FA02F1002023
:1003900070479140C2F1200320FA03F319439040C3
:1003A0007047202A04DB203A21FA02F0002170472E
:1003B00021FA02F3D040C2F12002914008431946CD
:1003C00070472DE9F04791460F46804604460026C7
:1003D00014F8015B2DB100F03FF80068405DC007E4
:1003E000F6D12B2D02D02D2D18D0641E4A46394649
:1003F000204600F035F827B13968A14201D1C7F88D
:10040000008071054FF002040BD54042002803DD47
:1004100001F024FE0460A007BDE8F08746F4806682
:10042000E4E70028F8DA01F019FE04606FF00040FC
:10043000F2E70000064C074D06E0E06840F00103DB
:1004400094E8070098471034AC42F6D3FFF79EFEBD
:1004500040A4000860A40008004870473CA30008BE
:100460002DE9F05F82460078002715468B460AF199
:100470000104B946302801D09DB113E014F8010BF6
:100480000127782803D0582801D045B10AE00DB1E2
:10049000102D07D10027102514F8010B02E00825C4
:1004A00000E00A250026B0460EE005FB080005FB2B
:1004B00006F1012701EB10461FFA80F8B6F5803FE0
:1004C00000D3B94614F8010B294600F018F80028AB
:1004D000EBDABBF1000F05D00FB1641E00E054460B
:1004E000CBF80040B9F1000F06D001F0B7FD0221B2
:1004F0000160C81EBDE8F09F48EA0640FAE73A28C6
:1005000000D2303820F02002412A01D3A2F1370076
:10051000884201D34FF0FF307047FEE700B587B047
:1005200000210E48026842F040020260026802F0B8
:1005300040020192026842F002020260006800F08C
:10054000020001904FF48070029005910491039194
:1005500002A9034800F02AFD07B000BD3038024070
:10056000001802400549044806C9C0E903120121E8
:100570000C3003F04BBF000030000020988C0008C6
:1005800070B5054600F002FE074C2168401AB0F530
:10059000FA7F07D300F0FAFD20602846BDE87040DE
:1005A00000F004B870BD00000C000020FEB5044649
:1005B0001A4D28780026012808D002280FD00528D7
:1005C00003D1204602F085FD2E70FEBD6660A66058
:1005D000E66002202870204602F042FDFEBD204663
:1005E00002F089FD10B103202870FEBD206A807AD8
:1005F0000428FAD904202870204602F06AFD084831
:1006000002906FF07F400190064800906B4601AA6F
:1006100002A9204605F032F8FEBD000008000020C7
:10062000C0A8010BC0A801017047006800F5805008
:10063000816941F0020181617047006800F58050D6
:10064000816941F4005181617047000008B5074994
:100650004FF4FA520968B1FBF2F14143009100BF37
:100660000098411E0091FAD208BD00004800002009
:1006700038B50446206800F58050816941F4801146
:100680008161206800F58050806900900120FFF7AB
:10069000DDFF2068009900F58050816138BD0000C1
:1006A0001079537940EA032307480844036411781A
:1006B000D37841EA0361937852781B0443EA02221B
:1006C0001143416470470000008002402DE9F04171
:1006D000AEB00446002904D04FF40060E060C000D2
:1006E000A0600025119512951395149515951695F2
:1006F000E06900287DD017954FF400701890199587
:100700001A951B951C951D9540271E971F952095A2
:100710002195229523952495259526958026279623
:10072000289529952A952B952C952D95206802685A
:1007300045490A40D4E902131943179B194341F470
:100740000071114301602068D0F80080012000F0A2
:10075000D5F82068C0F800802068476020684768A6
:10076000012000F0CBF82068476020688560206891
:10077000C560206881694FF64172114041F08001E7
:10078000816120688769012000F0B8F820688761DE
:100790002068C5612068C769012000F0AFF82068B3
:1007A000C7610195B004029003950111049105956C
:1007B000069507950895042109910A9040120B901F
:1007C00080010C9040120D900E960F9510952068A8
:1007D00000F5805081691D4A11401D4A0A4382611B
:1007E000206800F580508569012000F087F82068B6
:1007F00000E016E000F5805085612068154900F59D
:1008000080500160206800F580500568012000F0EC
:1008100075F8206800F580500560A069012804D0B3
:100820000AE04FF48060179066E7206800F580507A
:10083000C169094A1143C16162692EB02046BDE811
:10084000F0410021FFF72CBF0F8120FF233FDEF88E
:10085000040020028020C1024000010038B5044697
:100860002068016841F00401016020680068009080
:100870000120FFF7EBFE21680098086038BD38B50D
:1008800004462068016841F00801016020680068A2
:1008900000900120FFF7DAFE21680098086038BD5B
:1008A00008B513480168C90703D0016841F0010188
:1008B0000160002000906A4612210E4800F040FAC4
:1008C000009880040FD56A4610210A4800F038FAD3
:1008D0000098C107084803D042F20101018002E0FC
:1008E0004FF400510180012000F054FB08BD0000CE
:1008F000143C0140603200201C00002031B500F0A3
:1009000045FC0546009C601C00D0641C00F03EFCC9
:10091000401BA042FAD338BDF0B5002490F84550F2
:10092000012D09D0012780F84570022580F8445038
:10093000816244F2F45C19E00220F0BD01EB441541
:100940004FF000462E60C5F804C0C4EBC41606EB99
:10095000460602EB8606AE6086695E1EB44203D28E
:1009600005F12006EE6000E0E960641C9C42E5D3DE
:10097000026802F58052D16080F84470002180F84E
:1009800045100020F0BD2DE9F043002590F84540CA
:10099000012C0BD04FF0010C80F845C0022480F8E8
:1009A0004440C1624FF480185F1E1CE00220BDE885
:1009B000F08301EB4514C4F80080C5EBC51606EBC7
:1009C000460602EB8606A660C66926B9266846F486
:1009D0004009C4F80090BD4203D204F12006E6604D
:1009E00000E0E1606D1C9D42E3D3026802F5805295
:1009F000116180F844C0002180F845100020D6E73E
:100A000010B590F84510012913D0012380F8453026
:100A1000022180F84410816A0A680024002A29DB38
:100A20000A68D20518D5826B521C8263012A02D053
:100A300002E0022010BD01632830C1600A68C2F3E1
:100A40000D42121F4261826892688261C96801602A
:100A500003774477002010BD0A68920505D501632D
:100A600044638363C968816204E0826B521C8263C1
:100A7000C968816200F8443F4470012010BD000045
:100A80002DE9FC4704464FF00008CDF80480C1462C
:100A9000002C03D094F8440018B107E00120BDE811
:100AA000FC8784F84580204600F0FCF87548016812
:100AB00041F480410160006800F480400090724879
:100AC000016821F4000101600168226A114301609C
:100AD000206800F58050016841F00101016000F0DC
:100AE00055FB05464FF4FA760AE000F04FFB401B39
:100AF000B04205D9032084F8440084F84580CEE74D
:100B0000206800F580500068C007EED120680069B9
:100B100020F01C0500F09CFC5C495D4A01449142B8
:100B200002D245F008050EE05A495B4A0144914261
:100B300002D245F00C0506E058490844584988425D
:100B400001D345F00405206805614FF400420021FF
:100B5000204600F0E1F9012538B101212046FFF7D8
:100B6000B5FD84F84450012099E7FF20FFF7C6FE49
:100B70006068E0B300F00AFB074641F2883601AA3C
:100B80000121204600F0DCF800F000FBC01BB04261
:100B900009D901212046FFF799FD84F8445084F8D3
:100BA000458003207BE701984007E8D54FF4805249
:100BB0000021204600F0B0F938B101212046FFF7AE
:100BC00085FD84F84450012069E700F0DFFA07460C
:100BD00001AA0121204600F0B3F800F0D7FAC01BAB
:100BE000B0420BD901212046FFF770FD00E028E05C
:100BF00084F8445084F84580032050E7019880062B
:100C0000E6D501AA1021204600F09AF838B101215A
:100C10002046FFF75BFD84F8445001203FE7019830
:100C2000410703D54FF40061E16001E0C4F80C8096
:100C3000800702D5C4F808801BE04FF48040A06014
:100C400017E0E0680021C0F3CF02A068C0F34F00B6
:100C50000243204600F060F938B101212046FFF739
:100C600035FD84F84450012019E740F6FF70FFF786
:100C700045FE49462046FFF729FD84F844500020F0
:100C80000DE70000443802400438014000D3CEFE96
:100C9000C0E1E40040F1E9FD40787D0100796CFCA1
:100CA000005A6202F0B587B00068204988423BD103
:100CB00000241F48016841F000710160016801F0E3
:100CC00000710191016841F080610160016801F0EB
:100CD00080610191016841F000610160006800F0ED
:100CE000006001903E2002900225039504940326A3
:100CF00005960B27069702A90E4800F057F98F209A
:100D00000290039504940596069702A90A4800F0FC
:100D10004DF943F603500290039504940596069707
:100D200002A9064800F042F907B0F0BD0080024079
:100D30003038024000080240000002400004024037
:100D40002DE9F0470446914694F8440082281DD0CE
:100D5000822084F844002068026902F01C03228A81
:100D60004FF6FF7505EAC2221A434FF4F86303EA0F
:100D70008111114321F0020141F00105056100F0EC
:100D800005FA064601274FF480380FE00220BDE83F
:100D9000F08700F0FBF9801B404505D304F8447F41
:100DA000002060700320F2E720680569E807F0D1B1
:100DB0002068406980B2C9F8000084F844700020BF
:100DC000E5E770B5044694F84500012819D00125DF
:100DD00084F84550022084F844002046FFF74FFD78
:100DE0002046FFF73BFD2046FFF742FC2046FFF779
:100DF00024FC2046FFF719FC04F8445F00206070D3
:100E000070BD022070BDF0B5002390F84520012A86
:100E100011D0012780F84570022280F84420002676
:100E200059B1C46A2268002A0CDA122100F8441F62
:100E300046700120F0BD0220F0BD00F8447F4670EE
:100E40000120F0BD40F2F455A9420AD9B1FBF5F2F8
:100E5000B1FBF5FC05FB1C1CBCF1000F02D0521CC1
:100E600000E00122012A44D1226842F0405222606F
:100E7000C26AC1F30C015160C16A0A6842F00042C3
:100E80000A60C16AC968C16235E0C46AD4F800C0AA
:100E90002CF0405CC4F800C033B9C46AD4F800C078
:100EA0004CF0805CC4F800C0C46A6560541EA34264
:100EB00014D1C46AD4F800C04CF0005CC4F800C07F
:100EC000C2F10104C4EBC41404EB440401EB840438
:100ED000D0F82CC0C4F30C04CCF80440C46AD4F895
:100EE00000C04CF0004CC4F800C0C46AE468C4629E
:100EF0005B1C9342C9D3016801F580514A695207CE
:100F000005D504224A61016801F580514E6000F860
:100F1000447F46700020F0BD2DE9F041044694F86E
:100F20004400422820D0422084F84400206803690D
:100F300003F01C03258A4FF6FF7606EAC5251D43FC
:100F40004FF4F86303EA8111294341F0020141F0B3
:100F5000010591B241612068056100F017F906466C
:100F600001274FF480380FE00220BDE8F08100F047
:100F70000DF9801B404505D304F8447F00206070C4
:100F80000320F2E720680569E807F0D184F844708F
:100F9000EBE7704710B504490A68024202D00860C6
:100FA000FFF7F7FF10BD0000143C01402DE9F84F9A
:100FB0000022DFF89891DFF8948109F108094FF0D9
:100FC000010E4FF00F0C09F1040A0EFA02F60B683D
:100FD0003340B34271D14C68022C01D0122C11D194
:100FE000D40800EB84073D6A5407E40E0CFA04FBB6
:100FF00025EA0B05D1F810B00BFA04FB4BEA050B00
:10100000C7F820B0076854000325A540AF4391F806
:1010100004B00BF0030B0BFA04FB4BEA070BC0F810
:1010200000B04F68012F05D0022F03D0112F01D03F
:10103000122F11D18768AF43D1F80CB00BFA04FB23
:101040004BEA070BC0F808B04768B7430E79C6F300
:10105000001696403E434660C668AE438D68A54084
:101060003543C5604C68E4006AD5394C256845F4C1
:1010700080452560246804F480440094354C22F0B7
:1010800003052E19D6F808789407250F0CFA05F4F5
:10109000A743314CA04201D1002429E02F4CA042AB
:1010A00001D1012424E02E4CA04201D102241FE0F2
:1010B0002C4CA04202D103241AE041E02A4CA04269
:1010C00001D1042414E0294CA04201D105240FE0F1
:1010D000274CA04201D106240AE0264CA04201D1AF
:1010E000072405E0244CA04201D1082400E0092493
:1010F000AC403C43C6F80848D8F800409C434D68D3
:10110000ED0300D51C43C8F80040104D2D1D2C6880
:101110009C434E68B60300D51C432C60D9F80040B0
:101120009C434D68ED0200D51C43C9F80040DAF835
:1011300000409C434D68AD0200D51C43CAF80040F6
:10114000521C102AFFF441AFBDE8F88F003C01406B
:1011500044380240003001400000024000040240D8
:1011600000080240000C024000100240001402403F
:1011700000180240001C02400020024000690842A2
:1011800001D001207047002070470000014800682E
:10119000704700004400002002480168491C0160BB
:1011A000704700004400002010B50B48016841F46E
:1011B00000710160016841F480610160016841F4DF
:1011C00080710160032000F08BF8002000F006F829
:1011D00000F018F8002010BD003C024010B5044695
:1011E00007484FF47A720068B0FBF2F000F00BFB96
:1011F00000222146501E00F053F8002010BD0000D0
:101200004800002008B51F48016841F48041016092
:10121000006800F4804000901A48001F016841F007
:1012200080510160006800F080500090032000F0C1
:1012300057F8002211466FF00B0000F031F8002241
:1012400011466FF00A0000F02BF8002211466FF0F3
:10125000090000F025F800221146501F00F020F888
:1012600000221146101F00F01BF800221146901EAC
:1012700000F016F80022BDE808401146501E00F0AC
:101280000FB800004438024000F01F0201219140D5
:101290004009800000F1E020C0F800117047000014
:1012A000F0B40D460D4B1B68C3F30223C3F10704D2
:1012B000042C00D90424191D072901D2002300E0C1
:1012C000DB1E012606FA04F1491E294099409E4082
:1012D000761E16403143F0BC00F02CBD0CED00E052
:1012E00000F00701054A10684FF6FF03184040EA76
:1012F0000120034908431060704700000CED00E036
:101300000000FA052DE9F04704460D46002C14D0E4
:10131000DFF82C91D9F8000005F0FF0800F00F006D
:10132000A8420CD289F80080D9F8000000F00F0024
:10133000A84204D00120BDE8F0870120FBE7206827
:10134000404E810712D5400703D5306840F4E05085
:1013500030602078000703D5306840F4604030608A
:101360003068A16820F0F000084330602078C007A2
:101370002ED0344960680839012806D0022809D0E7
:10138000096889070BD40120D5E70968890306D4C9
:101390000120D0E70968890101D40120CBE7316839
:1013A00021F0030101433160FFF7F0FE074641F2EF
:1013B000883A06E0FFF7EAFEC01B504501D903203A
:1013C000B9E73068616800F00C00B0EB810FF1D133
:1013D000D9F8000000F00F00A84209D989F8008070
:1013E000D9F8000000F00F00A84201D00120A2E7C8
:1013F0002078400705D53068E16820F4E0500843C4
:1014000030602078000706D53068216920F46040FC
:1014100040EAC100306000F021F83168F02292FA11
:10142000A2F201F0F001B2FA82F2D140064A515C18
:10143000C840064908600020FFF7D0FE00207AE788
:10144000003C024008380240A08C00084800002000
:1014500001480068704700004800002010B5174898
:10146000006810F00C01164816D0164B042912D053
:10147000082911D1114C241F216801F03F02216875
:1014800049020AD52068C0F38810A0FB030100239D
:10149000FEF794FE09E0184610BD21680023C1F351
:1014A0008811A1FB0001FEF789FE2168C1F301410B
:1014B000491C4900B0FBF1F010BD000008380240A3
:1014C0000024F40040787D012DE9F84F0446002CFB
:1014D00015D0DFF804832078A8F10407C007A7F12E
:1014E00004053CD0D8F80000C0F3810001280CD0DE
:1014F000D8F80000C0F38100022803D00CE00120DE
:10150000BDE8F88F3868400206D52868800326D5E4
:10151000606820BB0120F3E7AF492079891F08707C
:10152000606870B1FFF732FE064606E0FFF72EFE58
:10153000801B642801D90320E2E728688003F5D5E1
:101540000DE0FFF723FE064606E0FFF71FFE801BB7
:10155000642801D90320D3E728688003F5D42078D4
:10156000DFF8789280074FF0000A52D5D8F80000D3
:101570004FF0F80B10F00C0F08D0D8F80000C0F3B3
:101580008100022816D13868400213D428688007E9
:1015900004D5E068012801D00120B1E728689BFA52
:1015A000ABF22169B2FA82F220F0F80091400843D0
:1015B00028602EE0E068E0B10120C9F80000FFF7E4
:1015C000E5FD064606E0FFF7E1FD801B022801D994
:1015D000032095E728688007F5D528689BFAABF2C9
:1015E0002169B2FA82F220F0F800914008432860A5
:1015F0000FE0C9F800A0FFF7C9FD064606E0FFF7B7
:10160000C5FD801B022801D9032079E728688007DF
:10161000F5D42078000729D5DFF8BCB1704861699E
:101620000BF16C0B89B101210160FFF7AFFD06469C
:1016300006E0FFF7ABFD801B022801D903205FE71E
:10164000DBF800008007F4D510E0C0F800A0FFF739
:101650009DFD064606E0FFF799FD801B022801D993
:1016600003204DE7DBF800008007F4D42078400722
:101670004CD559483830016841F08051016000680C
:1016800000F080500090DFF85CB1DBF8000040F41F
:101690008070CBF80000FFF779FD064606E0FFF703
:1016A00075FD801B022801D9032029E7DBF8000023
:1016B000C005F4D5DFF820B1207A0BF1680B8BF868
:1016C0000000A06888B1FFF761FD064608E0FFF75B
:1016D0005DFD811B41F28830814201D903200FE773
:1016E000DBF800008007F2D510E0FFF74FFD06465B
:1016F00008E0FFF74BFD811B41F28830814201D9A0
:101700000320FDE6DBF800008007F2D4A069E8B30F
:10171000D8F80010C1F3810102295AD0022805D05F
:10172000C9F860A0FFF732FD04464DE0C9F860A09B
:10173000FFF72CFD064606E0FFF728FD801B642816
:1017400001D90320DCE628688001F5D4D4E907013B
:10175000084347F6C07292FAA2F2616AB2FA82F2C4
:101760009140A26A4FF0FF3303EB52024FF4403333
:1017700093FAA3F3B3FA83F39A4011434FF07062E4
:1017800092FAA2F20843B2FA82F200E01FE0E16AA4
:101790009140084338600120C9F86000FFF7F6FC6B
:1017A000044606E0FFF7F2FC001B642801D9032081
:1017B000A6E628688001F5D509E0FFF7E7FC001BE5
:1017C000642801D903209BE628688001F5D4002015
:1017D00096E6012094E600000838024000004742E7
:1017E000800E4742007000404FF0E021042804D0F2
:1017F000086920F0040008617047086940F004009F
:1018000008617047704710B5401EB0F1807F01D36A
:10181000012010BD4FF0E02460610F21601700F03F
:1018200089FA0020A06107202061002010BD10B5BA
:10183000FFF7E8FF10BD7047704730B590F83C20C7
:10184000012A20D0012380F83C30022280F83D207C
:101850000268546824F070045460026854680D688B
:101860002C4354600268946824F0800494600268F9
:10187000946849680C43946080F83D30002180F8FA
:101880003C10002030BD022030BD10B50446002CB5
:1018900003D094F83D0010B107E0012010BD0020F6
:1018A00084F83C00204600F00DF8022084F83D004A
:1018B000211D206800F004FB012084F83D00002079
:1018C00010BD000008B50068B0F1804F12D10A4881
:1018D000016841F001010160006800F00100009022
:1018E000002211461C20FFF7DBFCBDE808401C204D
:1018F000FFF7CABC08BD00004038024070B504467E
:1019000094F83C00012817D0012584F83C500220AF
:1019100084F83D002068826822F0770222F47F423A
:101920008260086850283AD00DDC20285FD005DCA2
:10193000A0B3102864D155E0022070BD30285BD0E0
:1019400040285DD13FE0602833D070280CD0B0F53E
:10195000805F03D0B0F5005F52D113E0206881684A
:1019600021F0070181604BE0CB68D1E901212068BB
:1019700000F00CFB2068816821F0770141F07701CD
:1019800081603DE0CB68D1E90121206800F0FEFADA
:101990002068816841F48041816031E01DE0CA68BF
:1019A0004968206800F004FB5021206800F0F8FA34
:1019B00026E0CA684968206800F00BFB60212068B7
:1019C00000F0EEFA1CE0CA684968206800F0F0FAFE
:1019D0004021206800F0E4FA12E00021206800F0C5
:1019E000DFFA0DE01021206800F0DAFA08E020218B
:1019F000206800F0D5FA03E03021206800F0D0FA2A
:101A00003C3465700020207070BD704770B504468E
:101A1000206801694FF00005C943890716D4C168E1
:101A2000C943890712D4E91E01610120207720688B
:101A30008069800703D02046FFF7E7FF05E02046D6
:101A400000F09BF8204600F099F82577206801699E
:101A5000C943490718D4C168C943490714D46FF072
:101A600004010161022020772068806910F4407F22
:101A700003D02046FFF7C9FF05E0204600F07DF8BF
:101A8000204600F07BF8257720680169C9430907E3
:101A900017D4C168C943090713D46FF00801016165
:101AA000042020772068C069800703D02046FFF714
:101AB000ACFF05E0204600F060F8204600F05EF83C
:101AC000257720680169C943C90618D4C168C9438C
:101AD000C90614D46FF01001016108202077206836
:101AE000C06910F4407F03D02046FFF78EFF05E069
:101AF000204600F042F8204600F040F825772068A4
:101B00000169C943C90708D1C168C943C90704D1DC
:101B1000891E0161204600F032F820680169C9433E
:101B2000090609D4C168C943090605D46FF08001CC
:101B300001612046FFF77FFE20680169C94349061D
:101B400009D4C168C943490605D46FF04001016159
:101B5000204600F015F820680169C94389060BD4B6
:101B6000C168C943890607D46FF02001016120468E
:101B7000BDE87040FFF760BE70BD704770477047AA
:101B80007047FEE72DE9F0410D4616461F46002836
:101B900012D10024DFF828800CE056F8240009A1B7
:101BA000FEF7A3FB28B957F82400FEF7C8FBA8F8F6
:101BB0000000641CAC42F0D304A0BDE8F08100003A
:101BC0003000002056617231000000002F73656EF6
:101BD000642E68746D6C000000B587B000211A484F
:101BE000026842F080020260026802F08002019204
:101BF000026842F004020260026802F004020192EC
:101C0000026842F001020260026802F001020192E1
:101C1000026842F002020260006800F002000190D7
:101C20000120029009480390049102A90848FFF797
:101C3000BDF9002211460620FFF732FB0620FFF710
:101C400023FB07B000BD0000303802400000311017
:101C5000000802400EB503F016FB1349002008608F
:101C6000091D0860091D08601049114ACDE90121CC
:101C70000D4B009008331A1F111F0E4803F0C8FCCB
:101C80000C4803F021FD0B4890F83500400703D5C0
:101C9000084803F05EFD02E0064803F01BFDBDE8C6
:101CA0000E40044801F0DCB9100000203138000873
:101CB000213900088401002010B586B017484FF084
:101CC0008041016047F22F514160002484604FF44D
:101CD0007A71C16004618461FFF7D7FD18B14921B1
:101CE0000FA000F0A5F94FF48050029002A90B4814
:101CF000FFF704FE18B14F2109A000F099F9202048
:101D00000090019469460548FFF797FD002803D02D
:101D1000562103A000F08CF906B010BDA8320020B7
:101D20002E2E2F5372632F74696D2E6300000000F6
:101D3000FEE770470907090E002806DA00F00F00D9
:101D400000F1E02080F8141D704700F1E02080F8D9
:101D5000001470477047000010B50C461A4B00285D
:101D60009A6807D0012810D0022818D0032820D064
:101D7000002010BD521C9A6014A1204600F05AF9B0
:101D80002046FEF7ABFA80B210BD521D0FA12046CF
:101D900000F050F92046FEF7A1FA80B210BD0A32D9
:101DA0000AA1204600F046F92046FEF797FA80B2D5
:101DB00010BD0F3205A1204600F03CF92046FEF789
:101DC0008DFA80B210BD00003000002025750000A3
:101DD000024804224168024802F01EBB3000002085
:101DE000591D0008704710B5FFF7D6F9BDE810403F
:101DF000FFF71DBD30B591B0012405940694002570
:101E00000B9505A8FFF760FB18B1BD2113A000F0EA
:101E10000FF90F200090019402954FF4A050039009
:101E20004FF48050049000216846FFF76BFA18B118
:101E3000CB210AA000F0FCF8FFF70AFB4FF47A71FF
:101E4000B0FBF1F0FFF7DFFC0420FFF7CDFC002230
:101E50001146501EFFF724FA11B030BD2E2E2F531D
:101E600072632F6D61696E2E630000000D4801687A
:101E700041F0010101600B4A002108321160026843
:101E8000094B1A400260031D084A1A60026822F4D6
:101E90008022026003480C30016005495806086042
:101EA0007047000000380240FFFFF6FE10300024AB
:101EB00008ED00E00148FFF7A9BD0000A8320020AE
:101EC0002DE9F0410268264D264E274FDFF89CC0D1
:101ED000274B4FF08048A84209D0404507D0B04278
:101EE00005D0B84203D0604501D0984203D122F01A
:101EF00070044A682243A8421BD0404519D0B04222
:101F000017D0B84215D0604513D0984211D0194C63
:101F1000A0420ED0184CA0420BD0184CA04208D0C2
:101F2000174CA04205D0174CA04202D0164CA0423C
:101F300003D122F44074CA68224322F080024C6923
:101F4000144304608A68C2620A688262A84201D0AF
:101F5000984201D10969016301214161BDE8F08125
:101F6000000001400004004000080040000C004058
:101F7000000401400040014000440140004801408D
:101F800000180040001C00400020004010B584688C
:101F900024F47F4442EA03220A432243826010BDB4
:101FA000826822F070020A4342F0070181607047A4
:101FB00010B5036A046A24F001040462846924F001
:101FC000F00444EA021423F00A020A438461026224
:101FD00010BD10B5036A23F0100303628469036A1D
:101FE00024F4704444EA023223F0A00343EA0111CE
:101FF0008261016210BDFEE790F83500C1070B4811
:1020000010D0017811B10178052901D101210170A9
:102010000178032904D00078042801D000207047FB
:102020000120704705210170002070470800002042
:10203000FEE700000FB4084B10B504A902AA0398EC
:1020400000F020F8044602A9002000F0C5F8204660
:1020500010BC5DF814FB0000D9210008004870474F
:102060001C01002002E008C8121F08C1002AFAD192
:1020700070477047002001E001C1121F002AFBD108
:10208000704700002DE9FF4F89B09B4604460025AC
:1020900006E025280BD05A460B999047641C6D1C0E
:1020A00020780028F5D10DB02846BDE8F08F002734
:1020B000B8460122474900E0074314F8013F203B9E
:1020C00002FA03F00842F7D120782E2819D114F82B
:1020D000010F47F004072A280ED06FF02F02207856
:1020E000A0F1300109290CD808EB880102EB41016D
:1020F00000EB0108641CF2E70A98641C50F8048B9A
:102100000A9020780028CED0642808D0692806D00C
:1021100075281ED05A460B9990476D1C58E00A99B5
:102120004FF00A0901C90A91002802DA40422D2124
:1021300002E0390504D52B218DF82010012103E0A0
:10214000F90704D02021F7E78A4608AE0DE0002108
:10215000FAE70A994FF00A0901C90A91F7E74946D7
:10216000FEF7FAF8303106F8011D0028F7D1ADEB83
:10217000060000F12009780701D44FF00108C84596
:1021800002DDA8EB090000E000208046002706E001
:1021900008A85A46C05D0B9990476D1C7F1C574597
:1021A000F6DB04E030205A460B9990476D1CB8F1DD
:1021B0000001A8F10108F5DC05E016F8010B5A460C
:1021C0000B9990476D1CB9F10001A9F10109F4DCEC
:1021D000641C65E7092801000A68531C0B60107035
:1021E0007047000010B504466068804722462068AA
:1021F000BDE81040014903F069BD0000E521000879
:1022000000280BD0026A002A08D0537A082B05D187
:102210000968926A914201D100F064B970472DE9D2
:10222000FC410546002D67D02C6A002C64D00027A5
:102230002784636B4FF03C02581C4FF480384FF0FA
:10224000010C4FF6FF760AD01E33B3FBF2F0404587
:1022500000D3304683B263840BB9A4F822C0A36BC9
:10226000581C0CD01E33B3FBF2F1414500D331466C
:102270008BB223830BB9A4F818C0208BA083E36B27
:10228000581C0CD01E33B3FBF2F2424500D3324649
:1022900093B263830BB9A4F81AC0608BE083208BE0
:1022A000638B984201D303B12783E07A10B1E06ACF
:1022B00001900DE094F828307F2B02D8FF20019088
:1022C00006E0C02B03D36FF07F40019000E0019641
:1022D000206B009028B9A06A0199084040F08070F6
:1022E00000900A21204600F0B3FE6B4601AA04F1DB
:1022F0002801284603F0C2F9BDE8FC8170B5054607
:102300002C6A0821204600F0A3FE002204F12801D7
:10231000284601F035F9A07AFF2801D2401CA072AE
:102320004FF4FA7040F2E731B1FBF0F0E08270BD9B
:1023300010B51748046828E0216A09B3487AF8B153
:10234000488C68B1088C401C80B208844A8C90424A
:1023500006D1204600F046FD204600F015F913E0B6
:10236000C88B18B1421ECA83012806D0888B38B1A9
:10237000421E8A83012804D006E0204600F0DFFEDA
:1023800002E0204600F0C6FE2468002CD4D110BD27
:10239000800000202DE9F04105460C461646002D30
:1023A0000ED08CB100224FF49A71104603F0DFF981
:1023B000E06060B1032E12D0A07A404F50B10CE023
:1023C0006FF00F00BDE8F0816FF00500FAE74FF005
:1023D000FF30F7E7FDF724FFB860B8682060E068D9
:1023E000406820610121017020694170216995F8E0
:1023F0002E00887020690027C770206802F032FF25
:102400002169486020690781206947812069C76088
:10241000082E0AD0042E08D0072E06D0032E07D18E
:10242000607A052801D0042802D121696868C86053
:10243000206907612069476120698761002095F85C
:102440002E10814205D9062803D2291891F82F10A1
:1024500000E00021236900F11C029954401C80B265
:102460001028ECD30020226900F12C015754401CA5
:1024700080B24028F7D30020226900F16C01575444
:10248000401C80B28028F7D321690D48C1F8EC00C8
:10249000A7820020226900F1F0015054401C80B254
:1024A0004428F7D301223521204600F07BF931463C
:1024B000204600F085F9002084E70000E4000020B9
:1024C0006382536310B5064C2078401EC0B2207062
:1024D000002804D1E06806F045FB0020E06010BD54
:1024E000E40000207CB50646346A0C21204600F04A
:1024F000AFFD042221463046FFF74CFF0546280079
:1025000021D104223221204600F04CF9A06A02F0C9
:10251000A9FE0146204600F099F9204600F0C2F9D4
:10252000A08AF03081B2E06803F024FB0D48432319
:10253000CDE900600D480C4AE168C06806F048FB30
:10254000204600F015F8A07AFF2801D2401CA072A6
:1025500042F603104FF4FA71B0FBF1F0E082284626
:102560007CBD0000C88D0008CC8D0008E400002070
:1025700010B50446002C06D0E06808B103F06EFAEE
:102580000020E060206110BD2DE9FC418046D8F8B4
:1025900020400020A0620621204600F059FD0122C3
:1025A00021464046FFF7F6FE074638002FD10222AB
:1025B0003921204600F0F6F8B8F82C10204600F03B
:1025C00062F904223721204600F0ECF800251F4E66
:1025D0002046715D00F0F4F86D1CEDB2042DF7D3C8
:1025E000204600F05FF9A08AF03081B2E06803F085
:1025F000C1FA17484323CDE900801448154A401E0C
:10260000E168C06806F0E4FA2046FFF7B1FFA07A5F
:10261000FF2801D2401CA072A17A062902D2012013
:10262000884000E03C2000EB4001C1EBC0104FF6B9
:10263000FF7101EAC00000F2F3104FF4FA71B0FB31
:10264000F1F0E0823846BDE8FC810000E5000020A2
:10265000C88D0008CC8D000870B50B4804680025B3
:102660000EE0216A59B1C88A012803D9A0F10100FE
:10267000C88204E003D1CD82204600F077FD2468B3
:10268000002CEED170BD00008000002070B5046AFF
:102690000021E1622163174EA6F12805F078002899
:1026A00001D0E8686063307910B12869A06302E066
:1026B000606B4008A063707910B16869E06304E062
:1026C000606BC0EBC000C008E06360680069A06296
:1026D000B07930B1A86902F0C5FDE0620120E07276
:1026E00000E0E172F079002803D0E86902F0BAFD59
:1026F000206370BD1864002010B50446206A0C21C8
:1027000000F0A6FC054B20461A46114602F0B6FF23
:102710002046BDE81040FFF737BF0000C88D000815
:1027200070B505462C6A0948807800280DD0074806
:102730002838806802F096FD606260680069A062D7
:102740002846BDE8704000F001BC70BD1864002050
:1027500010B5114C2078002815D106F0CDF9E060B5
:10276000B0B1017A41F02001017244220B4906F018
:1027700081F843220949E06806F0BEF800220849C2
:10278000E06806F0EBF92078401C2070002010BDB6
:102790004FF0FF3010BD0000E4000020C88D00089D
:1027A000E52C000810B5838A5C1C84820469F03330
:1027B000E154818A4B1C83820069F031425410BD80
:1027C000828A531C83820069F0328154704770B54D
:1027D00006460C46A06A002837D0FDF77FFD00288A
:1027E00033D0A46AB18AC1F14105A84200D205469E
:1027F000EAB20C213046FFF7D5FF04E014F8011BC4
:102800003046FFF7DDFF6D1E681CF7D1002C1CD091
:102810002046FDF763FDC01CC2B251213046FFF7D0
:10282000C1FF01213046FFF7CBFF00213046FFF703
:10283000C7FF00213046FFF7C3FF03E0641C3046AA
:10284000FFF7BEFF21780029F8D170BD10B5828A4C
:102850000C0E531C83820369F0329C54828A0C0C48
:10286000531C83820369F0329C54828A0C0A531CE5
:1028700083820369F0329C54828A531C83820069EC
:10288000F032815410BD10B5828A0C0A531C838229
:102890000369F0329C54828A531C83820069F032AF
:1028A000815410BD002814D0818AFF234A1C8282E3
:1028B0000269F0315354002304E04A1C8282026909
:1028C000F0315354818A442901D38A0701D0442925
:1028D000F3D370472DE9F34F83B004464FF0000B5C
:1028E000002102910A219A48FDF7C5FC0499498903
:1028F0002C2904D26FF0010005B0BDE8F08F0499D7
:1029000049686160F0260498B0F80880049F06E0EA
:10291000311A8EB2A8EB00001FFA80F83F6817B199
:102920007889B042F4D917B1D7F804A0DDE06FF090
:102930000100E1E74FF0FF34B01C1FFA80F97A89FB
:10294000701C824203D90AEB0600407805E0386823
:1029500010B14068007800E00020054634294DD0D1
:102960000BDC032928D003DCD1B101290DD11CE0F7
:10297000062929D0332908D137E0352945D0362911
:102980004AD03A294FD03B2954D000253044801CEE
:1029900086B27DB3002001906D48005D58B393E08E
:1029A00000200546761EB6B2F0E7042802D06FF08C
:1029B0000500A1E70624E9E70425042802D26FF008
:1029C000050099E70724E1E7810702D06FF00500D1
:1029D00092E7082801D2054600E00825A84202D265
:1029E0006FF0050088E70824D0E7042804D06FF0D2
:1029F000050081E768E024E00324C7E7012802D04E
:102A00006FF0050078E70024C0E7012802D06FF0DE
:102A1000050071E70124B9E7042802D06FF0050032
:102A20006AE70224B2E7042802D06FF0050063E7EA
:102A30000424ABE7042802D06FF005005CE705240E
:102A4000A4E7042D01D2284600E0042000904B4664
:102A500001A93846009A02F0CBFF01460098814256
:102A600002D06FF0010047E7042D16D9A80702D065
:102A70006FF0050040E7364901200855019802F043
:102A8000F1FB3349283941F824002D1FEDB209F13B
:102A900004091FFA89F9641C7EE7042D04D0012D76
:102AA00007D06FF0050027E7019802F0DBFB0190EB
:102AB00002E09DF8040001902549012008552448B2
:102AC0000199283840F824107889B0420DD8311A7D
:102AD0008EB2A8EB00001FFA80F846450DD2B8F17F
:102AE000000F0AD03F68D7F804A037B11AF80610D3
:102AF000FF2902D04645FFF41DAF154A1078A0B15A
:102B0000A2F12800006800211170012804D00228D9
:102B100005D0032806D008E04FF0010B05E00120A6
:102B2000029002E0012002908346BBF1000F05D025
:102B30004FF0000B6C264FF0EC08E7E6029828B146
:102B4000002002902C264FF06C08DFE60020D3E630
:102B5000186400202DE9F84307463D6A0421284601
:102B600000F076FA032229463846FFF713FC804628
:102B70005FEA080030D1022239212846FFF712FE11
:102B8000B98D2846FFF77FFE042237212846FFF73C
:102B900009FE00241D4E2846315DFFF711FE641C1E
:102BA000E4B2042CF7D339462846FFF710FE284636
:102BB000FFF778FEA88AF03081B2E86802F0DAFF09
:102BC00012480097401E4323114AE968C06805F087
:102BD000E1FF2846FFF7CCFCA87AFF2801D2401C71
:102BE000A872A87A0A2803D24FF47A71484301E008
:102BF00042F2107080B200F2F3104FF4FA71B0FBA1
:102C0000F1F0E8824046BDE8F8830000E5000020CE
:102C1000CC8D00082DE9F84307463C6A0321204685
:102C200000F016FA032221463846FFF7B3FB804630
:102C30005FEA080039D1022239212046FFF7B2FDB0
:102C40004FF410712046FFF71EFE04223221204669
:102C5000FFF7A8FDA06A02F005FB01462046FFF73A
:102C6000F5FD042237212046FFF79CFD00251B4E71
:102C70002046715DFFF7A4FD6D1CEDB2042DF7D366
:102C80002046FFF70FFEA08AF03081B2E06802F024
:102C900071FF12480097401E4323114AE168C06843
:102CA00005F078FF2046FFF763FCA07AFF2801D2E9
:102CB000401CA072A07A0A2803D24FF47A714843CC
:102CC00001E042F2107080B200F2F3104FF4FA719A
:102CD000B0FBF1F0E0824046BDE8F883E50000205B
:102CE000CC8D00082DE9F04116463C4845682C6A19
:102CF00073680027002C69D0207A002866D070897C
:102D00002C2863D31878022860D1002095F82E1063
:102D100001E0401CC0B281420BD9062809D22A1812
:102D200003EB000C92F82F209CF81CC062454DD19B
:102D3000EFE7586802F096FA2168884246D131469A
:102D40002046FFF7C7FD10BB25484078F8B124485E
:102D500028380079052802D0062820D028E0607A9B
:102D6000012806D0032813D0042811D005280FD03D
:102D70002CE02846FFF78AFC95F83500000703D5BC
:102D80002846FFF7BBFA21E02846FFF748FA1DE086
:102D90002846FFF77BFC2846FFF741FA16E0637AE6
:102DA000032B08D0012B06D0042B04D0052B02D016
:102DB000022804D00AE02846FFF79EFC06E0607A6D
:102DC000062803D1E7822846FFF7AAFC04B1676012
:102DD0003046BDE8F04102F041BE0000E83200207C
:102DE000186400207CB505462C6A002C1ED0606A51
:102DF0000190284600F07FF906460021204600F0A9
:102E000027F900206062A062E0622063E063A063B3
:102E1000606360842084E083A08356B1072221464A
:102E20002846FFF7B7FA06462EB124E06FF00F00F0
:102E30007CBD00207CBD042236212046FFF7B2FC79
:102E4000019802F00FFA01462046FFF7FFFC2046EA
:102E5000FFF728FDA08AF03081B2E06802F08AFE18
:102E600009480095432301AAE168C06805F092FE75
:102E70002046FFF77DFB054B28461A46114602F017
:102E8000FDFB30467CBD0000E4000020C88D00083A
:102E90002DE9F84307463C6A0521204600F0D8F8A2
:102EA000032221463846FFF775FA80465FEA08009C
:102EB00031D1022239212046FFF774FCB98D20461A
:102EC000FFF7E1FC042237212046FFF76BFC0025C9
:102ED0001D4E2046715DFFF773FC6D1CEDB2042D95
:102EE000F7D339462046FFF772FC2046FFF7DAFC9D
:102EF000A08AF03081B2E06802F03CFE12480097F0
:102F0000401E432304F12402E168C06805F042FE3C
:102F10002046FFF72DFBA07AFF2801D2401CA072AB
:102F2000A07A0A2803D24FF4FA61484301E044F63C
:102F3000206080B200F2F3104FF4FA71B0FBF1F0B0
:102F4000E0824046BDE8F883E50000202DE9FC4121
:102F50008046D8F820400121204600F079F803226D
:102F600021464046FFF716FA074638004BD10222A9
:102F700039212046FFF716FCB8F82C102046FFF741
:102F800082FC042232212046FFF70CFCA06A02F0EA
:102F900069F901462046FFF759FC042236212046F4
:102FA000FFF700FC606A02F05DF901462046FFF77A
:102FB0004DFC042237212046FFF7F4FB0025214E6B
:102FC0002046715DFFF7FCFB6D1CEDB2042DF7D3BD
:102FD00041462046FFF7FBFB2046FFF763FCA08A33
:102FE000F03081B2E06802F0C5FD17484323CDE917
:102FF00000801448154A401EE168C06805F0E8FDED
:103000002046FFF7B5FAA07AFF2801D2401CA07233
:10301000A17A062902D20120884000E03C2000EB82
:103020004001C1EBC0104FF6FF7101EAC00000F291
:10303000F3104FF4FA71B0FBF1F0E0823846BDE8CE
:10304000FC810000E5000020C88D0008CC8D000840
:10305000427A8A4203D0417200218172C182704754
:1030600070B505466FF00F01002D0BD095F83500B7
:10307000C00709D02C6AA88D0E11B0F5107F05D2BB
:10308000304670BD084670BD084670BD64B1207AF8
:1030900008B1FFF717FA40212046FDF7ECF8FFF7DB
:1030A00057FB50B1304670BD402002F0B3F90446E2
:1030B0000CB12C62EFE7304670BD0120207228462B
:1030C000FFF762FA0028F7D0284600F002F83046F1
:1030D00070BD10B500280DD0046A002C0AD0002164
:1030E0002046FFF7B5FF207A002803D0FFF7EAF962
:1030F0000020207210BD00280AD0006A40B1407A3A
:103100000A2803D0052801D000207047012070470D
:103110000020704710B5046A617A012903D00A299A
:1031200001D005290AD1FFF7B3FE608B218C401A2C
:10313000022803DB00EBD0704008A08310BD10B55F
:10314000046A617A012905D00A2903D0052901D032
:1031500004290AD1FFF7FEFC608C218C401A02285A
:1031600003DB00EBD0704008E08310BD10B50446CF
:10317000216A4A7A0C2A0FD0062A0DD0012A10D0D3
:10318000082A1ED0032A2ED1887A022826D2204669
:10319000BDE81040FFF73EBD2046BDE81040FFF7F8
:1031A000F3B9887A052804D82046BDE81040FFF717
:1031B000CDBE2046FFF716FE2046BDE81040FFF7C3
:1031C000E3B9887A012804D82046BDE81040FFF70B
:1031D00095B82046BDE81040FFF721B82046BDE86D
:1031E0001040FFF7D1B910BD826812680A6080688C
:1031F0000160704781680868002802D002680A6090
:10320000704700207047000070B505460024094E45
:1032100004EB440006EBC000017D29B18068A842A0
:1032200002D1204600F084F8641CE4B20A2CEFD3EB
:1032300070BD0000246400202DE9F74F05464FF0D3
:103240000A09CA460A2300209B4600278446804676
:10325000364900EB400401EBC402117D0A2B00D17A
:1032600049B1A1B14DB12E68D2F804E0764504D140
:1032700040B2BDE8FE8F43B209E0012913D0022914
:1032800005D3518A414502D34FFA80FA8846401C43
:10329000C0B20A28DCD301984FF0FF3180071BD45D
:1032A0000A2B12D014E0214951F8341031B1548A5C
:1032B000BC42ECD34FFA80FB2746E8E7568A6645C6
:1032C000E5D34FFA80F9B446E1E70198C00703D08F
:1032D0000A2B03DADCB215E00846CAE7BAF10A0F96
:1032E00002DA0AF0FF040AE0B9F10A0F02DA09F083
:1032F000FF0404E0BBF10A0F15DA0BF0FF042046CF
:1033000000F016F835B1094804EB440200EBC200A6
:1033100029684160054804EB440200EBC20000212B
:10332000418260B2A5E70846A3E7000024640020BC
:1033300070B5084D00EB4004002655F83400002815
:1033400003D002F08BFB45F8346005EBC400067532
:1033500070BD0000246400202DE9FE4307460D46A1
:10336000002D11D07C684FF480782088404508D12A
:103370002079062805D16079042802D160880828C0
:1033800004D0384602F06AFBBDE8FE83D4F80E0094
:103390000290A0690190696819B1884203D10126A1
:1033A00002E0002600E000260EB1012300E0022327
:1033B00004F10802914602A9284600F0F7F9E088D6
:1033C000404503D0B0F5007F25D120E01EB3022098
:1033D00001F054FFE080D4F80E00A0616868C4F8E2
:1033E0000E00A068C4F81200A089E082D5F82F0072
:1033F000A060B5F83300A08140F60600009004F10B
:1034000012034A463946284600F064FA03E002A94E
:103410002846FEF7F5FE384602F020FBB4E7000030
:10342000FEB505460E4614462946206801F062F9AD
:1034300008B1354B3CE02068C0F303110E2922D0BF
:10344000A9686B6800EA01020B409A4208D080B27A
:10345000A0F57E41A93903D0E86898B305F10C04C2
:103460002A4B2B481A7802EB420100EBC1010F7D79
:10347000022F2BD3276849688F4227D1314628462F
:1034800000F048F8FEBD01208DF8040000208DF802
:1034900005005E208DF80600607800F07F008DF852
:1034A0000700A0788DF80800E0788DF8090001ABDE
:1034B0004FF40060009005F12F023146284600F0DD
:1034C00009FAFEBDFFE76FF00300FAE7002101EB08
:1034D000410200EBC202177D022F0AD3276852680F
:1034E000974206D1CAB21A703146284600F012F847
:1034F000E7E7491C49B20A29E9DB3246214628465A
:1035000000F03EF8DDE70000B08C0008F400002079
:10351000246400202DE9F84306460F46174802EBC5
:10352000420100EBC10404F10C05207D022818D1F2
:10353000618A4FF00308B1F58E7F07D9211D30460F
:1035400000F0EEF868B984F814800AE0B1F5877FDE
:1035500007D32A46211D304600F0E8F808B984F860
:1035600014804FF4006000902B4606F12F0239467C
:10357000304600F0AFF9BDE8F88300002464002075
:103580002DE9FC5F8246894617460AF12F0001901B
:103590004FF0FF344FF0000B5146D9F8000001F016
:1035A000A9F898B9D9F80000C0F303110E290DD07D
:1035B000B9F1000F0AD048B1524601214846FFF741
:1035C0003BFE0646300004D5BDE8FC9F6FF00F00BF
:1035D000FAE72E4806EB460800EBC805287D28B917
:1035E0004FF0010B01202875C5F808A0BBF1000FB2
:1035F00000D12FB94946504600F092F8044697B1E1
:10360000287DDFF8889002280FD3214806704FF4F8
:103610000060009005F10C0339465046019A00F015
:1036200059F9044630E02046CEE701282CD100218C
:103630003C4605E0207B012801D0012102E02468FE
:10364000002CF7D181B121890022022002F08FF8ED
:1036500005466DB13946284602F07AF940B1284650
:1036600002F0FCF9002503E03D46284602F0ACFAE2
:1036700045B159F8380008B102F0F0F949F838506E
:10368000002401E04FF0FF3420469DE72464002031
:10369000F40000202DE9FF4F81B08B46DDE90F9A41
:1036A000DDF838801E46002700221C21022002F08F
:1036B0005EF8054628002FD06C68119801F0DEFDF9
:1036C000E0803068A060B088A081D9F80000C4F81C
:1036D0001200B9F80400E082D8F80000C4F80E0027
:1036E000DAF80000A0614FF480702080082060802C
:1036F000062020710420607140F6060000905A46B2
:103700002946039B019800F0E5F8284602F0A6F947
:10371000384605B0BDE8F08F4FF0FF30F9E7000004
:10372000014A00F003B80000B08C00087FB5064DD8
:10373000031D0124CDE90035CDE902142B331946D0
:10374000FFF7A8FF04B070BDB68C000870B5002468
:10375000154D04EB440005EBC002117DF9B1508A10
:10376000401C80B25082B0F5967F03D2012905D16A
:10377000052803D32046FFF7DBFD10E0032904D022
:10378000042905D0012906D009E00420107506E0BF
:103790000220107503E0111D9068FFF7C1FF641C43
:1037A000E4B20A2CD5D370BD24640020F8B50546D8
:1037B0000C4616461F46002C34D0206888B3294694
:1037C00000F098FF68BB2078C0F303100E2829D0C2
:1037D0002A4639462046FFF72FFD002820DB134AF2
:1037E00000EB400102EBC1000223037585603368E2
:1037F000C360B38803820023438252F8314074B11E
:1038000042F831304FF400600090334605F12F024A
:103810002146284600F05EF8204602F01FF90020FD
:10382000F8BDFFE76FF00F00FAE700002464002006
:1038300070B504460E4660890E283DD960688589BA
:103840000278D10715D0012A05D006222049FCF7BD
:103850005AFD50B10DE0417859B980785E2808D101
:10386000607B40F01000607303E0607B40F0080074
:1038700060736FF00D01082D03D0B5F5C16F1BD13A
:103880000FE096F83500000716D560890E2813DB87
:10389000204602F029F978B93146204601F00AF8AD
:1038A00013E096F83500000706D560890E2803DB83
:1038B000204602F019F920B1204602F0CFF800208E
:1038C00070BD31462046FFF747FD002070BD000067
:1038D000B08C00082DE9F04780460F4616461D467D
:1038E000089801F0CBFC81460E21384602F0FCF826
:1038F00018B16FF00100BDE8F0877C68A4F80C9067
:1039000028682060A888A0803068C4F80600B088C5
:10391000608139464046D8F81820BDE8F047104786
:1039200010B508A18162732180F83610742180F8E7
:103930003710084941610849816101F055FB0020B9
:1039400010BD000053544D3332463230375A47547D
:103950003600000021340008B551000870B5054656
:10396000284601F0C5FB0446002C0AD02A692946E6
:1039700020469047002804D02046BDE8704002F061
:103980006DB870BD2DE9F0478046002905D0087854
:1039900018B10C460025002721E00020BDE8F08783
:1039A00008EB85063463A14626212046FCF78CFCF3
:1039B00018B100F8017B044606E020214846FCF7D8
:1039C00083FC00B1077000243D214846FCF77CFCD5
:1039D00018B100F8017B306700E037676D1C102DCF
:1039E00001DA002CDCD12846D8E7D0E90110081A0A
:1039F0007047704770B505460E46002D02D00EB1D7
:103A00000D4C08E06FF00F0070BD30466168FCF7A8
:103A10006CFC20B12468002CF7D1A01F70BDA068F9
:103A20002860E0686860E068A8600020E860207CAA
:103A30002874002070BD0000A4A200082DE9F04108
:103A4000C46A2B4E3068002812D0B06880B170680C
:103A500070B1002504F1110707E0B06850F8251097
:103A60003846FCF742FC88B16D1C70688542F4DB77
:103A700004F111000746FCF731FCA72804D23846B0
:103A8000FCF72CFC09280AD9092012E03368C0226F
:103A900004F11A0128469847E081BDE8F0813846D4
:103AA000FCF71CFCA72803D23846FCF717FC00E003
:103AB000A720054604F11A0012220EA10646FCF7C3
:103AC000C1FB2A46394604F12C00FCF7BBFB0EA1D2
:103AD00060190A6840F82C2F898881803E21817105
:103AE0000021C1713046FCF7F9FBE081D5E7000009
:103AF000000100203C623E2A2A2A554E4B4E4F5769
:103B00004E205441472000002A2A2A3C2F623E00C2
:103B100010B50C46002A1FD1F4B10121204604F053
:103B2000D9FA00F092FC0146C9B1CC61204602F0FE
:103B300009FA0C49204603F0EBFF0B49204602F03E
:103B4000C6FB04220949204603F0F4F9084920463F
:103B500004F05CF9002010BD6FF0050010BD4FF0BF
:103B6000FF3010BDF73F0008153C0008B13F0008CA
:103B7000ED43000870B505460C466069002809D081
:103B8000FFF733FF00280BDC2146284600F040F801
:103B9000002070BD2146284600F03AF8002070BD94
:103BA000012070BD002200F001B8000070B506468B
:103BB0000D4614460021304602F0C4F9002130467B
:103BC00003F0A6FF0021304602F081FB00221146DF
:103BD000304603F0AFF90021304604F017F915B173
:103BE000284600F052FC24B1304602F03FF9002094
:103BF00070BD304602F0F4F9044624B104220349B2
:103C0000304603F097F9204670BD0000B13F000830
:103C1000FFF7C8BF002801D000F037BC7047000094
:103C20002DE9F74F82B0804600260027B146039861
:103C3000FCF754FB98B303990A1812F8012C2F2AA9
:103C400038D15F4A914201D1012833D1421E3F2A27
:103C500001D93F2500E0451E35B12A465848FCF7FA
:103C6000F1FA5749002048550024DFF858B1BDB19A
:103C7000C5F13F0ABAF1000F0ED05BF83400FCF733
:103C80002DFB824500D250464D4A5BF83410531943
:103C900002461846FCF7D6FADFF824A102E009E054
:103CA0005BF834A040465146FFF7A4FE20B1641CE7
:103CB000052CDCD346B16DE0CDF80CA046460BEBED
:103CC000C40090F80490F5E73F210398FCF7FCFA54
:103CD0000746380002D0002007F8010B3A4D4FF09C
:103CE000FF306861286970B1E86860B1002407E0BE
:103CF000E86850F834100398FCF7F7FAE8B1641C50
:103D000028698442F4DB40460399FFF773FE30B321
:103D100003A9404600F05EF80646DEB32BA10398E7
:103D2000FCF7B4FA0546280001D00020287003985B
:103D3000824627A1FCF7AAFA18E039464046FFF769
:103D400021FE6861E96808F1700301EBC40108F124
:103D500030024D6801462046A8470390D3E7464607
:103D6000DBE78246401C1AA1FCF790FA0028F8D144
:103D700081460024DFF84CB0ABF1100B50465BF8E5
:103D8000241001F08FFA38B1641C042CF6D30DB165
:103D90003F2028701EB107E04FF00109F7E703A9A3
:103DA000404600F017F80646CDE90097DDE90332FA
:103DB0003146404600F03AF805B0BDE8F08F00000B
:103DC00014690020E88D0008000100203F00000079
:103DD0002E00000070B505460C460BA12160284658
:103DE000FFF708FE70B10BA121602846FFF702FE25
:103DF00040B10BA121602846FFF7FCFD10B1002067
:103E0000206070BD284670BD2F3430342E68746D2C
:103E10006C0000002F3430342E68746D00000000F8
:103E20002F3430342E7368746D6C00002DE9F0412E
:103E3000044606980D4617460026002D25D060B191
:103E400000F0F2FA48B1868180F8DB6029680160F1
:103E50006968816029684160E06265612868A061E5
:103E60006A68626284F82860A7B1297CC90711D00A
:103E70000AA101F030FA68B1A169401A001D01449D
:103E8000A161616A081A606204E06661A661666207
:103E900084F828600020BDE8F08100000D0A0D0ABA
:103EA000000000002DE9F05F04460D466869002817
:103EB00001D1A86918B16FF00700BDE8F09F286A2A
:103EC000A8B1214601F01DFD204601F07DFE286AC3
:103ED000016871B1068940F2FF318E4200D30E466F
:103EE000002332462B4901F083FD2A4F03E02C6268
:103EF000EAE7676866896FF00F0B072E3BD33246FF
:103F000025A1384601F0E7F9A8B34FF000080422D4
:103F100022A13846FCF704FAC24618B187F804A07B
:103F20005846CAE7FC1C301F1FFA80F94A461DA1FB
:103F3000601C01F0D0F930B94A4617A1601C01F0AD
:103F4000CAF94FF00108011B491E1FFA81F990B10F
:103F5000A04210D9324614A1384601F0BCF950B144
:103F6000611C84F800A001F809A042462846BDE87B
:103F7000F05FFFF755BE286A01F0E1FC296A098964
:103F8000B1F5806F04D2052802D86FF0040094E7E1
:103F9000584692E7146500200D0A0000474554205A
:103FA00000000000200000000D0A0D0A00000000C3
:103FB00010B50C460146002912D091F82800401C8B
:103FC000C0B281F82800042810D0486930B12046DA
:103FD00000F052F810B1204602F08EFD002010BD16
:103FE00000212046FFF7DEFD002010BD2046FFF730
:103FF000D9FD002010BD2DE9F04104460F461546BD
:10400000002B0DD165B15CB12989384603F098FDCC
:10401000606998B1284601F021FD0020BDE8F081DB
:1040200035B12989384603F08BFD284601F016FD8D
:1040300021463846FFF7B6FD0020EFE73A46214615
:104040002846FFF72FFF0646701D05D0206A18B1DD
:1040500001F004FD00202062284601F0FFFC36B18B
:104060001036DAD121463846FFF79CFDD5E72146C8
:10407000384600F001F8D0E770B506460C46002C33
:1040800002D0606A10B106E0002070BD21463046C3
:10409000FFF770FD38B1E06A38B12146304600F0D4
:1040A00039F8054606E0002070BD2146304600F094
:1040B00010F80546606A50B96069FFF796FC002861
:1040C00005DC21463046FFF7A3FD002070BD2846E1
:1040D00070BDF8B506460C460025616A4FF6FF70C4
:1040E000814200D301460091E06A08B1012300E05B
:1040F00000236A463046A16900F0D7F940B901258E
:10410000BDF80010A0690844A061606A401A6062AE
:104110002846F8BD2DE9F34F81B00D460026002753
:10412000EC6A0198B0F8600000902068A9694FF629
:10413000FF7988421DD9401A484500DB4846009067
:10414000200001D0012300E000236A46019800F01E
:10415000ACF90646300008D10127BDF80000A96976
:104160000144A961696A081A68620198B0F86000A0
:1041700030B14FF0010ADFF870B24FF000080AE1E9
:104180003846BDE8FE8FBDF8001041B194F8DB1051
:104190000529F4D2DFE801F005122D70C100384680
:1041A000EFE721680A783C2A03D184F8DBA0A4F861
:1041B0000CA0401EA060491C2160ECE0A1890529EB
:1041C0000AD02268DBF800C013781CF801C06345F0
:1041D00008D1491CA18107E0A4F80C80022084F8D2
:1041E000DB00D8E084F8DB80401EA060521C226017
:1041F000D1E0A18949B923681A78202A18D0092A60
:1042000016D00A2A14D00D2A12D0206800782D2842
:1042100013D0202811D009280FD00A280DD00D283E
:104220000BD008291FD24A1C2144A28148741CE0EB
:10423000401EA0605B1C2360ADE071B1032084F8D8
:10424000DB00217404F1110001F80080206800787F
:104250002D2805D0A4F80C8007E084F8DB8004E06A
:10426000A4F80CA001E084F8DB80A068401EA060E8
:104270002068401C20608EE0A18949B923681A7823
:10428000202A16D0092A14D00A2A12D00D2A10D0BA
:104290002268DBF804C013781CF801C0634535D1EF
:1042A000401EA060521C2260022907D0491CA18137
:1042B00071E0401EA0605B1C23606CE02846FFF7A5
:1042C000BDFBA4F80C80042084F8DB00206860604B
:1042D000A96988425FD9401A484500DB48460090EA
:1042E000E86A08B1012300E000236A46019800F063
:1042F000DCF8064630004ED10127BDF80000A96960
:104300000144A961696A081A686244E0401EA0601D
:10431000521C226084F8DB803DE06068A969884215
:104320001DD9401A484500DB484680B2009050B184
:10433000E86A08B1012300E000236A46019800F012
:10434000B4F8064600E0002606BB0127BDF80000D1
:10435000A9690144A961696A081A68621BE0A08919
:10436000E189884213D2091A009104F11A0101442B
:1043700001236A46019800F098F8064630000AD1F9
:104380000127A089BDF800100844A08103E0A4F82B
:104390000C8084F8DB80A06810B1002E3FF4F3AEEF
:1043A00094F8DB0004281CD02068A969884218D939
:1043B000401A484500DA8146CDF80090E86A08B115
:1043C000012300E000236A46019800F06EF840B92E
:1043D0000127BDF80000A9690144A961696A081AAA
:1043E00068623846CDE60000D08D000810B50A4658
:1043F0000146002907D0002081F828001046FFF769
:104400003BFE002010BD002010BD0000014AD0601E
:104410001161704700010020024B186099605A60DA
:10442000704700000001002010B5DC2000F0F2FF12
:1044300004461CB1DC212046FBF71DFF204610BDC1
:10444000002801D000F0B6BF704710B5B02000F0D2
:10445000E1FF044614B1204600F024F8204610BDC8
:1044600070B5044600256069002802D0FFF7C1FA44
:104470006561E06A10B1FFF7E3FFE562206A00289A
:1044800002D001F0EBFA256270BD10B50446002C95
:1044900007D02046FFF7E4FF2046BDE8104000F0BB
:1044A00089BF10BDB021FBF7E6BE2DE9F0410546FE
:1044B0000F46164698463488002C0AD0B5F860009E
:1044C000A04200D20446A87E000705D5688E0C38AD
:1044D00003E00020BDE8F081688E4FF6FF7101EA2D
:1044E0004000844200D904464346224639462846C5
:1044F00003F0BDFF411C09D1B5F8601019B1B5F842
:104500006210102901D3012400E06408411C01D18C
:10451000012CE9D810B100213180DBE73480D9E7E4
:1045200010B52E2002F072FA04460121204603F055
:10453000D1FD50220649204601F008FDFF2120460A
:1045400002F0E2F9BDE81040024901F092BC00001F
:10455000C88D0008113B00080A46032100F090B8FE
:104560002DE9FE4F04468846444FD7F808A09AF834
:1045700000000007850E142D7ADB6089042877D3AC
:104580006068017800296ED008296CD107F1140900
:104590007869C0F303110E2944D0396800F0AAF8F5
:1045A00050BB2089082863D305F10E0001B20E46E6
:1045B000204601F099FA70B320890022284481B284
:1045C000022001F0D4F80646B6B1718905F1080061
:1045D000814203D2304601F041FA23E02A46514697
:1045E0007068FBF72FFE684201B2304601F07CFA9A
:1045F00018B1304601F032FA14E02146304601F09D
:10460000A7F918B1304601F029FA0BE0204601F075
:1046100025FA34460BE0FFE7704201B2204601F074
:1046200063FA20B12046BDE8FE4F01F017BA666874
:104630002946204601F058FAA8B96068D9F8001058
:10464000C16039690161002131707180FF220272FD
:1046500041810120CDE901080091FF230022494654
:10466000204600F019FA2046BDE8FE4F01F0F6B9E9
:104670002046BDE8FE4F01F0F1B90000E83200200D
:104680002DE9FF4706468846914600222421012055
:1046900001F06DF80546280026D077686C6884F82C
:1046A000008084F801904FF00008A4F80480A4F87A
:1046B00006806868716808301C22FBF7C3FDF86843
:1046C000039003A800F004FB58B1A4F80280012174
:1046D000CDE900810290FF2303AA0021284600F0C3
:1046E000DBF9284601F0BAF9BDE8FF870A460B213D
:1046F000FFF7C6BF08B50090421C07D0020005D0E6
:1047000091F83520920703D4002008BD012008BD90
:104710004A68824201D1002008BD896800EA01038D
:104720000A40934202D10143491C01D0002008BD38
:10473000012008BD2DE9F74F88B004460998808D07
:104740001438C11700EB5170C0F3CF000590142648
:104750000027606807900798BD1F017801F00F01DE
:10476000052903D028460BB0BDE8F08FC08800F0C3
:1047700085FDC0F30C010391800401D52846F2E7C2
:10478000208914381FFA80F88CE00598B8EBC00F28
:1047900001D2404601E00598C00080B2049000229A
:1047A0001421022000F0E3FF83465FEA0B004FD0A4
:1047B0001422DBF804000799FBF744FDDBF8040042
:1047C0000690049D2BE06089801B87B2BD4200D219
:1047D0002F467FB300F0AAFA81465FEA09002DD088
:1047E00060684B463044CDE9000702223946042078
:1047F00001F059F88246BAF1000F23D0204601F0AB
:10480000E3F9C9F814402A48C9F81000514658463F
:1048100001F077F8E81B85B20DB100262468002D61
:10482000D1D1F01986B20998808D1438404512DB39
:10483000012111E0FFE700262468F0E7584601F067
:104840000DF905E0484600F074FA584601F006F903
:104850004FF0FF3087E700210398C0F30C0009B93F
:1048600040F4005000F00AFD0699C8800498143006
:1048700080B200F003FD069948800698002141812E
:10488000099859460A9A43699847584601F0E6F84C
:104890000498A8EB00001FFA80F8059903980844D3
:1048A00080B20390B8F1000F7FF46FAF00205AE799
:1048B000D14F00082DE9F05F06460F464FF0010B7F
:1048C000756804212878B1EB101F05D0304601F03F
:1048D000C5F80020BDE8F09F00F00F004FF6FF7113
:1048E00001EA8008688800F0C9FC04463089A042CB
:1048F00003D92146304601F03DF97089404505D382
:104900003089A04202D3B8F1140F04D2304601F02E
:10491000A5F80020DEE7DFF878A12869CAF81400BE
:10492000E968CAF81010C0F303100E2811D04FF038
:1049300001093C4694F83500C00714D0616891B174
:10494000DAF8140088421CD02146FFF7D3FEC0B924
:1049500009E097F83500C00703D0786808B13C46F5
:104960000FE000240DE0B9F1000F04D04FF0000972
:104970004848046800E02468BC4200D12468002C48
:10498000D8D15CB9687A112808D105EB08004088B5
:10499000B0F5884F02D13C464FF0000BBBF1000F41
:1049A0000CD0DAF8100048B13946FFF7A3FE88BBF7
:1049B0009AF81000C0F303100E282DD05CB3E888DD
:1049C00030F0C00005D0304600F0D0F806466EB397
:1049D0007568CAF80040CAF80470CAF80850287808
:1049E0000007800EAAF80C000FFA88F8C8F1000042
:1049F00001B2304601F078F8687A012822D0062802
:104A00001BD0112814D02146DAF81400FFF772FEEB
:104A1000E8B12BE000E004E0304601F01FF8002090
:104A200058E7304601F01AF8002053E7002051E71C
:104A30003946304603F08CFF1BE03946304601F022
:104A400091FC16E039463046FFF78AFD11E09AF8EE
:104A50001400C0F303100E2808D04146304601F080
:104A600046F8756002213046FFF776FD304600F0CB
:104A7000F5FF0020CAF80000CAF80400CAF80800D0
:104A8000AAF80C00CAF81000CAF8140022E70000C7
:104A9000E832002080000020FEB5DDE908670A9CAE
:104AA000002A04D00D0001D00D6805B9211DCDE903
:104AB0000067029400F002F8FEBD00002DE9F84FF7
:104AC0000546DDE90AABDDF83080894616461F460B
:104AD000002E2FD01421284601F006F818B16FF0EF
:104AE0000100BDE8F88F6C68277284F809B030685F
:104AF00020614520207084F801A0288900F0BEFBC9
:104B000060804FF0000AA4F806A0164F388800F025
:104B1000B5FBA0803888401C3880B9F1000F05D063
:104B2000D9F80000E060A4F80AA007E00E48006889
:104B3000E060F8E76868006900906E46B8F82C00FD
:104B400040B12989814205D9324641462846FFF7BE
:104B5000F1FDC6E7D8F8143032462946404698475A
:104B6000BFE70000F6000020C88D00082DE9F047DF
:104B70008246DAF80450287800F00F00052878D132
:104B8000E88800F07BFBC0044FEA1048688800F01A
:104B900075FB297801F00F01494200EB81001FFAF3
:104BA00080F9504600F0CBFE0646484F3888304426
:104BB0000A2809D93146284600F0B0F900287FD0EC
:104BC000388830440A287BD87C680CE06069E96842
:104BD000884207D1A0692969884203D1A089A988A0
:104BE000884202D02468002CF0D12CB1E88800F073
:104BF00045FBC00408D012E03146284600F02AF9EF
:104C0000044620005CD00AE0E08900F037FBC004D5
:104C100005D01422294604F10800FBF713FB38885D
:104C200030443880A879800606D4A07F40F0010087
:104C3000A07708EB0900A0835146204600F07EF8DB
:104C4000D8B3A08B1430A0836068466835681422FE
:104C500004F108013046FBF7F5FAA08B00F00EFBDB
:104C600070800020F0807081D4F804806FF0130908
:104C70000AE025E06E684946284600F035FF2946DF
:104C8000404600F03EFE3568002DF3D179688C4235
:104C900005D1002105E00868A04202D001460029A4
:104CA000F9D1204600F0C4F8404600F048FE3988AB
:104CB000081A38804046BDE8F087FFE70020FAE791
:104CC000504600F0CBFE0020F5E70000F800002081
:104CD00070B506461348006814E090F83510CA070E
:104CE0000FD04A070DD543685BB184683268234012
:104CF00002EA04059D4214D0890702D4C1688A42A1
:104D00000FD000680028E8D10748006840B190F84B
:104D10003510CA0704D0490702D54168002900D1DF
:104D2000002070BD8000002084000020052000F0DD
:104D300063BC0146052000F02FBC00002DE9F047C0
:104D400007460E4600240125D6F80480B8F8020074
:104D500000F094FA98F8001001F00F01494200EBBE
:104D60008109B8F8060000F089FAC004010C7368E4
:104D700000201860998001EB09001FFA80F8A3F861
:104D800006807A681CE05068B0F804C061450CD217
:104D90001A6044B1B4F806C061453AD380888045B2
:104DA00037D826600EE07E600CE032D0C288914297
:104DB0002FD31CB1E288624500D00025026804466A
:104DC000002AE0D142B934B12660E088998888424F
:104DD00002D0002500E07E60B87FC00717D09DB1EB
:104DE000786810B14068808808B100250CE0196827
:104DF00008E04868D9888288914201D0002503E004
:104E0000034601680029F4D12846BDE8F087002058
:104E1000FBE7304600F093FD014604480288511A32
:104E20000180304600F01AFE0020EEE7F800002076
:104E300030B40B46064902684C68844201D14A608E
:104E400000E01A60014630BC042000F0A5BB000061
:104E5000F800002070B506460D46042000F0CCFB9B
:104E6000044654B92946304600F058F8A84203DBFE
:104E7000042000F0C1FB04468CB120212046FBF742
:104E8000FAF90320E0770748416821604460142262
:104E9000314604F10800FBF7D5F9204670BD00202B
:104EA00070BD0000F80000202DE9F041064688465C
:104EB0000025746860688188002912D100687060DC
:104EC000142206F108016068FBF7BCF901212046B5
:104ED000FFF70CFC204600F032FD0546204600F0AE
:104EE000BDFD74680AE0606827460468384600F033
:104EF00026FD284485B2384600F0B0FD002CF2D1E2
:104F000041463046FFF794FF03490888401B08805C
:104F10002846BDE8F0810000F80000202DE9F047A8
:104F200005460F460026DFF8788000200021002388
:104F30000024D8F8042022E0D2F814C0D5F80C9050
:104F4000CC450BD1D2F818C0D5F81090CC4505D17E
:104F5000B2F80CC0B5F80490CC4509D0641CE0B19F
:104F600092F81FC090F81F90CC4501D810460B4610
:104F7000D2F800C0BCF1000F00D011466246002AF2
:104F8000DAD118B11946FFF78FFF0644BE4201DAA5
:104F9000012CCADC3046BDE8F08710460B46E7E737
:104FA000F800002070B50025084844680BE0E07F59
:104FB00020B1401EE0772546246804E0204624689E
:104FC0002946FFF771FF002CF1D170BDF8000020D9
:104FD00010B504466069002801D000F03FFD20466E
:104FE000BDE81040FFF7A5BE3EB504460020029084
:104FF0003C4D3B4929600121696029828DF8000000
:1050000080218DF80110E1218DF802108DF8030048
:105010008DF804008DF80500C5F814D0A861E8618A
:1050200028622846FBF72CFD28B994F8350040F09B
:10503000040084F8350004232B4A2C492948FBF747
:10504000A2FC2A4A04238032A2F580712548FBF78E
:1050500063FC06202C34A07068690078E0706869F1
:10506000407820716869807860716869C078A07143
:1050700068690079E07168694079207240F2DC501B
:105080002080607A40F00A0060721648FBF799FEB3
:1050900002AA11211348FBF753FE029840F00302C5
:1050A000029211210F48FBF737FF02AA12210D4887
:1050B000FBF746FE029840F02002029212210948B6
:1050C000FBF72AFF02AA12210648FBF739FE0298D5
:1050D00040F04002029212210248FBF71DFF3EBD44
:1050E0000080024060320020901A00204002002020
:1050F0002DE9F84F0020009000242D48FBF780FC9C
:1051000010B10020BDE8F88F2948818F89B2D0F80E
:10511000409021B10322042000F029FB0090009868
:1051200058B32348D0F83080009D24E06F890026D2
:1051300040F2F45B12E06868A4F2F45209EB040157
:1051400030445242FBF77EF8D8F80C80D8F808902B
:10515000AAF2F457361B06F2F456002407EB040AB1
:10516000DA45E8D8686809EB040130443A46FBF7B1
:1051700069F83C442D68002DD8D10D4A106B0021F0
:1051800005E0036843F000430360C068491C936B6B
:105190008B42F6D800219163106800F58050426977
:1051A000120602D58022426181600098AAE70000C1
:1051B000603200202DE9F05F0E462948C56AD5F817
:1051C00008A04FF00009002435E02868002802DA22
:1051D0006FF0070036E0B6F80A8000271BE0706821
:1051E000A4F2F452C1190AEB04005242FBF72AF868
:1051F000ED682868002802DA6FF0070022E0D5F891
:1052000008A0ABF2F4583F1B07F2F457A9EB0409CE
:1052100009F2F459002408EB040B40F2F4508345E2
:10522000DDD870684246C1190AEB0400FBF70AF8A2
:105230004444C1443668002EC7D149460848FBF7AC
:10524000E2FD00200649096801F580514A6992068D
:1052500003D520224A6100224A60BDE8F09F000089
:1052600060320020010600F47F4241EA022100F48E
:105270007F0241EA122141EA106070470106090CE1
:1052800041EA1020704710B500F0AAF800F090F93C
:1052900000F0E6F903F05AFB01F062F8BDE81040B7
:1052A00000F062BD30B510F8012B11F8013B9A42B5
:1052B0000DD042F02004A4F16105192D05D843F06A
:1052C00020039C4203D0012030BD012030BD002AC4
:1052D000E9D1002030BD2DE9F04104460F461646C5
:1052E0003846FAF7FBFF05460DB126440CE0204690
:1052F000BDE8F0813978884205D12A4639462046F2
:10530000FBF70EF838B1641C207810B16119B14276
:10531000F0D90020ECE72046EAE7000088B0202220
:1053200021496846FAF78EFF0124FBF73DFFFCF7A1
:1053300061FDFCF751FCFCF7BFFCFCF78BFCFBF7B5
:10534000EDF802F0CDFDFFF7EBF8FCF741FDFBF7C0
:1053500009F91648FCF750FE154E27021348FEF7D0
:10536000FDFA00F081FC1148FBF70AF90F48FCF741
:1053700043FE08B1012500E0002539463046FBF721
:10538000FDFE204305D125B10124684600F04CFC08
:10539000E4E739463046FBF7F1FE0128DED1002C68
:1053A000DCD00024DAE70000788C000884010020BB
:1053B0000018024000280FD008490A6890420BD319
:1053C0004A68904208D20838002202718A689042E6
:1053D00000D2886000F0FEBB704700004C00002047
:1053E00010B50A480A4A20F0030010604FF4C86361
:1053F000038000214180017100F5C86151600124E2
:105400000C710B804B80906010BD000003330020B6
:105410004C0000202DE9F04100280ED0C01C4FF6B2
:10542000FC7100EA01030C2B00D20C234FF4C86777
:10543000BB4204D90020BDE8F0810020FBE7224EEA
:105440003468B268101B81B2C3F5C86C37E06018CD
:10545000057995BB05886D1A083D9D422ED30588B8
:1054600003F114086D1A083D4FF0010C454515D3A2
:105470000B4408339DB263194FF0000883F8048091
:10548000B0F80080A3F800805980058080F804C03F
:105490001988B94204D0A31CCD5201E080F804C0A1
:1054A000904202D007E011880A19117911B1716890
:1054B0008A42F8D1B2600830BDE7FFE7615A8C45F7
:1054C000C5D80020B7E700004C0000202DE9F047C8
:1054D000C91C4FF6FC7211400C2900D20C214FF46C
:1054E000C86C614502D90020BDE8F087DFF8A490C0
:1054F000D9F80040A042F7D3D9F804209042F3D263
:10550000A0F10802131B9BB21588EE1A083EB7B231
:10551000B94202D94FF00000E6E7E5D025441D4E20
:1055200095F804A04FF000083668BAF1000F06F1B4
:10553000020618D001F11405BD42D5D8194408312E
:105540008DB26119D9F80840A14201D2C9F80810FA
:1055500081F8048014880C804B801580098861458F
:10556000C2D08D53C0E72F881944083189B2D9F8C9
:1055700008A0AA4502D16518C9F808500C4484F85F
:10558000048027806380118022886245ACD09153CB
:10559000AAE700004C000020092806D2002904D008
:1055A000024A52F82000FDF71FBE7047288D000800
:1055B00030B50024044D55F8240000F007F8641CB1
:1055C000A4B2092CF7D330BD288D000882680021D1
:1055D00011604168C91C21F00301002207E08368C3
:1055E0001B680B608368196003881944521C438848
:1055F0009342F4DC70470000092801D30020704773
:10560000024951F82000FDF7F5BD0000288D000883
:105610002DE9F04106AD0446E0CD00206060A060B9
:10562000E06084F835002062032084F82400E561FE
:105630000A4D287884F83800401C287027612046DD
:1056400000F01CF82046B04710B10020BDE8F08102
:10565000686820606C602046F8E700007C0000204D
:105660007047C90709D04168002906D090F8351065
:10567000090702D5011DFEF753B870472DE9F04127
:1056800007460C4615461E46002C0FD0216869B10E
:105690002946384600F056F83146384600F027F8DB
:1056A00021463846BDE8F04100F028B8214638468A
:1056B00000F024F82946384600F044F831463846D0
:1056C000BDE8F04100F013B8014988607047000060
:1056D0007C00002090F83510CA0707D021F00101A6
:1056E00080F83510090701D5FDF78EBD70470029F8
:1056F00002D00968C16070470021FBE738B5044655
:105700000D46002D02D02868009002E00C48006889
:1057100000900098616888420ED06946201D01F013
:1057200039F96946201D03F0CDF935B1286860606C
:1057300001212046FFF795FF38BD0020F7E7000064
:10574000C88D0008002902D00968816070470021D7
:10575000FBE790F83510CA0708D141F0010180F845
:105760003510490702D50321FFF77BBF70472DE9AC
:10577000F0470D46174605281BD2DFE800F0030569
:1057800007090B00362606E0222604E00E2602E07A
:10579000002600E000264FF001094FF00008F7B3A3
:1057A000012F6BD0022F69D0032F04D00020BDE859
:1057B000F0870020FBE70820FFF71EFF04462000CB
:1057C00019D02773C4F80080A019133020F003000B
:1057D00060602581F61C26F00300C0F50170A84228
:1057E00000D9284680B26081A4F80E9026462D1A72
:1057F0004FF4017A1CE000F0B7F90020D7E7082049
:10580000FFF7FAFEB8B1077380F80D80C0F800808A
:105810003060A9B20181514500D3514600E011E04A
:10582000418100F110024260A0F80E906D1A064608
:10583000002DE4DC2FE000F097F9204600F00EF98F
:105840000020B4E706F1130020F00301E81C20F06B
:105850000300084480B2FFF7DDFD044620000BD0B2
:10586000A019133020F00300606025816581C4F821
:10587000008084F80C800EE0002098E70720FFF7F6
:10588000BBFE044620000CD0C4F80480258165814D
:10589000C4F800802773A4F80E9084F80D80204689
:1058A00085E7002083E770B50546DDE90446184624
:1058B000052D15D2DFE805F0030507090B00362397
:1058C00006E0222304E00E2302E0002300E0002390
:1058D000DB1C23F003035D18B54203D9002070BD23
:1058E000002070BD0025056014B12344436000E032
:1058F0004560022343730181418102730121C1810B
:1059000070BD10B500280FD000290DD004E0038928
:105910000C892344038110460268002AF7D10289CA
:105920000B891A440281016010BD10B50C46214656
:10593000FFF7E7FF2046BDE8104000F045B9002121
:1059400002E0491C89B200680028FAD10846704775
:105950002DE9F04705460C46002600276FF00F0999
:10596000002D04D01CB128892189884202D24846E2
:10597000BDE8F0876FF0050A68896189801BC91B43
:10598000884202DB1FFA81F801E01FFA80F86068A4
:105990004246C11968683044FAF754FC06EB080027
:1059A00086B207EB080087B26089B84201D80027A9
:1059B00024686889B04205D100262D6815B90CB15C
:1059C0004846D5E73CB160892189884203D12068E7
:1059D00008B15046CCE73DB168892989884203D196
:1059E000286808B15046C3E7002CC5D10020BFE7A6
:1059F0002DE9F047894616464FF00008002805D0EB
:105A0000B9F1000F05D00027044622E00020BDE8D0
:105A1000F0870020FBE72BB16089984202D8181A62
:105A200083B215E06089C01A85B2B54200D9354607
:105A300060682A46C11809EB0700FAF703FC08EB77
:105A400005001FFA80F8781987B2701B86B2002310
:105A500024680EB1002CDED14046D8E770B500288E
:105A600001D0002407E0002070BDC189491E89B221
:105A7000C18121B100200028F7D1204670BD056802
:105A8000017B427B920702D50169884707E0032921
:105A900009D001290CD002290AD0FFF78BFC641C25
:105AA000E4B22846E7E701460820FFF775FDF6E770
:105AB00001460720FFF770FDF1E7000070B50848C8
:105AC000002505700748046807E0206F20B1206FAB
:105AD00002F038F9256770BDE468002CF5D170BD7F
